:107E000001C0E5C000D00F92CDB7DEB7112484B712
:107E1000811561F0982F9A70923041F081FF02C075
:107E200097EF94BF282E80E0BDD0EAC04A9903C0E6
:107E300088E0B8D0FFCF82E08093C00088E18093D3
:107E4000C10086E08093C200F999FECF80E090E007
:107E5000CED090EE980F9430A0F48093C4008EE0C2
:107E6000A1D094D0853509F449C090F4853409F443
:107E700043C048F4813491F1823409F43AC098D077
:107E800035C082E2EACF8135D1F788E08BD0F7CFD9
:107E9000843709F466C0C8F4863509F43AC08436DC
:107EA00071F774D073D0D82E71D0898300E011E0BF
:107EB00078010F5F1F4F6AD0F7018083D012F8CF8F
:107EC00077D0F981F53449F5FFCF8537C1F670D009
:107ED0008EE155D085E953D086E107C057D0182FE1
:107EE00067D083E0113809F48CE649D080E147D0AF
:107EF000B8CF84E165D0FACF85E0FCCF47D08A8344
:107F000045D08B838A819B81880F991F8A839B83AD
:107F1000B6CF84E055D080E0E8CF43E0EA81FB8132
:107F200047BFE89507B600FCFDCFEA81FB8180E002
:107F300091E0DC0102962D913D9141E0090147BF9E
:107F4000E89511243296D812F4CF45E0EA81FB81FE
:107F500047BFE89507B600FCFDCF81E187BFE895F4
:107F6000C5CF14D013D0F82E11D022D00A811B8196
:107F7000F80185918F0103D0FA94D1F7B7CF909192
:107F8000C00095FFFCCF8093C60008958091C0008B
:107F900087FFFCCF8091C00084FD01C0A89580912F
:107FA000C6000895E0E6F0E098E1908380830895AC
:107FB000EDDF803219F088E0F5DFFFCF84E1DFCF1D
:107FC000CF93C82FE3DFC150E9F7CF91F1CFFC0188
:107FD0000A0167BFE895112407B600FCFDCF667063
:107FE00029F0452B19F481E187BFE8950895F999A7
:0E7FF000FECF92BD81BDF89A992780B5089505
:027FFE00036C12
:0400000300007E007B
:00000001FF
