:100000000C9414020C94730A0C94240A0C9431027C
:100010000C940D0A0C94D7020C9431020C94310309
:100020000C94E1040C941B070C9431020C943102E3
:100030000C9431020C9431020C9431020C94310274
:100040000C9431020C9431020C9431050C94580537
:100050000C9431020C9431020C9431020C94310254
:100060000C9431020C9431020C9431020C94310244
:100070000C9431020C9431020C9431020C94310234
:100080000C9431020C9431020C9431020C94310224
:100090000C9431020C9431020C9431020C94310214
:1000A0000C9431020C9431020C9431020C94310204
:1000B0000C9431026E616E00696E660000407A1029
:1000C000F35A00A0724E18090010A5D4E80000E809
:1000D0007648170000E40B54020000CA9A3B000067
:1000E00000E1F505000080969800000040420F00F6
:1000F0000000A08601000000102700000000E803B7
:10010000000000006400000000000A000000000081
:100110000100000000002C76D888DC674F0823DF40
:10012000C1DFAE59E1B1B796E5E3E453C63AE65113
:10013000997696E8E6C28426EB898C9B62ED407C3A
:100140006FFCEFBC9C9F40F2BAA56FA5F490055AD6
:100150002AF75C936B6CF9676DC11BFCE0E40D47FB
:10016000FEF520E6B500D0ED902E0300943577051E
:100170000080841E080000204E0A000000C80C33D6
:100180003333330F986E12831141EF8D2114893B65
:10019000E65516CFFEE6DB18D1844B381BF77C1DE5
:1001A000901DA4BBE424203284725E228100C9F138
:1001B00024ECA1E53D274E414E494E495459494E44
:1001C00046CDCCCC3D0AD7233C17B7D13877CC2BC2
:1001D000329595E6241FB14F0A000020410000C867
:1001E0004200401C4620BCBE4CCA1B0E5AAEC59DE8
:1001F000740A1F11111111111F0A1F111111111F62
:100200001F0A1F1111111F1F1F0A1F11111F1F1F6E
:100210001F0A1F111F1F1F1F1F0A1F1F1F1F1F1F26
:100220001F0204081F0204082007040704041F110A
:100230001F636D6420666F726D61743A2078202DA3
:100240003E20676574207800007831202D3E2073B1
:10025000657420783D312E20636D64733A00000090
:100260000061202D20616C61726D206C6576656C7B
:1002700000000000000000000062202D2062656583
:100280007020656D6974000000000000000000002F
:100290000063202D20636C69636B65722073657445
:1002A00074696E67000000000064202D20646F7385
:1002B0006520746F74616C00000000000000000095
:1002C0000065202D20454550524F4D20722F77203C
:1002D00040205800000000000066202D2066696C58
:1002E00074657220666163746F7200000000000024
:1002F0000068202D206869676820766F6C746167DC
:100300006500000000000000006B202D206B657967
:1003100020646562756767696E6700000000000011
:10032000006C202D206C6F6767696E6720696E74A2
:10033000657276616C000000006D202D206D6F6489
:10034000652076696577000000000000000000006D
:10035000006E202D206E756D6265722072616E6474
:100360006F6D0000000000000072202D207261748B
:100370006520646F7365000000000000000000004D
:100380000073202D2073687574646F776E00000011
:1003900000000000000000000074202D2074696D32
:1003A00065000000000000000000000000000000E8
:1003B0000075202D20554152542063616C69627292
:1003C0006174696F6E0000000076202D20766F6CDE
:1003D00074616765206D656173757265000000006A
:1003E0000078202D20454550524F4D2061646472A5
:1003F0006573730000000000007A202D2072657381
:1004000065742073797374656D000000000000004E
:10041000000E724347161A1E4024286C10744B219C
:1004200005696D115502660A11241FBECFEFD8E091
:10043000DEBFCDBF13E0A0E0B1E0ECE8FCE302C01A
:1004400005900D92A43EB107D9F725E0A4EEB3E0E4
:1004500001C01D92A835B207E1F70E94AB0A0C94C7
:10046000441E0C94F606F89483B7817F866083BFA0
:1004700083B7816083BF7894889583B78E7F83BF6D
:100480000895F894A89598E088E10FB6F894A89597
:10049000809360000FBE90936000FFCFFC018081CD
:1004A00021E030E001C0220F6A95EAF7442311F001
:1004B000282B02C02095282320830895462FE82F5B
:1004C000F0E0EF5EFB4F6491862F83706695669532
:1004D0006770811103C085E290E00CC0813019F48F
:1004E00088E290E007C0823019F48BE290E002C00D
:1004F0008EE290E00C944E02462FE82FF0E0EF5E83
:10050000FB4F6491862F83706695669567708111A5
:1005100003C084E290E00CC0813019F487E290E0DF
:1005200007C0823019F48AE290E002C08DE290E0C8
:100530000C944E02CF93E82FF0E0EF5EFB4FC49196
:10054000C5FB992790F981E089270E94CC068C2F62
:1005500083702C2F26952695811102C083B109C086
:10056000813011F486B105C0823011F489B101C027
:100570008CB190E0277002C0959587952A95E2F797
:100580008170CF910895CF9386E00E949A02C82F80
:1005900085E00E949A02CC0FCC0F880FC82B84E014
:1005A0000E949A028C2B97E08927CF9108951F9281
:1005B0000F920FB60F9211242F933F934F935F9397
:1005C0006F937F938F939F93AF93BF93EF93FF931B
:1005D0000E94C3022091E503382F32279091E40353
:1005E000922393238093E5032091E40321111AC001
:1005F00043E050E024E03823832F822379F02093D6
:10060000E4038091B20081508093B30082E087BB05
:100610008091700082608093700004C026954150E4
:10062000510951F7992361F0809170008D7F80937B
:1006300070001092E40380910104982B90930104C0
:10064000FF91EF91BF91AF919F918F917F916F91AA
:100650005F914F913F912F910F900FBE0F901F9080
:1006600018951F920F920FB60F9211242F933F935C
:100670004F935F936F937F938F939F93AF93BF93AA
:10068000EF93FF930E94C3029091E4032091010431
:10069000892338E0839FC0011124822B80930104B9
:1006A000E0E7F0E080818D7F80831092E403FF918A
:1006B000EF91BF91AF919F918F917F916F915F91DA
:1006C0004F913F912F910F900FBE0F901F90189553
:1006D000CF93DF93C82FD62FE82FF0E0EF5EFB4FCC
:1006E000849185FB882780F90E94CC066D2F8C2F82
:1006F000DF91CF910C945E02CF93DF93D82F60E00F
:1007000081E10E946803C8E06D2F661F6627661F9F
:100710008AE00E94680360E08CE00E946803DD0FBD
:1007200061E08CE00E946803C15071F761E081E1F3
:100730000E94680380E58A95F1F7DF91CF910895D3
:10074000CF93C82F61E080E10E9468038C2FCF9186
:100750000C947C03CF93C82F60E080E10E94680373
:100760008C2F0E947C03C43030F48FE698E0019710
:10077000F1F700C00000CF91089581E00C94AA0326
:1007800081E391E09F938F930E94BC050F900F909F
:100790000E948A058111FCCF0E94BD03809108044C
:1007A0008B7F809308040E94AA0360E089E00E9486
:1007B000680360E08EE00E94680360E081E00E94D0
:1007C0006803A8950FB6F894A89580916000886199
:1007D00080936000109260000FBE80910A04811126
:1007E00002C0F894FFCF80E00E94A406E89860E081
:1007F00088E00E946803E998809168008D7F80936B
:100800006800809170008E7F8093700080917000EE
:100810008B7F80937000809170008D7F809370003B
:100820008091B6008F7D8093B600809170008D7F9F
:100830008093700080916D008F7980936D0086E0C9
:100840000E949A028823D9F32FEF80E792E021508B
:1008500080409040E1F700C000000E9433020E94F7
:100860004102662321F0613118F060E101C061E0CE
:10087000823011F480E401C080E06158860F0C944E
:10088000AA030F931F93CF93DF93CDB7DEB7619782
:100890000FB6F894DEBF0FBECDBF888D882319F048
:1008A00060E00E9431048E010F5F1F4F81E1F8016B
:1008B00011928A95E9F79E01255E3F4F498D5A8D29
:1008C00061E170E0C8010E94181EF80181918F015A
:1008D000882319F00E94A003F8CF61960FB6F89410
:1008E000DEBF0FBECDBFDF91CF911F910F91089555
:1008F00080917A00806480937A0080917A0086FDEE
:10090000FCCF8091780090917900089587E00E9453
:10091000A4049C01A8E8B3E10E941B1C2FEF33E064
:1009200040E050E00E94F91BC90108958EE00E944A
:10093000A4049C0140E050E064EB7BE281E190E0A4
:100940000E94F91BC9010895CF92DF92EF92FF92A6
:10095000CF9390917C00907F90937C0090917C004D
:10096000982B90937C0090917A00906890937A00F5
:1009700090910401891721F0809304010E9478046A
:10098000C0E0C12CD12C76010E947804C80ED91E7B
:10099000E11CF11CCF5FC031B9F780917A008F77ED
:1009A00080937A00D701C60124E0B695A795979564
:1009B00087952A95D1F7CF91FF90EF90DF90CF9058
:1009C00008951F920F920FB60F9211242F933F9309
:1009D0004F935F936F937F938F939F93AF93BF9347
:1009E000EF93FF93E0E7F0E080818B7F808360E00E
:1009F00089E00E946803FF91EF91BF91AF919F91B1
:100A00008F917F916F915F914F913F912F910F90B7
:100A10000FBE0F901F901895CF93DF93EC0161E00C
:100A200089E00E946803BE0180E090E00E947D1A88
:100A300020E030E04AE750E40E94971C0E94C21D6B
:100A4000C091B2000E94451DC60FC093B40084E05F
:100A500087BBE0E7F0E0808184608083DF91CF9105
:100A600008951F920F920FB60F9211248F93EF9358
:100A7000FF938091C0008295817080933904E0914A
:100A8000380481E08E0F80933804F0E08091C60036
:100A9000E85EFB4F8083809138048F718093380427
:100AA000FF91EF918F910F900FBE0F901F901895AF
:100AB0001F920F920FB60F9211248F939F93EF9373
:100AC000FF938091C00080648093C000E091530543
:100AD00081E08E0F80935305F0E0ED5AFB4F80814B
:100AE0008093C600809153058093530590915305E0
:100AF00080915204981305C08091C1008F7D80932E
:100B0000C100FF91EF919F918F910F900FBE0F90B9
:100B10001F90189580915104882359F09091C1003D
:100B200095FD07C09091C00096FF03C0109251043C
:100B300080E00895CF93DF93C82FD62F80EE8C0FDF
:100B40008430A0F40E948A058111FCCF8C2F90E0A4
:100B50009093C5008093C400DD2351F0F999FECF36
:100B60006C2F80E090E00E94A71B02C080E001C0D3
:100B700081E0DF91CF9108950F931F93CF93DF937F
:100B8000CDB7DEB7C054D1090FB6F894DEBF0FBEA3
:100B9000CDBF809112048823C1F181E0809351047C
:100BA0008E010F5F1F4F80E4F80111928A95E9F7DB
:100BB0009E01275B3F4F29964EAD5FAD299760E4BC
:100BC00070E0C8010E94181E80E0F801E80FF11DD6
:100BD0009081992381F08F5FE091520421E02E0FE4
:100BE00020935204F0E0ED5AFB4F90839091520411
:100BF00090935204EACF8091C00080648093C0003B
:100C00008091C10080628093C100C05CDF4F0FB64D
:100C1000F894DEBF0FBECDBFDF91CF911F910F9132
:100C20000895CF92DF92EF92FF92CF93DF93C82F78
:100C30008BE093E09F938F930E94BC05809170009E
:100C40008E7F8093700090918100109281001092AD
:100C50008500109284000F900F90B89BFECF81E02A
:100C600087BB80918100846080938100B89BFECF18
:100C700021E027BB809181008B7F80938100809150
:100C80007000816080937000C0908400D0908500D7
:100C9000E12CF12CFE2CED2CDC2CCC24909381004B
:100CA0008091140490911504A0911604B09117043A
:100CB0000296A11DB11D8093140490931504A09376
:100CC0001604B093170420931304C701B6010E94C1
:100CD0007D1A20E030E041E658E40E94971C20E0B5
:100CE00030E040E85FE30E942A1C0E94C21D0E947F
:100CF000451DD62F6C2F8D2F0E949A05C82F81116C
:100D000003C085E093E002C082E093E01F92DF938E
:100D1000FF92EF92DF92CF929F938F938FE193E0B8
:100D20009F938F930E94BC058DB79EB70A960FB60E
:100D3000F8949EBF0FBE8DBF8C2FDF91CF91FF9097
:100D4000EF90DF90CF90089590911204981719F1C9
:100D5000809312048823C1F010925305109252041C
:100D600010921104109238048091C0008064809326
:100D7000C0008091C0008F7E8093C0008091C10030
:100D800088698093C10008958091C100877C809319
:100D9000C10010925104089581111FC086E00E9485
:100DA0009A02811102C00E94C0032FE788E391E0FC
:100DB000215080409040E1F700C0000060E089E0F1
:100DC0000E9468032FEF81EE94E021508040904014
:100DD000E1F700C00000A895E1CF089581E00E94EE
:100DE000CC0695B184E0892785B908951F920F92AA
:100DF0000FB60F9211242F933F934F935F936F93EE
:100E00007F938F939F93AF93BF93EF93FF9380E074
:100E10000E94CC06FF91EF91BF91AF919F918F916E
:100E20007F916F915F914F913F912F910F900FBEE6
:100E30000F901F9018951F920F920FB60F921124CA
:100E40002F933F938F939F93AF93BF9380911404FD
:100E500090911504A0911604B09117040196A11D5C
:100E6000B11D8093140490931504A0931604B093BD
:100E7000170481E0809313048FB7F89420914F04F6
:100E8000309150043093100420930F048FBFBF9112
:100E9000AF919F918F913F912F910F900FBE0F9027
:100EA0001F9018950F931F93CF93DF9340911404D5
:100EB00050911504609116047091170480910B04F1
:100EC00090910C04A0910D04B0910E048A019B0135
:100ED000080F191F2A1F3B1FC901B80120E13EE07E
:100EE00040E050E00E94C71BD22FC32F2CE330E01C
:100EF00040E050E00E94C71B722F8D2F9C2FDF9186
:100F0000CF911F910F910895BF92CF92DF92EF92F0
:100F1000FF920F931F93CF93DF93F0903A040091C9
:100F20003B0410913C04D0913D040E945207B62E20
:100F3000C72EE82ED92E20914C0430E08091030179
:100F4000082E000C990B2817390731F00E94BD03B9
:100F500080914C0480930301C0914C04C23009F489
:100F600048C130F4CC2391F0C13009F4AAC0DCC1EF
:100F7000C43009F45CC108F497C1C63009F0D4C18B
:100F800085ED93E09F938F9381E0C7C188E393E061
:100F90009F938F9381E08F930E9441040F900F9055
:100FA0000F9020E030E040E251E46F2D702F812F50
:100FB0009D2F0E94781A87FF15C0DF931F930F9310
:100FC000FF9283E493E09F938F9382E08F930E943C
:100FD00041048DB79EB707960FB6F8949EBF0FBE1B
:100FE0008DBF60C020E030E048EC52E46F2D702FE0
:100FF000812F9D2F0E94781A87FF15C0DF931F93C2
:101000000F93FF928DE493E09F938F9382E08F93F1
:101010000E9441048DB79EB707960FB6F8949EBF05
:101020000FBE8DBF3FC020E030E04AE754E46F2D93
:10103000702F812F9D2F0E94781A87FF15C0DF9394
:101040001F930F93FF9287E593E09F938F9382E026
:101050008F930E9441048DB79EB707960FB6F89400
:101060009EBF0FBE8DBF1EC020E030E04AE754E4B3
:101070006F2D702F812F9D2F0E94971C9F938F9310
:101080007F936F9381E693E09F938F9382E08F939A
:101090000E9441048DB79EB707960FB6F8949EBF85
:1010A0000FBE8DBF6BE082E00E94310480914B0443
:1010B000882309F43CC18EED93E09F938F931F9298
:1010C0002DC18BE693E09F938F93CF930E944104B1
:1010D0000091470410914804D0914904C0914A04FA
:1010E0000F900F900F9020E030E040E251E4FE01BD
:1010F000602F712F8F2F9E2F0E94781A87FF15C0A7
:10110000CF93DF931F930F9387E793E09F938F9382
:1011100082E08F930E9441048DB79EB707960FB669
:10112000F8949EBF0FBE8DBF02C120E030E048ECB6
:1011300052E4FE01602F712F8F2F9E2F0E94781A8C
:1011400087FF15C0CF93DF931F930F938FE793E033
:101150009F938F9382E08F930E9441048DB79EB737
:1011600007960FB6F8949EBF0FBE8DBFE0C020E07B
:1011700030E04AE754E4FE01602F712F8F2F9E2F3D
:101180000E94781A87FF15C0CF93DF931F930F93A8
:1011900087E893E09F938F9382E08F930E944104AE
:1011A0008DB79EB707960FB6F8949EBF0FBE8DBF42
:1011B000BEC020E030E04AE754E4FE01602F712F0A
:1011C0008F2F9E2F0E94971C9F938F937F936F93D7
:1011D0008FE893E09F938F9382E08F930E94410466
:1011E0008DB79EB707960FB6F8949EBF0FBE8DBF02
:1011F0009EC087E993E09F938F9381E08F930E9435
:1012000041041F92BF921F92CF92DF92EF928DE91D
:1012100093E09F938F93CF930E9441048DB79EB725
:101220000C960FB6F8949EBF0FBE8DBF80C00E9473
:101230009604EC010E9486048C018CEA93E09F9353
:101240008F9381E08F930E944104B80180E090E089
:101250000E947D1A20E030E04AE754E40E94971C87
:101260009F938F937F936F93BE0180E090E00E94E5
:101270007D1A20E030E04AE754E40E94971C9F93D7
:101280008F937F936F9386EB93E09F938F9382E08E
:101290008F930E9441048DB79EB70E960FB6F894B7
:1012A0009EBF0FBE8DBF43C086EC93E09F938F938C
:1012B00081E08F930E944104C0914304D091440483
:1012C00010914504009146040F900F900F9020E07C
:1012D00030E0A901F8016C2F7D2F8F2F9E2F0E94E7
:1012E000781A8823A9F00F931F93DF93CF9387E594
:1012F00093E09F938F9382E08F930E9441048DB778
:101300009EB707960FB6F8949EBF0FBE8DBF0FC055
:1013100081ED93E09F938F9382E08F930E9441042D
:101320000F900F900F9003C080E00E94CC06809138
:101330004204882329F09091020181E0892701C0AD
:1013400081E08093020180910201882319F0C0910D
:10135000410401C0C0E260E181E00E9431048C2FB1
:101360000E94A00386E10E949A02882339F06FE070
:1013700081E00E94310486E00E94A0038091400435
:10138000882339F06EE081E00E94310483E60E94F8
:10139000A00380913F04882339F06DE081E00E9432
:1013A000310487E00E94A00380914C04811125C084
:1013B00080913E04811106C060E182E00E94310408
:1013C00086E420C0813031F460E182E00E94310483
:1013D0008DE418C0823029F460E10E94310483E575
:1013E00011C080E0DF91CF911F910F91FF90EF909E
:1013F000DF90CF90BF900C94CC0660E182E00E9419
:10140000310480E2DF91CF911F910F91FF90EF9017
:10141000DF90CF90BF900C94A0031F920F920FB655
:101420000F9211248F939F9380914D0490914E04BD
:10143000019690934E0480934D049F918F910F904D
:101440000FBE0F901F9018951F920F920FB60F921C
:1014500011248F939F9380914F0490915004019693
:101460009093500480934F049F918F910F900FBEE3
:101470000F901F901895FC0110924E0410924D048D
:1014800090916C00906190936C0082E08BBB909186
:1014900068009260909368002FEF80E792E02150FF
:1014A00080409040E1F700C00000909168009D7F6F
:1014B00090936800309731F080914D0490914E04E4
:1014C0009183808380914D0490914E040B9740F05E
:1014D00020914D0430914E0481E0243F314008F0CA
:1014E00080E0817008951F920F920FB60F92112421
:1014F0002F933F934F935F936F937F938F939F931C
:10150000AF93BF93CF93EF93FF9386E10E949A022C
:10151000C82F80910A042C2F30E090E0281739075B
:1015200041F08C2F0E94A406C0930A0481E08093AE
:101530000904FF91EF91CF91BF91AF919F918F914E
:101540007F916F915F914F913F912F910F900FBEBF
:101550000F901F901895CF93DF93CDB7DEB7A99763
:101560000FB6F894DEBF0FBECDBF14BEA89599E2AA
:1015700088E10FB6F894A895809360000FBE909311
:10158000600000E010E0F801EF5EFB4FF490F5FA28
:10159000EE24E0F86E2D802F0E947C02F6FAFF24E4
:1015A000F0F8E11008C081E00E94CC066F2D802F7A
:1015B0000E945E0204C06F2D802F0E9468030F5F9F
:1015C0001F4F07311105F9F661E089E00E946803B9
:1015D0000FEF10E722E0015010402040E1F700C07B
:1015E000000060E089E00E94680386E10E949A02A0
:1015F00080930A0490910A0481E0911101C080E077
:101600000E94A4068091690081608093690081E056
:101610008CBBE89A78948091C00082608093C0006F
:101620008091C30080668093C300F999FECF80E06B
:1016300090E00E949F1B60E00E949A05182F811184
:1016400006C082E290E09093C5008093C40086E5D6
:1016500091E09F938F938AE591E09F938F938EE51E
:1016600091E09F938F930E94BC0584E791E09F9344
:101670008F930E94BC0585E00E949A0218238CE09B
:101680008093080461E081E10E947C0261E081E1D5
:101690000E94680361E08AE00E947C0261E08CE0C5
:1016A0000E947C0261E08CE00E94680360E080E1BF
:1016B0000E94680329E0E22E21E0F22E0FB6F89492
:1016C000DEBF0FBECDBFF70181917F010E94AA034B
:1016D000F1E1EF16F1E0FF06B1F791EFC92E91E0CD
:1016E000D92E00E4802F0E94AA03E12CF12CF601F0
:1016F000EE0DFF1D84918BA38BA10E94A0032FEF01
:10170000E21AF20A38E0E316F10489F7085F88E08C
:10171000C80ED11C003831F70E94BD038091080427
:101720008E7F809308040E94AA0389E30E94AA0383
:1017300082E50E94AA0383E70E94AA0388E30E942D
:10174000AA03809108048460809308040E94AA037D
:101750008CE791E09F938F9301E00F930E944104E7
:1017600086E591E09F938F938AE591E09F938F9315
:1017700083E891E09F938F9382E08F930E944104CE
:101780008091B60080628093B6001092B20007BBD1
:1017900085E08093B1000FB6F894DEBF0FBECDBFD9
:1017A0008EE1FFEF00E722E0F15000402040E1F73A
:1017B00000C00000B89B0CC001E007BB10921304EE
:1017C00080917000816080937000111130C007C05B
:1017D000815039F70E94BD0309EA12E024C30E9438
:1017E000BD0381E991E09F938F930F930E94410481
:1017F00081E00E9411060F900F900F90811103C09D
:1018000081E491E002C08DE391E09F938F9382E0A9
:101810008F930E9441043FEF89E698E13150804068
:101820009040E1F700C000000F900F900F90809162
:101830007A00836080937A0080917C00806480933A
:101840007C000E9496048858934197FF03C09195AD
:1018500081959109883C91052CF00E94BD030CE90B
:1018600011E0E1C28DEC9CECACE4BEE38093030498
:1018700090930404A0930504B093060410924704C7
:10188000109248041092490410924A041092FD03E9
:101890001092FC0361E088E00E94680380E090E021
:1018A0000E943B0A182F882309F4CEC28091690058
:1018B00088608093690082E08CBBE99A10920004F2
:1018C00080916D00806E80936D0084E08BBB809171
:1018D000680084608093680080E090E0A0E0BFE34F
:1018E0008093430490934404A0934504B09346042A
:1018F0001092400410924C0480918100816080938A
:10190000810089EA91E09F938F930E94BC0581EB4F
:1019100091E09F938F930E94BC05A8959FE088E17A
:101920000FB6F894A895809360000FBE9093600066
:101930000F900F900F900F90812F0E94CC06FE0108
:101940003196FDA3ECA380911204882309F4E4C02E
:1019500080E2ECA1FDA111928A95E9F7809139040A
:101960008823C1F08091C1008F7E8093C1001092C6
:101970003904F999FECF60E080E090E00E94B91B45
:1019800010921104109238048091C10080618093FC
:10199000C100BCC0E091110480E090913804E917C7
:1019A00009F4B4C091E0980F21E02E0FF0E0E85E5A
:1019B000FB4F3081E1E0F0E0EC0FFD1FE80FF11D7F
:1019C0003083E22FEF71AE2FB0E0A85EBB4F8C9159
:1019D0008A3061F5E1E0F0E0EC0FFD1FE90FF11D49
:1019E00010821C9280913804809311041981ECA11B
:1019F000FDA101900020E9F731977F012CA13DA1C5
:101A0000E21AF30A81E090E08C0F9D1F9F938F9361
:101A1000ECEEF1E0FF93EF930E94BC050F900F9066
:101A20000F900F9021E02E1518F045C0892FB5CFEB
:101A3000CE0102960E942F171C01CE0102960E9431
:101A40002B171C3609F451C5F0F4143609F413C5EC
:101A500078F4113609F4DEC420F41F3309F463C2AC
:101A600059C2123609F4EBC4133609F4ECC452C25D
:101A7000163609F409C5E8F0183609F41DC51B36F9
:101A800009F42BC547C2143709F4ECC148F41E36DB
:101A900009F454C208F434C5123709F0ACC14EC27F
:101AA000163709F44BC208F46DC5183709F0ADC4F8
:101AB000AAC521E010C01C3609F41CC508F08EC16F
:101AC000143609F4C9C408F431C2163609F4E5C461
:101AD00008F08AC420E01091E603812F90E0F99984
:101AE000FECF222351F03FEF2316310411F008F00E
:101AF0001AC2622D0E94A71B0AC20E949F1B1F923E
:101B00008F931F921F9386EC91E01DC580918400F6
:101B1000909185000E94201780911304882309F476
:101B2000B3C010921304A8950E9452076EA37FA31E
:101B300098A7982F89A720910F0430911004409105
:101B4000EB035091EC038091FE0324173507A9F0B5
:101B5000409114045091150460911604709117047B
:101B60003093EC032093EB034093E7035093E80397
:101B70006093E9037093EA03EAC1009114041091A1
:101B8000150420911604309117044091E7035091F9
:101B9000E8036091E9037091EA03445C5F4F6F4F83
:101BA0007F4F401751076207730708F0D0C18111BA
:101BB0002FC081E08093FE031F92EEA1EF931F924E
:101BC000FFA1FF9308A50F939F9384EF91E09F934C
:101BD0008F930E94BC05CE0101960E943B0A0FB66E
:101BE000F894DEBF0FBECDBF8111D0C360E088E0A6
:101BF0000E9468038A818F9389818F9384E092E0A9
:101C00009F938F930E94BC050F900F900F900F90A1
:101C1000F0903A04E0903B04D0903C04C0903D0426
:101C20000E945207B62E072F982E892E8091FE0310
:101C3000882309F4C8C281E080934B048091070493
:101C4000882309F4BCC260E089E00E9468038091A7
:101C5000420481110AC386E10E949A02882309F492
:101C600028C38FE00E949A02882309F416C385E0F6
:101C7000809341048FEF9FEF9093010180930001C7
:101C8000109242040E9484078FB7F89410910104C7
:101C9000109201048FBF80910004882381F01123EA
:101CA00009F4B0C01F921F9380EA92E09F938F9334
:101CB0000E94BC050F900F900F900F9003C011234E
:101CC00009F4A0C090913F04992321F0812F8F7EC9
:101CD00009F096C080914B04882341F0809107045D
:101CE000811104C0812F8B7F09F08AC0143009F460
:101CF00071C078F41130B9F0123009F081C06091F0
:101D0000400481E06827609340048EE00E946803ED
:101D10005EC0103109F457C0103209F46FC018309A
:101D200009F06EC00BC080914C048F5F853018F4B1
:101D300080934C0465C010924C0462C080914C04A6
:101D4000882319F0833001F142C080913E048F5FF7
:101D5000833018F480933E0402C010923E04E09158
:101D60003E0424E0E29FF0011124EB5DFE4F8081F0
:101D70009181A281B3818093030490930404A09382
:101D80000504B093060423C0809102048F5F853060
:101D900018F48093020402C010920204E09102043D
:101DA00034E0E39FF0011124EF5EFE4F80819181CA
:101DB000A281B3818093430490934404A09345048B
:101DC000B093460404C081E0892780933F040E94B9
:101DD000BD0316C081E08093070412C0143709F4D4
:101DE000BDC308F00AC31E3609F496C308F48BC3BA
:101DF000123709F49AC3133709F08CC00E94C0034C
:101E00000E94840780910904882331F0109209040C
:101E10000E94BD030E9484070E948A058111FCCFA5
:101E20000E94330290CD1F930F9381E08F930E9405
:101E300041041F930F930E94BC050F900F900F90C9
:101E40000F900F9010E078CD0E94BD0386EB92E0DA
:101E50009F938F9381E08F930E9441040F900F9086
:101E60000F906ACD6BE973E0CE0102960E943018A4
:101E70007C01892B09F457C06BE973E080E090E0A6
:101E80000E9430184C01892B09F44DC06BE973E0B6
:101E900080E090E00E9430186C01892B09F443C067
:101EA000C7010E942F177C01C4010E942F17182F11
:101EB000C6010E942F17482F40901404509015041B
:101EC00060901604709017049701A0E1BEE00E9494
:101ED0001B1C6B017C01212F30E0ACE3B0E00E94C1
:101EE0001B1CDC01CB018C0D9D1DAE1DBF1D840F85
:101EF000911DA11DB11D84199509A609B7098093EB
:101F00000B0490930C04A0930D04B0930E0482EC88
:101F100092E016C086EC92E013C060E0822D0E9431
:101F20009A058111F4CF8DED92E00AC0113609F4C3
:101F30007AC208F434C2123609F050C284EE92E03C
:101F40009F938F930E94BC050F900F90E5CD88233F
:101F5000E9F01092FE031F923EA13F931F928FA1C2
:101F60008F9398A59F93E9A5EF9384EF91E09F93BA
:101F70008F930E94BC0589E292E09F938F930E9409
:101F8000BC050FB6F894DEBF0FBECDBF80910F0425
:101F9000909110042091F9033091FA03BC01621B67
:101FA000730B9093FA038093F90380E090E00E9412
:101FB0007D1A6B017C012DEB3AE347E459E30E9463
:101FC000DE1A9B01AC0160E070E080E89FE30E94B4
:101FD0002A1C9B01AC01C701B6010E94971C6B0132
:101FE0007C018090030490900404A0900504B090BC
:101FF0000604A501940160E070E080E89FE30E9480
:102000002A1C2091F5033091F6034091F70350917B
:10201000F8030E94DE1A2B013C0120E030E040E78B
:1020200052E4C701B6010E94DE1AA50194010E9484
:10203000DE1A9B01AC01C301B2010E942B1C60930C
:10204000F5037093F6038093F7039093F80320E071
:1020500030E047E553E40E94971C60933A04709384
:102060003B0480933C0490933D04C701B6010E9459
:10207000C21D0E940E1DA090ED03B090EE03C09013
:10208000EF03D090F003E090F103F090F2030091A1
:10209000F3031091F4030E940F1E2093ED0330937D
:1020A000EE034093EF035093F0036093F1037093BA
:1020B000F2038093F3039093F4030E94741D20E0D5
:1020C00030E949E456E40E94971C609347047093FA
:1020D00048048093490490934A048091FC039091B2
:1020E000FD03892B09F468C08091FB0381110BC0AB
:1020F0008FE392E09F938F930E94BC0581E08093D1
:10210000FB030F900F9040911404509115046091BF
:1021100016047091170480910B0490910C04A09107
:102120000D04B0910E048A019B01080F191F2A1F8C
:102130003B1FC901B8012091FC033091FD0340E031
:1021400050E00E94F91B672B682B692B09F060CDCA
:102150001F921EA11F931F922FA12F9338A53F936B
:1021600089A58F9384EF91E09F938F930E94BC0584
:1021700080914A048F93809149048F938091480401
:102180008F93809147048F9380913D048F9380912A
:102190003C048F9380913B048F9380913A048F93FA
:1021A0008AE592E09F938F930E94BC050FB6F89446
:1021B000DEBF0FBECDBF2CCD1092FB0329CD86E034
:1021C00080934C0444C04090430450904404609079
:1021D00045047090460420E030E0A901C301B2013B
:1021E0000E94781A882361F011E0B701C601272FF9
:1021F000362F492F582FC301B2010E94781A87FF4A
:1022000010E0117010934B04112321F11F92BF9223
:102210001F920F938F929F9284EF91E09F938F93E1
:102220000E94BC05CF92DF92EF92FF928DE692E082
:102230009F938F930E94BC050FB6F894DEBF0FBE2C
:10224000CDBF809107048111FECC10924C040E94F6
:10225000EE06FDCC0E94BD0360E089E00E946803A9
:102260001092070410924B04F2CC60911404709108
:102270001504809116049091170425E030E040E0A9
:1022800050E00E94F91B672B682B692B09F0E3CC07
:102290008AE090E00E940C05DECC8091FF038093E1
:1022A0004104853011F08F5F01C080E08093FF030F
:1022B000E1CC1092FF030E945207662339F080910F
:1022C000000190910101019609F0DCCC0E94860486
:1022D000BC019093010180930001833D2FE09207A0
:1022E00014F085E004C08D339F4024F084E0809397
:1022F000410414C0673A8EE0780714F083E0F7CF0A
:1023000061319EE0790714F082E0F1CF6B37EDE0A8
:102310007E0714F081E0EBCF1092410481E09091B0
:102320004104911180E080934204072E000C880B39
:10233000990B0E947F1A23E333E343E550E40E94A4
:10234000781A87FF9FCC0E94BD0389E892E09F9393
:102350008F9381E08F930E944104809101018F93BC
:10236000809100018F9388E992E09F938F9382E0A0
:102370008F930E944104FFEF09E618E1F1500040FD
:102380001040E1F700C000000E94C00385E192E028
:102390009F938F930E94BC050F900F9039CC1F33F1
:1023A00009F0B8CD01E312E081E1E82E84E0F82ED7
:1023B0001F930F9320EF31E03F932F930E94BC05B2
:1023C0000F900F900F900F900E948A058111FCCF03
:1023D000085E1F4FE016F10659F799CD133609F044
:1023E00099CD8091400491C0183609F46EC01B3617
:1023F00009F090CD8091000488C0163709F4EAC036
:1024000008F4DDC0183709F407C11A3709F082CD86
:102410000E944102609343047093440480934504F6
:102420009093460474CD809146048F938091450427
:102430008F93809144048F938091430439C0C101EC
:102440000E940C0564CD61E02114310409F460E0C0
:10245000609340048EE036C080914A048F9380914F
:1024600049048F93809148048F93809147048F9300
:1024700084E692E068C060934704709348048093B8
:10248000490490934A0443CD609303047093040479
:1024900080930504909306043ACD809106048F93AF
:1024A000809105048F93809104048F93809103049D
:1024B0008F938CEE92E047C061E02114310409F45F
:1024C00060E088E00E94680322CDCE0181960E94E0
:1024D0003B0A8AA18F9389A122C081E02114310493
:1024E00009F480E08093000412CD3092FD03209225
:1024F000FC030DCD8091FD038F938091FC030FC0F1
:1025000020924C0404CD80914C041F928F9381E162
:1025100092E09F938F9388C00E941B179F938F9385
:1025200001E112E01F930F937FC080913D048F93D0
:1025300080913C048F9380913B048F9380913A0467
:102540008F938EE792E09F938F930E94BC050F902C
:102550000F900F900F900F900F90D9CC0E945207C0
:102560001F926F931F927F939F938F9382EF92E0BE
:102570009F938F930E94BC050FB6F894DEBF0FBEE9
:10258000CDBFC5CC2114310409F0C7CCA89518E102
:1025900088E20FB6F894A895109360000FBE809360
:1025A000600080E00E941106A8958FE00FB6F894B5
:1025B000A895109360000FBE80936000A8CC809116
:1025C000C4009091C5009F938F9321E132E03F9327
:1025D0002F932AC08FE00E949A02882389F008E492
:1025E00011E00E948604F82EE92E0E9496041F93A3
:1025F0000F93EF92FF929F938F938AED91E0B8CF64
:102600000DE411E0EECF9FEF2916310411F008F030
:102610008ACC2092E6037BCC8091E6031F928F93B5
:10262000E1E1F2E0FF93EF930E94BC050F900F9061
:102630000F900F906CCCA0E1B0E0E1E2F3E10C94DC
:1026400098167C011B016A01FC01178216828381A6
:1026500081FF44C39E012F5F3F4F3901F7019381F2
:10266000F10193FD859193FF81911F01882309F466
:1026700031C3853239F493FD859193FF81911F0118
:10268000853239F4B70190E00E946F185601650158
:10269000E5CF10E0512C912CFFE1F915D8F08B32E9
:1026A00079F038F4803279F08332A1F4F92DF061B9
:1026B0002EC08D3261F0803369F4292D21602DC048
:1026C000392D3260932E892D8460982E2AC0E92DF1
:1026D000E86015C097FC2DC020ED280F2A3088F443
:1026E00096FE06C03AE0139F200D1124122F19C048
:1026F0008AE0589E200D1124522EE92DE0629E2E74
:1027000010C08E3231F496FCE5C2F92DF0649F2E94
:1027100008C08C3621F4292D2068922E02C08836FC
:1027200041F4F10193FD859193FF81911F01811186
:10273000B3CF9BEB980F933020F4992D9061805E7E
:1027400007C09BE9980F933008F066C1992D9F7ED2
:1027500096FF16E09F73992E853619F49064992E92
:1027600008C0863621F4392F3068932E02C011112B
:10277000115097FE07C01C3350F444244394410E7B
:1027800027E00BC0183038F027E017E005C027E03D
:102790009CE3492E02C0212F412C560184E0A80E53
:1027A000B11CF6016081718182819381042DA301A6
:1027B0000E944D176C01F981FC87F0FF02C0F3FF06
:1027C00006C091FC06C092FE06C000E205C00DE204
:1027D00003C00BE201C000E08C858C7019F0011180
:1027E0005AC29BC297FE10C04C0CFC85F4FF04C07B
:1027F0008A81813309F44A94141474F528E024156D
:1028000078F588E0482E2CC096FC2AC0812F90E0F5
:102810008C159D059CF03CEFC3163FEFD30674F07A
:10282000892D8068982E0AC0E2E0F0E0EC0FFD1FD1
:10283000E10FF11D8081803319F411501111F4CF93
:1028400097FE0EC044244394410E812F90E0C81699
:10285000D9062CF41C1904C04424439401C010E090
:1028600097FE06C01C141D0434F4C601019605C071
:1028700085E090E002C081E090E001110196112313
:1028800031F0212F30E02F5F3F4F820F931F252D16
:1028900030E08217930714F4581A01C0512C892D87
:1028A000897049F4552039F0B70180E290E00E9428
:1028B0006F185A94F7CF002329F0B701802F90E0CA
:1028C0000E946F1893FC09C0552039F0B70180E3CE
:1028D00090E00E946F185A94F7CF97FE4CC04601C3
:1028E000D7FE02C0812C912CC60188199909F301E9
:1028F000E80FF91FFE87ED87960124193109388BFF
:102900002F87012F10E01195019511093FEF8316D4
:10291000930629F4B7018EE290E00E946F18C81464
:10292000D9044CF08F8598898815990524F4ED8594
:10293000FE85818101C080E3F1E08F1A91082D8529
:102940003E852F5F3F4F3E872D87801691062CF0E6
:10295000B70190E00E946F18D9CFC814D90441F490
:102960009A81963320F4953319F43C8534FF81E342
:10297000B70190E04EC08A81813319F09C859F7E1B
:102980009C87B70190E00E946F18111105C094FC5C
:1029900018C085E690E017C0B7018EE290E00E9473
:1029A0006F181E5F82E001E0080FF301E80FF11DD0
:1029B0008081B70190E00E946F18802F0113F3CF40
:1029C000E6CF85E490E0B7010E946F18D7FC06C0FF
:1029D000C114D10441F4EC85E4FF05C0D194C19445
:1029E000D1088DE201C08BE2B70190E00E946F1820
:1029F00080E32AE0C216D1042CF08F5FFAE0CF1AF0
:102A0000D108F7CFB70190E00E946F18B701C60157
:102A1000C0960E946F1854C1833631F0833779F025
:102A2000833509F056C020C0560132E0A30EB11C18
:102A3000F6018081898301E010E0630112C0560134
:102A4000F2E0AF0EB11CF601C080D18096FE03C04B
:102A5000612F70E002C06FEF7FEFC6010E94351852
:102A60008C01F92DFF7714C0560122E0A20EB11C93
:102A7000F601C080D18096FE03C0612F70E002C0D5
:102A80006FEF7FEFC6010E9425188C01F92DF068C9
:102A90009F2EF3FD1AC0852D90E008171907A8F4A2
:102AA000B70180E290E00E946F185A94F4CFF601CB
:102AB00097FC859197FE81916F01B70190E00E948C
:102AC0006F1851105A94015011090115110579F729
:102AD000F7C0843611F0893661F5560197FE09C0BA
:102AE00024E0A20EB11CF601608171818281938184
:102AF0000AC0F2E0AF0EB11CF60160817181072EB1
:102B0000000C880B990BF92DFF769F2E97FF09C0BB
:102B100090958095709561957F4F8F4F9F4FF0688E
:102B20009F2E2AE030E0A3010E94AB18C82EC618E1
:102B30003FC0092D853721F40F7E2AE030E01DC00B
:102B4000097F8F3691F018F4883559F0C3C080376B
:102B500019F0883711F0BEC0006104FF09C004609D
:102B600007C094FE08C0066006C028E030E005C03B
:102B700020E130E002C020E132E0560107FF09C049
:102B800084E0A80EB11CF60160817181828193817D
:102B900008C0F2E0AF0EB11CF6016081718180E0E7
:102BA00090E0A3010E94AB18C82EC6180F77902E94
:102BB00096FE0BC0092D0E7FC11650F494FE0AC07C
:102BC00092FC08C0092D0E7E05C0DC2C092D03C027
:102BD000DC2C01C0D12E04FF0DC0FE01EC0DF11D57
:102BE0008081803311F4097E09C002FF06C0D394AE
:102BF000D39404C0802F867809F0D39403FD11C0CC
:102C000000FF06C01C2DD51480F4150D1D190DC034
:102C1000D51458F4B70180E290E00E946F18D39465
:102C2000F7CFD51410F45D1801C0512C04FF10C06B
:102C3000B70180E390E00E946F1802FF17C001FD0A
:102C400003C088E790E002C088E590E0B7010CC0BF
:102C5000802F867859F001FF02C08BE201C080E22C
:102C600007FD8DE2B70190E00E946F18C11638F49D
:102C7000B70180E390E00E946F181150F7CFCA941B
:102C8000F301EC0DF11D8081B70190E00E946F18F7
:102C9000C110F5CF15C0F4E0F51560F584E0581AC1
:102CA00093FE1FC0011127C02C8523FF2AC004EB0F
:102CB00010E0392D3071932EF8018491811124C0D8
:102CC000552009F4E4CCB70180E290E00E946F182F
:102CD0005A94F6CFF7018681978126C08FEF9FEF38
:102CE00023C0B70180E290E00E946F185A945110FF
:102CF000F8CFD8CF512CB701802F90E00E946F18E9
:102D0000D3CF08EB10E0D5CF91108052B70190E0FF
:102D10000E946F180F5F1F4FCFCF23E0251510F4CF
:102D200083E0BDCF512CC0CF6096E2E10C94B41685
:102D30002F923F924F925F926F927F928F929F92CB
:102D4000AF92BF92CF92DF92EF92FF920F931F93B9
:102D5000CF93DF93CDB7DEB7CA1BDB0B0FB6F8946A
:102D6000DEBF0FBECDBF09942A88398848885F84AA
:102D70006E847D848C849B84AA84B984C884DF801B
:102D8000EE80FD800C811B81AA81B981CE0FD11DFF
:102D90000FB6F894DEBF0FBECDBFED0108958F9240
:102DA0009F92AF92BF92CF92DF92EF92FF92CF931A
:102DB000DF93EC01688179818A819B8161157105BE
:102DC0008105910521F464E279ED8BE597E02DE131
:102DD00033EF41E050E00E94C71B49015A019B01BB
:102DE000AC01A7EAB1E40E94E61B6B017C01ACEEEA
:102DF000B4EFA50194010E94F41BDC01CB018C0D02
:102E00009D1DAE1DBF1DB7FF03C00197A109B048AE
:102E100088839983AA83BB839F77DF91CF91FF90AB
:102E2000EF90DF90CF90BF90AF909F908F900895DC
:102E30000E94CF16089585E091E00E94CF16089574
:102E4000A0E0B0E08093050190930601A0930701F4
:102E5000B09308010895662777270C940919FC019F
:102E600088279927E89421912032E9F3293010F03E
:102E70002E30C8F32B3241F02D3239F4689404C05F
:102E80000E946718820F911D219120532A30C0F3B0
:102E90001EF4909581959F4F0895283008F027E003
:102EA0003327DA01990F311D87FD91600096610586
:102EB000710539F432602E5F3D9330E32A95E1F7D6
:102EC00008959F3F30F080387105610509F03C5F3F
:102ED0003C5F3D93913008F08068911DDF93CF9364
:102EE0001F930F93FF92EF92192F987F9695E92FDA
:102EF00096959695E90FFF27EA5EFE4F99273327AF
:102F0000EE24FF24A701E70105900894079428F414
:102F1000360FE71EF81E491F511D660F771F881FC9
:102F2000991F0694A1F70590079428F4E70EF81E60
:102F3000491F561FC11D770F881F991F661F0694D2
:102F4000A1F70590079428F4F80E491F561FC71FD4
:102F5000D11D880F991F661F771F0694A1F7059052
:102F6000079420F4490F561FC71FD81F990F661FDB
:102F7000771F881F0694A9F784911095177041F068
:102F8000D695C79557954795F794E7941A95C1F745
:102F9000ECEBF0E068941590159135916591959161
:102FA00005907FE27395E118F10A430B560BC90BAC
:102FB000D009C0F7E10CF11E431F561FC91FD01DD9
:102FC0007EF4703311F48A95E6CFE894015030F026
:102FD000080F0AF40027021708F4202F2395022F68
:102FE0007A3328F079E37D932A95E9F710C07D9331
:102FF0002A9589F6069497956795379517951794AE
:10300000E118F10A430B560BC90BD00998F0239530
:103010007E9173957A3308F070E37C932013B8F7B0
:103020007E9170617D9330F0839571E37D9370E3C1
:103030002A95E1F71124EF90FF900F911F91CF9106
:10304000DF91992787FD90950895FC0105906150C7
:1030500070400110D8F7809590958E0F9F1F0895AE
:1030600044E555E00E9440180895FC01615070400D
:1030700001900110D8F7809590958E0F9F1F0895AD
:10308000FA01A191B081009719F41097E1F0CD01F8
:10309000DC01CD010D90002011F4C00113C0FB0133
:1030A0002191222319F02015D9F7F3CFFB012191AB
:1030B000201519F41E92119606C02223C1F70D9017
:1030C0000020A1F7D001FA01A193B08308957AE01E
:1030D000979F902D879F802D910D112408950F9318
:1030E0001F93CF93DF93FB01238121FD03C08FEF5B
:1030F0009FEF2CC022FF16C0468157812481358165
:103100004217530744F4A081B1819D012F5F3F4FC7
:10311000318320838C93268137812F5F3F4F378304
:10312000268314C08B01EC01FB010084F185E02DA6
:103130000995892BE1F6D80116968D919C911797E8
:10314000019617969C938E931697CE01DF91CF919F
:103150001F910F910895FA01AA27283051F12031CB
:1031600081F1E8946F936E7F6E5F7F4F8F4F9F4F1B
:10317000AF4FB1E03ED0B4E03CD0670F781F891F5D
:103180009A1FA11D680F791F8A1F911DA11D6A0F2B
:10319000711D811D911DA11D20D009F468943F91DE
:1031A0002AE0269F11243019305D3193DEF6CF01DD
:1031B0000895462F4770405D4193B3E00FD0C9F7A3
:1031C000F6CF462F4F70405D4A3318F0495D31FD10
:1031D0004052419302D0A9F7EACFB4E0A695979563
:1031E000879577956795BA95C9F700976105710539
:1031F00008959B01AC010A2E069457954795379583
:103200002795BA95C9F7620F731F841F951FA01DDC
:103210000895A0E0B0E0EFE0F9E10C949E16EC0117
:103220006B016115710519F0FB01918380837E01AB
:10323000FFEFEF1AFF0A0881802F90E00E94571AD3
:10324000892B11F0E701F3CF0D3239F47E0182E0D2
:10325000E80EF11C098111E008C00B3229F47E014F
:1032600092E0E90EF11C098110E0E701219743E0AB
:1032700050E06EEB71E0CE010E94601A892BC1F420
:10328000239645E050E069EB71E0CE010E94601AA0
:10329000892B09F42596C114D10419F0F601D183C4
:1032A000C0831111F6C060E070E080E89FE7FAC0CB
:1032B00043E050E066EB71E0CE010E94601A892B7A
:1032C00059F4C114D10409F4E9C0F2E0EF0EF11C85
:1032D000F601F182E082E2C020E030E0A901C0E026
:1032E000D0E0F70180EDA82EA00E89E08A1530F11C
:1032F000912F9260B92E812F887012FF04C0811126
:1033000024C0219622C081112197A5E0B0E00E943F
:10331000E61BDC01CB01880F991FAA1FBB1F9C0174
:10332000AD012A0D311D411D511D283989E938078C
:10333000480789E1580748F0166006C09EEFA912B9
:103340000AC013FD40C01860B12E8FEFE81AF80ACA
:1033500000811B2DC6CF802F8F7D8534A1F5808104
:103360008D3211F4106106C08B3221F0319661E08C
:1033700070E004C08181329662E070E080538A3050
:1033800018F0E61BF70B1FC060E070E060389CE0AF
:1033900079075CF4DB01AA0FBB1FAA0FBB1F6A0FE2
:1033A0007B1F660F771F680F711D3196DF01119724
:1033B0008C9180538A3050F314FF03C0719561954E
:1033C0007109C60FD71F11FF08C0C114D10429F01D
:1033D000CF010197F60191838083CA01B9010E9450
:1033E0007D1A212F2370233019F04B015C0106C098
:1033F0004B015C01B7FAB094B7F8B09420E030E02C
:10340000A901C501B4010E94781A882309F43EC0BD
:10341000D7FF06C0D195C195D10905ED11E002C0D5
:103420000DEE11E06801F8E1CF1AD10890E2E92E23
:10343000F12CCE15DF0574F0F801259135914591F9
:103440005491C501B4010E94DE1A4B015C01CE19F2
:10345000DF09EFCF04501109F594E7940C151D0511
:1034600041F78A2D880F8B2D881F8F3F49F020E070
:1034700030E0A901C501B4010E94781A811106C08B
:1034800082E290E09093570580935605C501B40100
:1034900009C060E070E080E89FEF04C060E070E089
:1034A00080EC9FE7CDB7DEB7ECE00C94BA16911133
:1034B0000C944B1B803219F089508550C8F7089541
:1034C000FB01DC014150504088F08D9181341CF0AB
:1034D0008B350CF4805E659161341CF06B350CF417
:1034E000605E861B611171F3990B0895881BFCCFF8
:1034F0000E94BA1A08F481E00895E89409C097FB85
:103500003EF490958095709561957F4F8F4F9F4FBA
:103510009923A9F0F92F96E9BB279395F6958795FE
:1035200077956795B795F111F8CFFAF4BB0F11F4C1
:1035300060FF1BC06F5F7F4F8F4F9F4F16C0882368
:1035400011F096E911C0772321F09EE8872F762F9E
:1035500005C0662371F096E8862F70E060E02AF0DF
:103560009A95660F771F881FDAF7880F96958795CB
:1035700097F90895990F0008550FAA0BE0E8FEEFA0
:1035800016161706E807F907C0F012161306E40727
:10359000F50798F0621B730B840B950B39F40A2620
:1035A00061F0232B242B252B21F408950A2609F4FE
:1035B000A140A6958FEF811D811D08950E94F11AEB
:1035C0000C94651B0E94571B38F00E945E1B20F074
:1035D000952311F00C944E1B0C94541B11240C9445
:1035E000991B0E94761B70F3959FC1F3950F50E0D5
:1035F000551F629FF001729FBB27F00DB11D639FA5
:10360000AA27F00DB11DAA1F649F6627B00DA11D4A
:10361000661F829F2227B00DA11D621F739FB00DF0
:10362000A11D621F839FA00D611D221F749F332760
:10363000A00D611D231F849F600D211D822F762FF9
:103640006A2F11249F5750409AF0F1F088234AF0D6
:10365000EE0FFF1FBB1F661F771F881F9150504042
:10366000A9F79E3F510580F00C944E1B0C94991BBA
:103670005F3FE4F3983ED4F3869577956795B795C9
:10368000F795E7959F5FC1F7FE2B880F911D9695E3
:10369000879597F9089599278827089597F99F673F
:1036A00080E870E060E008959FEF80EC08950024CA
:1036B0000A941616170618060906089500240A9497
:1036C00012161306140605060895092E0394000C1D
:1036D00011F4882352F0BB0F40F4BF2B11F460FFAC
:1036E00004C06F5F7F4F8F4F9F4F089557FD9058D5
:1036F000440F551F59F05F3F71F04795880F97FBB6
:10370000991F61F09F3F79F087950895121613066F
:103710001406551FF2CF4695F1DF08C0161617069E
:103720001806991FF1CF86957105610508940895D3
:10373000E894BB2766277727CB0197F90895F99975
:10374000FECF92BD81BDF89A992780B50895262FA6
:10375000F999FECF92BD81BDF89A019700B4021687
:1037600039F01FBA20BD0FB6F894FA9AF99A0FBE35
:103770000895262FF999FECF1FBA92BD81BD20BDB5
:103780000FB6F894FA9AF99A0FBE01960895052E8D
:1037900097FB1EF400940E94DE1B57FD07D00E9489
:1037A000F91B07FC03D04EF40C94DE1B509540959A
:1037B000309521953F4F4F4F5F4F089590958095DD
:1037C000709561957F4F8F4F9F4F08950E941B1CEE
:1037D000A59F900DB49F900DA49F800D911D112465
:1037E0000895B7FF0C94E61B0E94E61B821B930B07
:1037F0000895A1E21A2EAA1BBB1BFD010DC0AA1F32
:10380000BB1FEE1FFF1FA217B307E407F50720F049
:10381000A21BB30BE40BF50B661F771F881F991FC4
:103820001A9469F760957095809590959B01AC010D
:10383000BD01CF010895A29FB001B39FC001A39F16
:10384000700D811D1124911DB29F700D811D1124D9
:10385000911D08955058BB27AA270E94421C0C9422
:10386000651B0E94571B38F00E945E1B20F039F444
:103870009F3F19F426F40C94541B0EF4E095E7FBDB
:103880000C944E1BE92F0E94761B58F3BA1762075F
:1038900073078407950720F079F4A6F50C94981B1C
:1038A0000EF4E0950B2EBA2FA02D0B01B90190015B
:1038B0000C01CA01A0011124FF27591B99F0593F9F
:1038C00050F4503E68F11A16F040A22F232F342FE7
:1038D0004427585FF3CF469537952795A795F04035
:1038E0005395C9F77EF41F16BA0B620B730B840B4A
:1038F000BAF09150A1F0FF0FBB1F661F771F881F02
:10390000C2F70EC0BA0F621F731F841F48F4879559
:1039100077956795B795F7959E3F08F0B0CF93954B
:10392000880F08F09927EE0F9795879508950E94C4
:10393000AB1C0C94651B0E945E1B58F00E94571B29
:1039400040F029F45F3F29F00C944E1B51110C9468
:10395000991B0C94541B0E94761B68F39923B1F3B6
:10396000552391F3951B550BBB27AA2762177307A5
:10397000840738F09F5F5F4F220F331F441FAA1F39
:10398000A9F335D00E2E3AF0E0E832D091505040F5
:10399000E695001CCAF72BD0FE2F29D0660F771FA3
:1039A000881FBB1F261737074807AB07B0E809F089
:1039B000BB0B802DBF01FF2793585F4F3AF09E3F0E
:1039C000510578F00C944E1B0C94991B5F3FE4F367
:1039D000983ED4F3869577956795B795F7959F5F51
:1039E000C9F7880F911D9695879597F90895E1E09D
:1039F000660F771F881FBB1F621773078407BA07FC
:103A000020F0621B730B840BBA0BEE1F88F7E09556
:103A10000895BEE304D008F490E80895BFE3222798
:103A20003327A9010E947E1B60F19F5748F1B91707
:103A300040F1BFE3B91B9927B8503AF4660F771FDE
:103A4000881F991FB395D2F316C0B8504AF0232FA0
:103A5000342F452F562F672F782F8827B850BAF765
:103A6000B85F49F08695779567955795479537954F
:103A70002795BA95B9F716F40E94B21D8894089557
:103A8000889460E070E0CB0108950E947E1B88F06E
:103A90009F5798F0B92F9927B751B0F0E1F0660F12
:103AA000771F881F991F1AF0BA95C9F714C0B13053
:103AB00091F00E94981BB1E008950C94981B672F19
:103AC000782F8827B85F39F0B93FCCF38695779582
:103AD0006795B395D9F73EF490958095709561956B
:103AE0007F4F8F4F9F4F0895E894F92F96EBFF2358
:103AF00081F0121613061406440B9395F6958795DC
:103B00007795679557954040FF23B9F71BC09927D4
:103B10000895882351F49850D2F7872B762F652F7C
:103B2000542F432F322F20E0B1F312161306140640
:103B3000440B88233AF09A95440F551F661F771F50
:103B4000881FCAF755234AF4440F551F11F460FF2C
:103B500004C06F5F7F4F8F4F9F4F880F969587955B
:103B600097F908959095809570956095509540953A
:103B7000309521953F4F4F4F5F4F6F4F7F4F8F4F86
:103B80009F4F08950E947E1BE8F09E37E8F096391B
:103B9000B8F49E3848F4672F782F8827985FF9CFBC
:103BA00086957795679593959539D0F3B62FB17033
:103BB0006B0F711D811D20F48795779567959395FF
:103BC0000C94E61D0C94011E0C94991B882371F42F
:103BD000772321F09850872B762F07C0662311F4A6
:103BE00099270DC09051862B70E060E02AF09A95DD
:103BF000660F771F881FDAF7880F9695879597F9D4
:103C000008959F3F31F0915020F4879577956795FF
:103C1000B795880F911D9695879597F908952A0D68
:103C20003B1D4C1D5D1D6E1D7F1D801F911F089546
:103C3000AEE0B0E0EEE1FEE10C94A6168C01FA01D4
:103C400086E08C831A83098377FF02C060E070E806
:103C5000CB0101979E838D83A901BF01CE010196FF
:103C60000E941B134D815E8157FD0AC02F8138854C
:103C7000421753070CF49A01F801E20FF31F108268
:0C3C80002E96E4E00C94C216F894FFCFDE
:103C8C00FFFF01050F01000000391C526974380157
:103C9C00060000003F0000803F000000400000A034
:103CAC004000000000CDCC4C3ECDCC4C3D0AD7A3FF
:103CBC003C53687574646F776E2E2E0A004F4B213F
:103CCC00004552524F52210066756C6C006368615E
:103CDC007267696E6700322E3100322E30004F53FE
:103CEC004952495320485720762573204657207651
:103CFC0025730A00496E69742E2E0A004F534952DF
:103D0C004953004857207625732046572076257353
:103D1C0000554152542063616C2E2E0041444320C7
:103D2C004641554C54202121005265616479210A89
:103D3C0000456E74657220273F2720666F722068DD
:103D4C00656C702E0A004545505B30782530325832
:103D5C005D3D3078253032580A00567379733D2515
:103D6C00752C20566261743D25752C2025730A0034
:103D7C0025530A00253032753A253032753A2530F4
:103D8C00327520004856204641554C5420212121A3
:103D9C002025750A004445544543544F5220464152
:103DAC00554C54202121210A004465746563746FBD
:103DBC0072207265636F76657265642E2E0A0054EC
:103DCC00696D652020202020526174652020202000
:103DDC00202020546F74616C0A00252E33667553B5
:103DEC00762F6820252E34667553760A00446F733F
:103DFC0065205261746520416C6572742120252EFA
:103E0C0033667553762F680A004241545445525913
:103E1C0020454D5054592100566261743D25750062
:103E2C004B45593A2025640A0052544320464155CB
:103E3C004C54202121004856204641554C542021F9
:103E4C0021004F4B0A00554E4B4E4F574E202D2004
:103E5C00273F27202D3E2068656C700A0045525282
:103E6C004F520A0044454E4945440A00252E3366FC
:103E7C000A00253032753A253032753A25303275C4
:103E8C000A004F4B004552524F520055415254209C
:103E9C0063616C6962726174696F6E2E2E200025ED
:103EAC0073210A665F72633A20256C752C2055428B
:103EBC0052523A2025750A00446F73652052617482
:103ECC00653A00252E33667553762F6800252E3201
:103EDC00667553762F6800252E31667553762F68DC
:103EEC0000252E32666D53762F6800546F74616C0A
:103EFC0020446F73653A00252E3366755376002582
:103F0C002E326675537600252E3166755376002554
:103F1C002E32666D53760054696D653A0025303249
:103F2C00753A253032753A2530327500566F6C74FF
:103F3C00616765733A0056733D252E3266205662D2
:103F4C003D252E326600416C61726D204C766C3AC8
:103F5C00004F666600524144204641554C54202186
:043F6C00212100000F
:00000001FF
