:100000000C947A010C94A9080C94DF080C949701C5
:100010000C94F1080C944F080C9497010C94190857
:100020000C94AC090C9403090C9497010C9497015F
:100030000C9497010C9497010C9497010C949701E0
:100040000C9497010C9497010C948A090C945D0907
:100050000C9497010C9497010C9497010C949701C0
:100060000C9497010C9497010C9497010C949701B0
:100070000C9497010C9497010C9497010C949701A0
:100080000C9497010C9497010C9497010C94970190
:100090000C9497010C9497010C9497010C94970180
:1000A0000C9497010C9497010C9497010C94970170
:1000B0000C9497016E616E00696E66000A1F111143
:1000C0001111111F0A1F111111111F1F0A1F1111E8
:1000D000111F1F1F0A1F11111F1F1F1F0A1F111F92
:1000E0001F1F1F1F0A1F1F1F1F1F1F1F0204081F84
:1000F0000204082007040704041F111F636D642015
:10010000666F726D61743A2078202D3E20676574A9
:10011000207800007831202D3E2073657420783DD2
:10012000312E20636D64733A0000000061202D20A1
:10013000616C61726D206C6576656C00000000007A
:100140000000000062202D206265657020656D69E9
:1001500074000000000000000000000063202D205B
:10016000636C69636B65722073657474696E670094
:100170000000000064202D20646F736520746F748C
:10018000616C0000000000000000000065202D20D0
:10019000454550524F4D20722F7720402058000087
:1001A0000000000066202D2066696C746572206670
:1001B0006163746F720000000000000068202D2051
:1001C0006869676820766F6C74616765000000007D
:1001D000000000006B202D206B657920646562753E
:1001E0006767696E67000000000000006C202D202A
:1001F0006C6F6767696E6720696E74657276616C93
:10020000000000006D202D206D6F6465207669650B
:100210007700000000000000000000006E202D208C
:100220006E756D6265722072616E646F6D000000A4
:100230000000000072202D207261746520646F73CD
:1002400065000000000000000000000073202D2069
:1002500073687574646F776E000000000000000022
:100260000000000074202D2074696D6500000000FE
:1002700000000000000000000000000075202D209C
:10028000554152542063616C6962726174696F6E8A
:100290000000000076202D20766F6C746167652069
:1002A0006D656173757265000000000078202D2077
:1002B000454550524F4D2061646472657373000070
:1002C000000000007A202D20726573657420737918
:1002D0007374656D00000000000000000E7243475B
:1002E000161A1E4024286C10744B2105696D115597
:1002F00002660A0011241FBECFEFD8E0DEBFCDBFDB
:1003000013E0A0E0B1E0EAEBFBE302C005900D9240
:10031000A03FB107D9F725E0A0EFB3E001C01D92DF
:10032000A036B207E1F70E94D7090C940C1D0C947B
:10033000380980917A00806480937A0080917A00F5
:1003400086FDFCCF80917800909179000895CF923E
:10035000DF92EF92FF92CF9390917C00907F9093E9
:100360007C0090917C00982B90937C0090917A0077
:10037000906890937A0090910401891721F08093FE
:1003800004010E949901C0E1E12CF12C67010E9457
:100390009901C80ED91EE11CF11CC150C1F7809112
:1003A0007A008F7780937A00C601D70124E0B69552
:1003B000A795979587952A95D1F7CF91FF90EF90C4
:1003C000DF90CF9008958EE00E94A7019C0140E04D
:1003D00050E064EB7BE281E190E00E94EA1CC901FD
:1003E000089587E00E94A7019C01A8E8B3E10E945C
:1003F000DB1C2FEF33E040E050E00E94EA1CC90113
:100400000895FC0181E090E09C0101C0220F6A95F3
:10041000EAF7622F8081411519F0822B80830895BD
:100420006095682360830895462FE82FF0E0E4523A
:10043000FD4F6491962F9370669566956770913025
:1004400020F484E290E00C94010219F487E290E039
:10045000FACF923019F48AE290E0F5CF8DE290E085
:10046000F2CF462FE82FF0E0E452FD4F6491962F33
:100470009370669566956770913020F485E290E000
:100480000C94010219F488E290E0FACF923019F44A
:100490008BE290E0F5CF8EE290E0F2CFF894A89551
:1004A00088E198E00FB6F894A895809360000FBE9D
:1004B00090936000FFCFF89483B7817F866083BFFD
:1004C00083B7816083BF7894889583B78E7F83BF1D
:1004D00008952091390530913A0540913B0550919E
:1004E0003C0560913D0570913E0580913F059091DE
:1004F00040050E94961320E030E949E456E40E944A
:10050000B9120895CF93DF9300D0CDB7DEB76091D5
:1005100045057091460580914705909148052091C9
:100520004105309142054091430550914405620FC9
:10053000731F841F951F20E13EE040E050E00E94C1
:10054000B11C29833A832CE330E040E050E00E9464
:10055000B11C722F89819A810F900F90DF91CF91FA
:10056000089590911C05981719F180931C05811529
:10057000C1F01092F1041092F00410921A0510923A
:1005800019058091C00080648093C0008091C000F4
:100590008F7E8093C0008091C10088698093C100E4
:1005A00008958091C100877C8093C1001092F2046D
:1005B00008958091F204811551F09091C10095FD4C
:1005C00007C09091C00096FF03C01092F20480E033
:1005D00008950F931F93CF93DF93CDB7DEB7C05429
:1005E000D1090FB6F894DEBF0FBECDBF80911C05B8
:1005F000811541F181E08093F2048E010F5F1F4F5E
:1006000080E4F80111928A95E9F79E01275B3F4F3C
:1006100029964EAD5FAD299760E470E0C8010E9455
:10062000481C80E0F801E80FF11D9081911116C07F
:100630008091C00080648093C0008091C10080627E
:100640008093C100C05CDF4F0FB6F894DEBF0FBED1
:10065000CDBFDF91CF911F910F9108958F5FE091F2
:10066000F00421E02E0F2093F004F0E0E051FC4F65
:1006700090839091F0049093F004D4CFFC011092F9
:10068000F6041092F50490916C00906190936C00C8
:1006900082E08BBB909168009260909368002FEF8E
:1006A00080E792E0215080409040E1F700C00000D8
:1006B000909168009D7F90936800309731F0809111
:1006C000F5049091F604808391838091F5049091D4
:1006D000F6040B9740F02091F5043091F60481E088
:1006E000243F314008F080E00895CF93DF9300D09D
:1006F000CDB7DEB78A83698380528430D8F40E94F4
:10070000D9028111FCCF2A81822F90E09093C500FD
:100710008093C4008981811539F0F999FECF6A81EF
:1007200080E090E00E94831C81E00F900F90DF91A9
:10073000CF91089580E0F9CFCF93DF9300D000D020
:1007400000D0CDB7DEB78D838AE391E09F938F937E
:100750000E94E902809170008E7F8093700030913A
:1007600081001092810010928500109284000F90F9
:100770000F90B89BFECF81E087BB809181008460A1
:1007800080938100B89BFECF21E027BB8091810040
:100790008B7F8093810080917000816080937000D6
:1007A000809184009091850019828A839B831C82AA
:1007B000309381008091450590914605A0914705B1
:1007C000B09148050296A11DB11D809345059093F7
:1007D0004605A0934705B093480520931E056981FF
:1007E0007A818B819C810E944F1B20E030E041E6A2
:1007F00058E40E94B91220E030E040E85FE30E9434
:100800004C120E94D6110E9467136E836D818E81F7
:100810000E9475038D83811519F181E391E01F9288
:100820005E815F936C816F937B817F932A812F938D
:100830001F929F938F938EE491E09F938F930E94DA
:10084000E9020FB6F894DEBF0FBECDBF8D810F90C9
:100850000F900F900F900F900F90DF91CF91089510
:1008600084E391E0DCCF87E691E09F938F930E9431
:10087000E9020F900F900E94D9028111FCCF0E94D3
:10088000400583E791E09F938F9381E08F930E94CF
:10089000530584E690E00E9493052FEF89E698E1E6
:1008A000215080409040E1F700C000000E944005C8
:1008B0008091F8048B7F8093F8040E94260560E005
:1008C00089E00E94EA0460E08EE00E94EA0460E0B1
:1008D00081E00E94EA040E946902AB01BC010F9012
:1008E0000F900F90F999FECF81E090E00E94951C47
:1008F000A8950FB6F894A8958091600088618093C0
:100900006000109260000FBE8091F704811102C058
:10091000F894FFCF80E00E94B102E89860E088E0A0
:100920000E94EA04E998809168008D7F80936800B6
:10093000809170008E7F80937000809170008B7F1B
:1009400080937000809170008D7F80937000809103
:10095000B6008F7D8093B600809170008D7F80936C
:10096000700080916D008F7980936D0086E00E9409
:10097000B8058115D9F32FEF80E792E02150804030
:100980009040E1F700C000000E945B020E944E020E
:1009900081111FC086E00E94B805811102C00E942B
:1009A00033042FE788E391E0215080409040E1F745
:1009B00000C0000060E089E00E94EA042FEF81EEB1
:1009C00094E0215080409040E1F700C00000A895DD
:1009D000E1CF0895CF93DF9300D0CDB7DEB7898301
:1009E0006A83E82FF0E0E452FD4F849185FB88276D
:1009F00080F90E94C8046A8189810F900F90DF916D
:100A0000CF910C943102CF93DF93C82F60E081E146
:100A10000E94EA04D8E0C7FB662760F98AE00E94DA
:100A2000EA0460E08CE00E94EA04CC0F61E08CE014
:100A30000E94EA04D15079F761E081E10E94EA0462
:100A400080E58A95F1F7DF91CF910895CF93DF93F9
:100A50000F92CDB7DEB7898360E080E10E94EA049F
:100A600089810E9403058981843030F48FE698E003
:100A70000197F1F700C000000F90DF91CF9108952A
:100A800081E00C942605CF93DF930F92CDB7DEB7AC
:100A9000898361E080E10E94EA0489810F90DF91FF
:100AA000CF910C9403050F931F93CF93DF93CDB792
:100AB000DEB761970FB6F894DEBF0FBECDBF988D3D
:100AC000911559F081E0923009F080E08295880F0D
:100AD000880F807C80580E9426058E010F5F1F4F73
:100AE00081E1F80111928A95E9F79E01255E3F4F59
:100AF000498D5A8D61E170E0C8010E94481CF801DF
:100B0000808181110BC061960FB6F894DEBF0FBED5
:100B1000CDBFDF91CF911F910F9108950F5F1F4FB0
:100B20000E944305ECCFCF93DF93EC0161E089E0B5
:100B30000E94EA04BE0180E090E00E944F1B20E08A
:100B400030E04AE750E40E94B9120E94D611C091E9
:100B5000B2000E9467136C0F6093B40084E087BBFF
:100B6000E0E7F0E0808184608083DF91CF91089599
:100B7000CF93E82FF0E0E452FD4FC4918827C5FFE2
:100B800083950E94C8048C2F83702C2F2695269560
:100B90002770813050F483B190E002C0959587951D
:100BA0002A95E2F78170CF91089511F486B1F4CFC0
:100BB000823011F489B1F0CF8CB1EECFCF9386E0C3
:100BC0000E94B805C82F85E00E94B805C195C47081
:100BD000880FC82B84E00E94B8058C2B97E08927EA
:100BE000CF91089581E00E94C80485B194E08927DF
:100BF00085B90895FF920F931F93CF93DF9300D091
:100C000000D000D0CDB7DEB7F090300500913105AF
:100C100010913205209133052E830E948202698350
:100C20007A838B839C83809154058D83809101010D
:100C3000982F990F990B2D812817190639F00E94CA
:100C40004005809154058D83809301019D819330EF
:100C500009F492C100F5913009F49DC0923031F54C
:100C60008EED91E09F938F9381E08F930E945305C7
:100C70001F9299819F931F922A812F938C818F932A
:100C80009B819F9384EE91E09F938F932D812F936F
:100C90000E945305A6C02D81243009F42DC12630B1
:100CA00009F49AC180E00E94C804A0C08FE791E0D7
:100CB0009F938F9381E08F930E9453050F900F9025
:100CC0000F9020E030E040E251E46F2D702F812F33
:100CD0009E810E944A1B87FF25C08E818F931F93A0
:100CE0000F93FF928AE891E09F938F9382E08F9316
:100CF0000E9453050FB6F894DEBF0FBECDBF8AEC3D
:100D00000E94260580915605811509F46FC085E281
:100D100092E09F938F931F920E9453050F900F9024
:100D20000F9064C020E030E048EC52E46F2D702F4B
:100D3000812F9E810E944A1B87FF08C09E819F933E
:100D40001F930F93FF9284E991E0CECF20E030E033
:100D50004AE754E46F2D702F812F9E810E944A1B19
:100D600087FF08C09E819F931F930F93FF928EE988
:100D700091E0BACF20E030E04AE754E46F2D702FC5
:100D8000812F9E810E94B9129F938F937F936F93BF
:100D900088EA91E0A9CF82EB91E09F938F939D81A8
:100DA0009F930E9453050E9469028B018A83998355
:100DB0000F900F900F9020E030E040E251E40E944D
:100DC0004A1B87FF61C029812F938A818F931F93CC
:100DD0000F938EEB91E09F938F9382E08F930E940D
:100DE00053050FB6F894DEBF0FBECDBF8091350519
:100DF000811509F4F7C08091000191E08927809363
:100E000000018111F2C090E299838FE80E942605CB
:100E100089810E94430586E10E94B805811531F061
:100E20008EE80E94260586E00E94430580914905D0
:100E3000811531F08DE80E94260583E60E94430566
:100E400080915705811531F08CE80E94260587E0D6
:100E50000E944305809154058111E6C0809153059D
:100E6000813008F0C6C08FEC0E94260586E40F9002
:100E70000F900F900F900F900F90DF91CF911F91D7
:100E80000F91FF900C94430520E030E048EC52E4D1
:100E9000B8018A8199810E944A1B87FF09C0998104
:100EA0009F932A812F931F930F9386EC91E093CF0A
:100EB00020E030E04AE754E4B8018A8199810E9439
:100EC0004A1B87FF09C099819F932A812F931F9303
:100ED0000F938EEC91E07FCF20E030E04AE754E4BE
:100EE000B8018A8199810E94B9129F938F937F9351
:100EF0006F9386ED91E06FCF0E94E301BC0180E02B
:100F000090E00E944F1B20E030E04AE754E40E944A
:100F1000B9126C837D83182F092F0E94F101BC0147
:100F200080E090E00E944F1B20E030E04AE754E46C
:100F30000E94B912F62E79838A839B8383EF91E016
:100F40009F938F9381E08F930E9453059B819F9382
:100F50002A812F9389818F93FF920F931F939D81F5
:100F60009F932C812F938DEF91E09F938F9382E03D
:100F70008F930E94530535CF8DE092E09F938F931E
:100F800081E08F930E94530590914A0599832091A7
:100F90004B052A8310914C0500914D050F900F9041
:100FA0000F9040E050E09A01692F7A81812F902FB5
:100FB0000E944A1B811549F00F931F938A818F93DA
:100FC00099819F938EE991E006CF88E192E09F930B
:100FD0008F9382E08F93A0CE8CE192E09F938F93CA
:100FE00081E0F8CF81E080930001209137052983CB
:100FF0000CCF29F48FEC0E9426058DE438CF823087
:1010000029F48FEC0E94260583E531CF80E00F9014
:101010000F900F900F900F900F90DF91CF911F9135
:101020000F91FF900C94C8048FEC0E94260580E27B
:101030001ECF1F920F920FB60F9211242F933F9342
:101040004F935F936F937F938F939F93AF93BF93D0
:10105000EF93FF930E94DE0520915B0590915A0566
:101060008223880F880F880F892B80935A05E0E729
:10107000F0E080818D7F808310925B05FF91EF917E
:10108000BF91AF919F918F917F916F915F914F91A0
:101090003F912F910F900FBE0F901F9018951F92A8
:1010A0000F920FB60F9211242F933F934F935F939C
:1010B0006F937F938F939F93AF93BF93EF93FF9320
:1010C0000E94DE0590915905282F292730915B0554
:1010D000932392238093590530915B05311116C0FB
:1010E000822382FD32C081FD32C0811579F081E01A
:1010F00080935B058091B20081508093B30082E0C1
:1011000087BB80917000826080937000911561F0C0
:10111000809170008D7F8093700010925B058091AC
:101120005A05982B90935A05FF91EF91BF91AF917B
:101130009F918F917F916F915F914F913F912F91EF
:101140000F900FBE0F901F90189584E0D1CF82E0D2
:10115000CFCF1F920F920FB60F9211242F933F9370
:101160004F935F936F937F938F939F93AF93BF93AF
:10117000CF93EF93FF9386E10E94B805C82F80912B
:10118000F70490E0C817190641F08C2F0E94B102B5
:10119000C093F70481E080935805FF91EF91CF91C0
:1011A000BF91AF919F918F917F916F915F914F917F
:1011B0003F912F910F900FBE0F901F9018958F9316
:1011C0008FB78F939F938091F3049091F4040196CD
:1011D0009093F4048093F3049F918F918FBF8F912C
:1011E00018958F938FB78F939F938091F50490916B
:1011F000F60401969093F6048093F5049F918F91E5
:101200008FBF8F9118951F921FB61F9211242F9395
:101210003F938F939F93AF93BF9380914505909198
:101220004605A0914705B09148050196A11DB11D45
:101230008093450590934605A0934705B0934805D4
:1012400081E080931E058FB7F8942091F3043091CC
:10125000F40420932B0530932C058FBFBF91AF91E1
:101260009F918F913F912F911F901FBE1F901895B6
:101270001F920F920FB60F9211242F933F934F930B
:101280005F936F937F938F939F93AF93BF93EF93EE
:10129000FF9380E00E94C804FF91EF91BF91AF914E
:1012A0009F918F917F916F915F914F913F912F917E
:1012B0000F900FBE0F901F9018958F938FB78F933D
:1012C0009F93EF93FF938091C00080648093C00050
:1012D000E091F10481E08E0F8093F104F0E0E051A1
:1012E000FC4F80818093C6008091F1048093F104CB
:1012F0009091F1048091F004981305C08091C10091
:101300008F7D8093C100FF91EF919F918F918FBF4F
:101310008F9118958F938FB78F93EF93FF93809151
:10132000C0008295817080931B05E091190581E0D2
:101330008E0F80931905F0E08091C600E750FB4FB7
:101340008083809119058F7180931905FF91EF912A
:101350008F918FBF8F9118951F920F920FB60F929A
:1013600011242F933F934F935F936F937F938F93AA
:101370009F93AF93BF93EF93FF93E0E7F0E08081FB
:101380008B7F808360E089E00E94EA04FF91EF9107
:10139000BF91AF919F918F917F916F915F914F918D
:1013A0003F912F910F900FBE0F901F901895CDB7C2
:1013B000DEB7AB970FB6F894DEBF0FBECDBF14BE3D
:1013C000A89588E199E20FB6F894A89580936000FB
:1013D0000FBE9093600000E010E0F801E452FD4F72
:1013E000F490F5FAEE24E0F86E2D802F0E9414029E
:1013F000F6FAFF24F0F8E11051C181E00E94C80420
:101400006F2D802F0E9431020F5F1F4F0731110592
:1014100021F761E089E00E94EA042FEF30E742E023
:10142000215030404040E1F700C0000060E089E01A
:101430000E94EA0486E10E94B8058093F704909127
:10144000F70481E0911101C080E00E94B102809117
:10145000690081608093690081E08CBBE89A789490
:101460008091C00082608093C0008091C30080663C
:101470008093C300F999FECF80E090E00E94751C34
:1014800060E00E947503D82E811106C082E290E0D0
:101490009093C5008093C40083E492E09F938F9360
:1014A00087E492E09F938F938BE492E09F938F93D6
:1014B0000E94E90281E692E09F938F930E94E902E5
:1014C00085E00E94B805C82E8CE08093F80461E0A6
:1014D00081E10E94140261E081E10E94EA0461E07E
:1014E0008AE00E94140261E08CE00E94140261E034
:1014F0008CE00E94EA0460E080E10E94EA040FB6FA
:10150000F894DEBF0FBECDBF09E011E0F8010F5F18
:101510001F4F80810E94260591E001311907B1F724
:101520002CEBA22E20E0B22E10E4812F0E94260583
:10153000E12CF12CF501EE0DFF1D84918BA38BA105
:101540000E944305EFEFEE1AFE0AF8E0EF16F104F1
:1015500089F7185F28E0A20EB11C103831F70E94FD
:1015600040058091F8048E7F8093F8040E94260540
:1015700089E30E94260582E50E94260583E70E94F2
:10158000260588E30E9426058091F80484608093F4
:10159000F8040E94260589E692E09F938F9311E05C
:1015A0001F930E94530583E492E09F938F9387E4F7
:1015B00092E09F938F9380E792E09F938F9382E0D6
:1015C0008F930E9453058091B60080628093B6008D
:1015D0001092B20017BB85E08093B1000FB6F8946B
:1015E000DEBF0FBECDBF8EE19FEFE0E7F2E091508E
:1015F000E040F040E1F700C00000B89B54C081E03B
:1016000087BB10921E0580917000816080937000EE
:10161000C11411F0D11027C00E9440058BE892E060
:101620009F938F9381E08F930E94530581E00E94E6
:101630009C030F900F900F90811509F478C08AE2F7
:1016400092E09F938F9382E08F930E9453052FEF38
:1016500039E648E1215030404040E1F700C0000049
:101660000F900F900F9080917A00836080937A00A2
:1016700080917C00806480937C000E94E301885804
:1016800093411AF4919581959109883C91050CF448
:1016900051C00E94400506E912E00CC06F2D802F5A
:1016A0000E94EA04B1CE815009F09ECF0E9440050D
:1016B0000EE712E01F930F9381E08F930E94530572
:1016C0001F930F930E94E9020F900F900F900F90BD
:1016D0000F9010E0812F0E94C8041E018FEF281A7E
:1016E000380AE0901C05E11409F41DC1F10120E263
:1016F00011922A95E9F780911B05811509F4ACC078
:101700008091C1008F7E8093C10010921B051092C2
:101710001A05109219058091C10080618093C10063
:1017200080918400909185000E940918FCC08EE28F
:1017300092E087CF8DEC9CECACE4BEE380934F0548
:1017400090935005A0935105B093520510922E0529
:1017500010922F05F999FECF81E090E00E947D1C48
:1017600020E030E040E752E40E94B01B20E030E08F
:1017700047E553E40E94B01B0E94301320933905C3
:1017800030933A0540933B0550933C0560933D05EB
:1017900070933E0580933F059093400561E088E09B
:1017A0000E94EA0480E090E00E943E03182F811519
:1017B00009F444C08091690088608093690082E0E8
:1017C0008CBBE99A1092380580916D00806E8093F1
:1017D0006D0084E08BBB809168008460809368001A
:1017E000BFE310924A0510924B0510924C05B0933E
:1017F0004D05109249051092540580918100816039
:101800008093810083EA92E09F938F930E94E90284
:101810008BEA92E09F938F930E94E902A89588E15A
:101820009FE00FB6F894A895809360000FBE909348
:1018300060000F900F900F900F904CCF0E944005CA
:1018400080EC92E09F938F9381E08F930E945305E9
:101850000F900F900F903DCFE0911A05A0E080917E
:101860001905E81709F45CCF91E09E0FF0E081E0E4
:101870008A0FE750FB4F2081A20DB32DB11D2C9391
:10188000E92FEF71AE2FB0E0A750BB4F9C919A307B
:10189000C1F5F101E80FF11D10821C92809119052C
:1018A00080931A05F980F10101900020E9F7319742
:1018B0008F0102193F922F9288E093E09F938F93BC
:1018C0000E94E9020F900F900F900F90023008F4E1
:1018D0005FC58E010E5F1F4FC8010E9416184C0194
:1018E000C8010E941218FFE3FF1609F4C1C2EFE914
:1018F000EF0DEA3108F0FFC2F0E0E755F24E0C942C
:10190000A717A82FACCF60934A0570934B0580931F
:101910004C0590934D0520E133E03F932F930E94B7
:10192000E9020F900F9080911E05811509F483C381
:1019300010921E05A8950E9482022B01782E692E16
:1019400080912B0590912C05409134052091230521
:10195000309124058217930709F4D5C200914505FB
:101960001091460520914705309148058093230545
:101970009093240500931F051093200520932105C3
:10198000309322054115C9F0109234051F924F92F1
:101990001F925F926F927F928AE393E09F938F935F
:1019A0000E94E9028FE693E09F938F930E94E902E1
:1019B0000FB6F894DEBF0FBECDBF80912B0590917E
:1019C0002C052091290530912A05BC01621B730B5F
:1019D0008093290590932A0580E090E00E944F1B98
:1019E0006B017C012DEB3AE347E459E30E94B01B05
:1019F0009B01AC0160E070E080E89FE30E944C1224
:101A00009B01AC01B601C7010E94B9126CA37DA372
:101A10008EA39FA3C0904F05D0905005E090510534
:101A2000F09052059601A70160E070E080E89FE326
:101A30000E944C12209125053091260540912705E2
:101A4000509128050E94B01B68A779A78AA79BA779
:101A500020E030E040E752E46CA17DA18EA19FA17F
:101A60000E94B01B9601A7010E94B01B9B01AC0114
:101A700068A579A58AA59BA50E944D1260932505AE
:101A800070932605809327059093280520E030E089
:101A900047E553E40E94B912609330057093310515
:101AA00080933205909333056CA17DA18EA19FA1F7
:101AB0000E94D6110E943013A0903905B0903A05CB
:101AC000C0903B05D0903C05E0903D05F0903E0570
:101AD00000913F05109140050E94AD1720933905F4
:101AE00030933A0540933B0550933C0560933D0588
:101AF00070933E0580933F059093400580912E059D
:101B000090912F05892B09F4D0C280912D05811168
:101B10000BC085E893E09F938F930E94E90281E0D8
:101B200080932D050F900F9000914505109146056B
:101B3000209147053091480560914105709142051B
:101B40008091430590914405600F711F821F931F80
:101B500020912E0530912F0540E050E00E94EA1CB4
:101B6000672B682B692B09F015C21F924F921F92A9
:101B70005F926F927F928AE393E09F938F930E948C
:101B8000E9020E9469029F938F937F936F938091E4
:101B900033058F93809132058F93809131058F9318
:101BA000809130058F9380EA93E09F938F930E94FA
:101BB000E9020FB6F894DEBF0FBECDBFEBC1809136
:101BC0004D058F9380914C058F9380914B058F939A
:101BD00080914A058F938CEC92E01BC0C4010E9457
:101BE000930599CE809149051F9271C061E08114DF
:101BF000910409F460E0609349058EE00E94EA04D4
:101C00008ACE0E9469029F938F937F936F938AEA93
:101C100093E09F938F930E94E9020F900F900F9093
:101C20000F900F900F9077CE20E030E040E752E425
:101C30000E94B01B20E030E047E553E40E94B01B57
:101C40000E9430132093390530933A0540933B05A9
:101C500050933C0560933D0570933E0580933F058E
:101C60009093400558CEE12C10911D05812F90E0F6
:101C7000F999FECFE11431F09110FAC0682D0E945D
:101C8000831C49CE0E94751C1F928F931F921F9335
:101C900082ED92E0BECF809152058F9380915105E5
:101CA0008F93809150058F9380914F0593CF6093D0
:101CB0004F057093500580935105909352052BCE9C
:101CC000CE0181960E943E038AA18F9389A18F93B2
:101CD00087E593E09F938F930E94E9020F900F9006
:101CE0000F900F9018CE61E08114910409F460E028
:101CF00088E084CF81E08114910409F480E080932E
:101D0000380509CE809138056FCF80912F058F93CC
:101D100080912E05DCCF80922E0590922F05FBCD71
:101D20008091540561CF80925405F5CD0E9404182E
:101D30009F93CDCF809133058F93809132058F9300
:101D4000809131058F93809130058F9384EC93E0DF
:101D500060CF0E9482021F926F931F927F939F9386
:101D60008F9386EE92E09F938F930E94E9020FB6C5
:101D7000F894DEBF0FBECDBFCECD62EE71E0802FF6
:101D8000912F0E9417196C01892B09F471C062EE22
:101D900071E080E090E00E9417197C01892B09F422
:101DA00067C062EE71E080E090E00E9417198C013C
:101DB000892B09F45DC0C6010E9416186C01C70189
:101DC0000E941618B82EC8010E941618482FE090DD
:101DD0004505F090460500914705109148052B2DCB
:101DE00030E0ACE3B0E00E94DB1C2B013C0196012B
:101DF000A0E1BEE00E94DB1C460E571E681E791E45
:101E0000440E511C611C711C4E185F08600A710A57
:101E100040924105509242056092430570924405FC
:101E20007ACD8091C4009091C50082CF8114910435
:101E3000C9F4A89518E188E20FB6F894A895109314
:101E400060000FBE8093600080E00E949C03A89514
:101E50008FE00FB6F894A895109360000FBE8093A2
:101E6000600059CD60E0882D0E947503811153CD2B
:101E70008BE293E042C08FE00E94B80505E312E0D8
:101E8000811102C00AE312E00E94F101F82EE92E4E
:101E90000E94E3011F930F93EF92FF929F938F9302
:101EA00086EF92E060CF80911D059ECE9110E0CF2D
:101EB00080921D0530CD0E944E020CEF10E08CED9B
:101EC000C82E82E0D82E9CE0E92E93E0F92E1F93D5
:101ED0000F93FF92EF920E94E9020F900F900F90E4
:101EE0000F900E94D9028111FCCF085E1F4FC016CF
:101EF000D10669F710CD84E193E09F938F930FCDC6
:101F000082E393E0FACF00914505109146052091B8
:101F100047053091480580911F0590912005A091BB
:101F20002105B0912205CC96A11DB11D8017910706
:101F3000A207B30708F026CD41112CC081E08093A1
:101F400034051F924F921F925F926F927F928AE3A5
:101F500093E09F938F930E94E902CE0101960E9425
:101F60003E030FB6F894DEBF0FBECDBF811194C003
:101F700060E088E00E94EA048A818F9389818F93D0
:101F80008AE493E09F938F930E94E9020F900F9051
:101F90000F900F901091300500913105F0903205AF
:101FA000E09033050E9482025B01D82EC92E8091F9
:101FB0003405811509F482C091E090935605809113
:101FC0005505811509F474C060E089E00E94EA04B7
:101FD000809135058115B1F06091450570914605F8
:101FE000809147059091480525E030E040E050E0C1
:101FF0000E94EA1C672B682B692B21F48AE090E091
:102000000E94930586E10E94B805811509F4AFC0CE
:102010008FE00E94B805811509F49DC035E030932A
:1020200037058FEF9FEF8093020190930301109289
:1020300035050E94FA058FB7F89410915A05109251
:102040005A058FBF80913805811509F4ECC0111530
:1020500009F4EBC01F921F9386EE93E09F938F933A
:102060000E94E9020F900F900F900F9080915705FA
:10207000811519F0912F9F7E61F49091560591156D
:1020800009F4E4C0909155059111E0C01B7F09F45B
:102090007BC10E94FA05C9C08BE593E09F938F93A3
:1020A0000E94E9020F900F9075CF10922D0572CF0C
:1020B00086E0809354050E94F2058ACF40904A053D
:1020C00050904B0560904C0570904D0540E050E0FD
:1020D0009A01B201C3010E944A1B811551F0212FC0
:1020E000302F4F2D5E2DB201C3010E944A1B87FD88
:1020F0000DC0109256050E94400560E089E00E94E4
:10210000EA04109255051092560562CFE1E0E09383
:1021100056051F92AF921F92BF92CF92DF922AE391
:1021200033E03F932F930E94E902EF92FF920F93C7
:102130001F9383EB93E09F938F930E94E9020FB666
:10214000F894DEBF0FBECDBF8091550581113CCF05
:1021500010925405B0CF80913605809337058530B5
:1021600021F08F5F809336055CCF80E0FBCF10922B
:1021700036050E948202611539F08091020190912A
:102180000301019609F055CF0E94F10125E0833D3E
:10219000FFE09F07ACF48D332FE092070CF041C0B5
:1021A00023E0873A3EE093075CF422E081314EE081
:1021B000940734F421E08B37EDE09E070CF420E027
:1021C00080930201909303012093370531E02111A0
:1021D00030E03093350504970CF02BCF0E9440057A
:1021E0008FEC93E09F938F9381E08F930E94530530
:1021F000809103018F93809102018F938EED93E084
:102200009F938F9382E08F930E945305FFEF29E6FF
:1022100038E1F15020403040E1F700C000000E945A
:10222000330424E0CDCF111121CF809158058115C1
:1022300031F0109258050E9440050E94FA050E9454
:10224000D9028111FCCF0E945B024BCA1830E9F021
:1022500088F4123009F489C0143009F495C01130A3
:1022600009F017CF809154058F5F853058F4809323
:1022700054050FCF103109F482C0103209F009CF94
:102280000E9433041092540504CFE0915405E230CB
:1022900009F453C0E8F4E1113FC0809153058F5F0A
:1022A0008330D8F4E82F8093530524E0E29FF001B7
:1022B0001124EB5DFE4F80819181A281B3818093D7
:1022C0004F0590935005A0935105B093520502C05D
:1022D000E33029F00E944005DCCE80E0E4CFE091BD
:1022E0004E05EF5F8E2FE53010F080E0E0E0809348
:1022F0004E0534E0E39FF0011124EF5EFE4F808134
:102300009181A281B38180934A0590934B05A0935C
:102310004C05B0934D05DECF1092390510923A0569
:1023200010923B0510923C0510923D0510923E051F
:1023300010923F0510924005CDCF809145059091B8
:102340004605A0914705B0914805B095A095909598
:1023500081959F4FAF4FBF4F8093410590934205AA
:10236000A0934305B0934405B5CF6091490581E042
:102370006827609349058EE00E94EA04ABCF91E0A4
:10238000892780935705A6CF81E08093550581CE9C
:102390004FE3F41609F491CDEFE9EF0DEA3108F0BF
:1023A000AACDF0E0ED53F24E0C94A7170E942B1229
:1023B000E8F09E37E8F09639B8F49E3848F4672F75
:1023C000782F8827985FF9CF8695779567959395AD
:1023D0009539D0F3B62FB1706B0F711D811D20F4AC
:1023E00087957795679593950C94FA110C9415122F
:1023F0000C944612882371F4772321F09850872B90
:10240000762F07C0662311F499270DC09051862BB3
:1024100070E060E02AF09A95660F771F881FDAF760
:10242000880F9695879597F908959F3F31F09150C1
:1024300020F4879577956795B795880F911D9695A8
:10244000879597F9089557FD9058440F551F59F0F7
:102450005F3F71F04795880F97FB991F61F09F3F91
:1024600079F087950895121613061406551FF2CFBA
:102470004695F1DF08C0161617061806991FF1CF0A
:1024800086957105610508940895E894BB27662731
:102490007727CB0197F908955058BB27AA270E94A8
:1024A00064120C94371C0E94291C38F00E94301CC6
:1024B00020F039F49F3F19F426F40C94261C0EF4F6
:1024C000E095E7FB0C94201CE92F0E94231258F39F
:1024D000BA17620773078407950720F079F4A6F509
:1024E0000C9445120EF4E0950B2EBA2FA02D0B0183
:1024F000B90190010C01CA01A0011124FF27591B49
:1025000099F0593F50F4503E68F11A16F040A22F4E
:10251000232F342F4427585FF3CF469537952795BF
:10252000A795F0405395C9F77EF41F16BA0B620BBE
:10253000730B840BBAF09150A1F0FF0FBB1F661F05
:10254000771F881FC2F70EC0BA0F621F731F841F48
:1025500048F4879577956795B795F7959E3F08F06E
:10256000B0CF9395880F08F09927EE0F9795879530
:1025700008950E94CD120C94371C0E94301C58F014
:102580000E94291C40F029F45F3F29F00C94201C84
:1025900051110C9446120C94261C0E94231268F3CD
:1025A0009923B1F3552391F3951B550BBB27AA270C
:1025B00062177307840738F09F5F5F4F220F331F46
:1025C000441FAA1FA9F335D00E2E3AF0E0E832D00E
:1025D00091505040E695001CCAF72BD0FE2F29D011
:1025E000660F771F881FBB1F261737074807AB07E3
:1025F000B0E809F0BB0B802DBF01FF2793585F4F58
:102600003AF09E3F510578F00C94201C0C94461231
:102610005F3FE4F3983ED4F3869577956795B79539
:10262000F7959F5FC9F7880F911D9695879597F944
:102630000895E1E0660F771F881FBB1F62177307BD
:102640008407BA0720F0621B730B840BBA0BEE1FD2
:1026500088F7E0950895BEE304D008F490E8089563
:10266000BFE322273327A9010E942B1260F19F5755
:1026700048F1B91740F1BFE3B91B9927B8503AF4B4
:10268000660F771F881F991FB395D2F316C0B850F5
:102690004AF0232F342F452F562F672F782F882766
:1026A000B850BAF7B85F49F0869577956795579512
:1026B000479537952795BA95B9F716F40E94D41324
:1026C00088940895889460E070E0CB0108950E949A
:1026D0002B1288F09F5798F0B92F9927B751B0F077
:1026E000E1F0660F771F881F991F1AF0BA95C9F796
:1026F00014C0B13091F00E944512B1E008950C94DD
:102700004512672F782F8827B85F39F0B93FCCF38F
:10271000869577956795B395D9F73EF49095809512
:10272000709561957F4F8F4F9F4F0895E894F92FD3
:1027300096EBFF2381F0121613061406440B9395B3
:10274000F69587957795679557954040FF23B9F79C
:102750001BC099270895882351F49850D2F7872BEE
:10276000762F652F542F432F322F20E0B1F312160E
:1027700013061406440B88233AF09A95440F551F0C
:10278000661F771F881FCAF755234AF4440F551F49
:1027900011F460FF04C06F5F7F4F8F4F9F4F880F12
:1027A0009695879597F90895909580957095609581
:1027B00050954095309521953F4F4F4F5F4F6F4F4C
:1027C0007F4F8F4F9F4F0895AFE0B0E0EAEEF3E107
:1027D0000C9470177C013B015A01FC011682178290
:1027E000838181FF51C39AE0292EF7012381F301F0
:1027F00023FD859123FF81913F01811509F442C09A
:10280000853239F423FD959123FF91913F01953253
:1028100039F4B70190E00E94561965015601E5CFE1
:1028200030E010E0812C912CF0E28F1608F03CC0D3
:102830009B3279F160F4903271F1933291F19E32D2
:1028400009F045C086FC1EC0689486F806C09D321B
:1028500029F1903359F5689480F8F30123FD95919F
:1028600023FF91913F019111DFCF082D097F903710
:1028700009F481C208F077C2983509F47FC29F3607
:1028800009F483C2F701868197812F96E2E10C94C7
:102890008C17689481F8689482F8DFCF689483F885
:1028A000DCCF689484F8D9CF87FC1BC080ED890FFA
:1028B0008A3028F686FE05C0129D800D1124182F3F
:1028C000CCCF929C800D1124982E8F2AC6CF9C3697
:1028D00019F4689487F8C1CF9C3409F1983609F44B
:1028E000BCCF3115F1F0892F8F7D8554833008F0EE
:1028F00095C1650128E0C20ED11C8FE3898301E0F8
:1029000010E05E013FEFA31AB30AE89487F883FC56
:1029100004C00915110508F4E8C1592CFEC131E0C5
:102920009CCF8BEB890F833090F4689484F8905E91
:1029300086FE16E04FE38422953689F4689486F883
:10294000212F183010F027E017E0412C14C08BE93C
:10295000890F833008F062C1E89484F8E9CF963695
:1029600099F5689487F8812F1C3308F08BE3442491
:102970004394480E27E0F501619171918191919105
:102980006F01042DAE014F5F5F4F0E9434185C0150
:102990003980832D89700DE2813029F082FA002779
:1029A00005F981FC0BE2F32DFC705F2EF11541F16E
:1029B00033FA332433F801116AC224E0512C921601
:1029C00008F47CC283E068C220E0111509F4BDCF91
:1029D0001150B6CF81108052B70190E00E94561975
:1029E0000F5F1F4FF80184918111F4CF511409F446
:1029F00015CFB70180E290E00E9456195A94F6CFA5
:102A000087FE2FC0842D8A0D34FE04C09A81913335
:102A100009F4815044244394181634F4482EF9E004
:102A20008F1710F088E0482EC501B7FE02C080E085
:102A300090E0019601110196111531F0212F30E03F
:102A40002F5F3F4F820F931F8915910514F4592C66
:102A5000581A882D8970A1F551102BC00115C9F1A4
:102A600031C086FC23C0E12FF0E01A151B043CF0B6
:102A70002CEFA2162FEFB20614F0689487F8CE015F
:102A80000396E80FF91F01C01150111519F082913A
:102A90008033D1F387FE0AC044244394410EA1162B
:102AA000B10414F41A19C0CF10E0BECF85E090E055
:102AB000C1CFB70180E290E00E9456195A94CCCF62
:102AC000011529F0B701802F90E00E94561983FC70
:102AD00002C051103FC087FE56C04501B7FE02C07C
:102AE000812C912CCE0101968A0D9B1DFC01E819C9
:102AF000F909EC87FD879501241931092E873F8755
:102B0000012F10E0119501951109A814B9044CF199
:102B10008E859F858815990524F5EC85FD85818135
:102B2000F1E08F1A910880169106ECF02C853D8516
:102B30002F5F3F4F2C873D87B70190E00E945619C9
:102B40003FEF8316980409F7B7018EE290E00E94E8
:102B50005619DBCFB70180E390E00E9456195A94D2
:102B6000B8CF80E3DDCFA814B90431F49A8195334E
:102B700018F039F434FE05C0B70190E00E945619F0
:102B800035CF81E3F9CF8A81813311F0E89434F8AD
:102B9000B70190E00E945619111124C085E490E01D
:102BA00084FC02C085E690E0B7010E945619A1148A
:102BB000B1041CF061F534FE2AC0B194A194B108AF
:102BC0008DE2B70190E00E94561980E39AE0A916C1
:102BD000B104FCF4B70190E00E945619B701C50199
:102BE000C096CCCFB7018EE290E00E9456191E5FCE
:102BF00002E0802F0F5FFE013196E80FF11D80810A
:102C0000B70190E00E9456190113F3CFC7CF8BE2B2
:102C1000D8CF8F5F4AE0A41AB108D8CF9336B9F164
:102C2000933709F442C0933509F44EC0943619F035
:102C3000993609F07EC0F50187FE73C061917191EC
:102C4000819191916F01082D0F7697FF03C00E942B
:102C5000681700682AE030E05E01FFEFAF1ABF0A94
:102C6000A5010E948619B82EBA1806FF98C0802FB9
:102C70008E7FB11608F092C004FFE4C002FDD8C0F8
:102C80000E7E512E802F867809F494C0D6C065013F
:102C9000E2E0CE0ED11CF5018081898301E010E0D5
:102CA0005E01FFEFAF1ABF0A30CEF501A190B190DF
:102CB0006F01612F70E086FC02C06FEF7FEFC501EE
:102CC0000E941C198C0121CEF501A190B1906F01D9
:102CD000612F70E086FC02C06FEF7FEFC5010E949C
:102CE0000C198C01689487F812CEB70180E290E04D
:102CF0000E9456199A940DCEF50187FC859187FEA6
:102D000081915F01B70190E00E94561981E0511056
:102D100001C080E0581A015011090115110561F731
:102D200065CE619171916F01872F880F880B982F65
:102D30008ACF953709F099CD082D0F7E2AE030E033
:102D4000F50107FF25C061917191819191916F010A
:102D50005E01FFEFAF1ABF0AA5010E948619B82EC7
:102D6000BA180F7782CF983709F08CCD84FC04C055
:102D700020E130E0E5CF00610460FACF84FE02C0BC
:102D8000082D066020E132E0DBCF28E030E0D8CF2C
:102D9000619171916F0180E090E0DACF082F5B2C98
:102DA00004FF70CFFE01EB0DF11D8081803309F02F
:102DB00042C0097E03FD0EC000FF50C01B2D5914F8
:102DC00018F4190D1519592C892D8519951408F425
:102DD00080E0580E591408F043C09518592C04FF90
:102DE00041C0B70180E390E00E94561902FF09C07C
:102DF00088E590E001FD02C088E790E0B7010E94FD
:102E00005619B116D0F18E010F5F1F4FBA949E0173
:102E10002E5F3F4F2B0D311D5901F50182915F014E
:102E2000B70190E00E945619A016B106B1F7DECDA9
:102E3000512E082FB7CF02FD02C05394BBCF53943D
:102E40005394B8CF512E082F1DCFB70180E290E0E8
:102E50000E945619A394A914C0F3B6CFA52CFBCF9A
:102E6000512CBDCF802F867861F280E201FD8BE28C
:102E700007FD8DE2B70190E0C2CFB70180E390E09B
:102E80000E9456191150BDCF8FEF9FEFFECCF5E099
:102E9000512C9F1670F084E0592C581A83FC07C0FF
:102EA000B70180E290E00E9456195A94C9F70115C3
:102EB00029F0B701802F90E00E94561904EB10E032
:102EC000311002C008EB10E084FA882484F88ACD1F
:102ED00090958095709561957F4F8F4F9F4F089586
:102EE0002F923F924F925F926F927F928F929F921A
:102EF000AF92BF92CF92DF92EF92FF920F931F9308
:102F0000CF93DF93CDB7DEB7CA1BDB0B0FB6F894B8
:102F1000DEBF0FBECDBF09942A88398848885F84F8
:102F20006E847D848C849B84AA84B984C884DF8069
:102F3000EE80FD800C811B81AA81B981CE0FD11D4D
:102F40000FB6F894DEBF0FBECDBFED010895EE0FB2
:102F5000FF1F0590F491E02D09942A0D3B1D4C1D97
:102F60005D1D6E1D7F1D801F911F0895AAE0B0E0BA
:102F7000ECEBF7E10C94801789879A87FC0160815C
:102F800071818281938100977040604021F464E2F6
:102F900079ED8BE597E02DE133EF41E050E00E94C1
:102FA000B11C29833A834B835C839B01AC01A7EA64
:102FB000B1E40E94C81C6D837E838F839887ACEE3A
:102FC000B4EF29813A814B815C810E94D61C2D810E
:102FD0003E814F815885260F371F481F591FC90151
:102FE000DA01B7FF03C00197A109B048E985FA8566
:102FF00080839183A283B3839F772A96E2E00C9427
:103000009C170E94B617089585E091E00E94B617BC
:103010000895809305019093060110920701109284
:1030200008010895662777270C94E419FC01882786
:103030009927E89421912032E9F3293010F02E30BD
:10304000C8F32B3241F02D3239F4689404C00E9449
:103050004E19820F911D219120532A30C0F31EF486
:10306000909581959F4F0895283008F027E03327E9
:10307000DA01990F311D87FD916000966105710598
:1030800039F432602E5F3D9330E32A95E1F70895DD
:103090009F3F30F080387105610509F03C5F3C5F6F
:1030A0003D93913008F08068911DDF93CF931F937B
:1030B0000F93FF92EF92192F987F9695E92F96958F
:1030C0009695E90FFF27EA58F54C99273327EE2408
:1030D000FF24A701E70105900894079428F4360F10
:1030E000E71EF81E491F511D660F771F881F991F85
:1030F0000694A1F70590079428F4E70EF81E491FDF
:10310000561FC11D770F881F991F661F0694A1F7D0
:103110000590079428F4F80E491F561FC71FD11DAC
:10312000880F991F661F771F0694A1F705900794D3
:1031300020F4490F561FC71FD81F990F661F771F0E
:10314000881F0694A9F784911095177041F0D695C1
:10315000C79557954795F794E7941A95C1F7ECE111
:10316000FAE36894159015913591659195910590C4
:103170007FE27395E118F10A430B560BC90BD00996
:10318000C0F7E10CF11E431F561FC91FD01D7EF46E
:10319000703311F48A95E6CFE894015030F0080FAF
:1031A0000AF40027021708F4202F2395022F7A3300
:1031B00028F079E37D932A95E9F710C07D932A954D
:1031C00089F6069497956795379517951794E118A2
:1031D000F10A430B560BC90BD00998F023957E9149
:1031E00073957A3308F070E37C932013B8F77E91DF
:1031F00070617D9330F0839571E37D9370E32A9540
:10320000E1F71124EF90FF900F911F91CF91DF9183
:10321000992787FD90950895FC01059061507040B5
:103220000110D8F7809590958E0F9F1F08954CE55B
:1032300055E00E9427190895FC01615070400190EB
:103240000110D8F7809590958E0F9F1F0895FA0171
:10325000A191B081009719F41097E1F0CD01DC0144
:10326000CD010D90002011F4C00113C0FB0121918C
:10327000222319F02015D9F7F3CFFB012191201556
:1032800019F41E92119606C02223C1F70D9000205A
:10329000A1F7D001FA01A193B08308957AE0979F36
:1032A000902D879F802D910D112408950F931F93CA
:1032B000CF93DF93182F092FEB018B8181FD09C07C
:1032C0000FEF1FEF812F902FDF91CF911F910F9163
:1032D000089582FF14C02E813F818C819D81281723
:1032E00039073CF4E881F981CF01019688839983FD
:1032F00010838E819F8101968E839F83E3CFE88523
:10330000F985812F0995892BA1F3DACFFA01AA2734
:10331000283051F1203181F1E8946F936E7F6E5F18
:103320007F4F8F4F9F4FAF4FB1E03ED0B4E03CD0C6
:10333000670F781F891F9A1FA11D680F791F8A1FA9
:10334000911DA11D6A0F711D811D911DA11D20D010
:1033500009F468943F912AE0269F11243019305DCA
:103360003193DEF6CF010895462F4770405D4193BB
:10337000B3E00FD0C9F7F6CF462F4F70405D4A3308
:1033800018F0495D31FD4052419302D0A9F7EACFD0
:10339000B4E0A6959795879577956795BA95C9F7FF
:1033A00000976105710508959B01AC010A2E0694F2
:1033B0005795479537952795BA95C9F7620F731FAB
:1033C000841F951FA01D0895A0E0B0E0EAEEF9E18A
:1033D0000C947217EC016B016115710519F0FB017A
:1033E0008083D1837E012196F7010081802F90E0B8
:1033F0000E94291B5C01892BA9F70D3299F5C701A1
:10340000029608817E01EC0111E043E050E06EE19C
:103410007BE3C7010E94321B892B69F522967E014E
:1034200045E050E069E17BE3CE010E94321B892B2D
:1034300019F485E0E80EF11CC114D10419F0F6016D
:10344000E082F182111509F4FDC0812C912CD0E8A5
:10345000AD2EDFEFBD2EB401C501CDB7DEB7E0E183
:103460000C948E170B3229F4C701029608817E0155
:10347000EC0110E0CACF43E050E066E17BE3C70116
:103480000E94321B892B71F4C114D10421F02296C1
:10349000F601C083D183812C912CC0ECAC2ECFE7F8
:1034A000BC2ED9CFE12CF12C9701A70100530A3093
:1034B00048F5E12FE26012FF08C013FD03C0FFEFE3
:1034C000EF1AFF0A09911E2FF1CF13FF03C081E00D
:1034D000E81AF108A5E0B0E00E94C81C9B01AC010D
:1034E000220F331F441F551F200F311D411D511D39
:1034F0002839F9E93F074F07F9E15F0718F3E12F92
:10350000E660E0CF0E3F29F413FD3BC0E12FE860F9
:10351000D9CF0F7D0531A9F588818D3241F4106135
:10352000BE016E5F7F4F8981E2E0F0E007C0BE011F
:103530008B32B9F36F5F7F4FE1E0F0E0805395E0AD
:10354000EB01CE1BDF0B8A30E0F4E0E8AE16ECE0D6
:10355000BE0654F49A9DF0019B9DF00D1124EE0FD0
:10356000FF1F5F01A80EB11CEB01899180538A30C7
:1035700008F458C014FF03C0B194A194B108EA0C38
:10358000FB1C11FF07C0C114D10421F02197F601E3
:10359000C083D183B901CA010E944F1B4B015C015A
:1035A0001370133021F4B7FAB094B7F8B094240133
:1035B000350140E050E09A01B401C5010E944A1B68
:1035C000811509F448CFCDE4DBE3F7FE05C0F194A3
:1035D000E194F108C5E3DBE36E01F8E1CF1AD1080D
:1035E00000E210E042015301E016F106ECF42497EA
:1035F00015950795CC16DD06A9F78A2D880F8B2D1A
:10360000881F8F3F49F040E050E09A01B201C301AA
:103610000E944A1B81111FCF82E280935E051092A7
:103620005F0519CFBE0191CFFE016591759185911E
:1036300095919201A3010E94B01B2B013C01E01A5D
:10364000F10AD0CF812C912C80E8A82E8FE7B82EDC
:1036500002CF91110C941D1C803219F089508550B5
:10366000C8F70895FB01DC014150504088F08D916E
:1036700081341CF08B350CF4805E659161341CF054
:103680006B350CF4605E861B611171F3990B089524
:10369000881BFCCF0E948C1B08F481E00895E894FD
:1036A00009C097FB3EF490958095709561957F4F8A
:1036B0008F4F9F4F9923A9F0F92F96E9BB27939538
:1036C000F695879577956795B795F111F8CFFAF448
:1036D000BB0F11F460FF1BC06F5F7F4F8F4F9F4F79
:1036E00016C0882311F096E911C0772321F09EE8D7
:1036F000872F762F05C0662371F096E8862F70E03D
:1037000060E02AF09A95660F771F881FDAF7880F16
:103710009695879597F90895990F0008550FAA0B6C
:10372000E0E8FEEF16161706E807F907C0F01216D4
:103730001306E407F50798F0621B730B840B950BD7
:1037400039F40A2661F0232B242B252B21F408952C
:103750000A2609F4A140A6958FEF811D811D0895C9
:103760000E94C31B0C94371C0E94291C38F00E9435
:10377000301C20F0952311F00C94201C0C94261C76
:1037800011240C9446120E94231270F3959FC1F3EA
:10379000950F50E0551F629FF001729FBB27F00DFF
:1037A000B11D639FAA27F00DB11DAA1F649F662754
:1037B000B00DA11D661F829F2227B00DA11D621FA3
:1037C000739FB00DA11D621F839FA00D611D221F5D
:1037D000749F3327A00D611D231F849F600D211D41
:1037E000822F762F6A2F11249F5750409AF0F1F0C4
:1037F00088234AF0EE0FFF1FBB1F661F771F881F2D
:1038000091505040A9F79E3F510580F00C94201C28
:103810000C9446125F3FE4F3983ED4F38695779577
:103820006795B795F795E7959F5FC1F7FE2B880FD2
:10383000911D9695879597F908959927882708955A
:1038400097F99F6780E870E060E008959FEF80EC53
:10385000089500240A9416161706180609060895F6
:1038600000240A9412161306140605060895092E5C
:103870000394000C11F4882352F0BB0F40F4BF2BCB
:1038800011F460FF04C06F5F7F4F8F4F9F4F08950B
:10389000AEE0B0E0EEE4FCE10C947E178C01CA01CE
:1038A00046E04C8309831A83FB016130704810F0B5
:1038B000E0E0F0E83197ED83FE83A901BC01CE0181
:1038C00001960E94E4134D815E8157FD0AC02F814D
:1038D0003885421753070CF49A01020F131FF801A1
:1038E00010822E96E4E00C949A17F999FECF92BDBF
:1038F00081BDF89A992780B50895A6E1B0E044E02B
:1039000050E00C94A31C262FF999FECF92BD81BDE7
:10391000F89A019700B4021639F01FBA20BD0FB60D
:10392000F894FA9AF99A0FBE08950396272F0E94E9
:10393000841C0E94831C252F0E94841C242F0C941D
:10394000841CDC01CB01FC01F999FECF06C0F2BD5D
:10395000E1BDF89A319600B40D9241505040B8F74D
:103960000895052E97FB1EF400940E94681757FDDA
:1039700007D00E94EA1C07FC03D04EF40C94681791
:1039800050954095309521953F4F4F4F5F4F08958B
:103990000E94DB1CA59F900DB49F900DA49F800DED
:1039A000911D11240895B7FF0C94C81C0E94C81CD7
:1039B000821B930B0895A29FB001B39FC001A39FE8
:1039C000700D811D1124911DB29F700D811D112458
:1039D000911D0895A1E21A2EAA1BBB1BFD010DC06B
:1039E000AA1FBB1FEE1FFF1FA217B307E407F507AF
:1039F00020F0A21BB30BE40BF50B661F771F881F8B
:103A0000991F1A9469F760957095809590959B0120
:103A1000AC01BD01CF010895F894FFCF00407A10AA
:103A2000F35A00A0724E18090010A5D4E80000E86F
:103A30007648170000E40B54020000CA9A3B0000CD
:103A400000E1F505000080969800000040420F005C
:103A50000000A08601000000102700000000E8031D
:103A6000000000006400000000000A0000000000E8
:103A70000100000000002C76D888DC674F0823DFA7
:103A8000C1DFAE59E1B1B796E5E3E453C63AE6517A
:103A9000997696E8E6C28426EB898C9B62ED407CA1
:103AA0006FFCEFBC9C9F40F2BAA56FA5F490055A3D
:103AB0002AF75C936B6CF9676DC11BFCE0E40D4762
:103AC000FEF520E6B500D0ED902E03009435770585
:103AD0000080841E080000204E0A000000C80C333D
:103AE0003333330F986E12831141EF8D2114893BCC
:103AF000E65516CFFEE6DB18D1844B381BF77C1D4C
:103B0000901DA4BBE424203284725E228100C9F19E
:103B100024ECA1E53D274E414E494E495459494EAA
:103B200046CDCCCC3D0AD7233C17B7D13877CC2B28
:103B3000329595E6241FB14F0A000020410000C8CD
:103B40004200401C4620BCBE4CCA1B0E5AAEC59D4E
:103B50007400830CEE0DF60D140E340E570E7B0F11
:103B6000730E7B0F7B0F7A0E8B0E930E800F7B0FE5
:103B70007B0F7B0F800F4011BD0E160F800F7B0F48
:103B8000560F7B0F5B0FDF0D800FF20D010E330E12
:103B90004B0E7B0F600E7B0F7B0F820E850E900EFF
:103BA000960E7B0F7B0F7B0F9A0E4011A90E110F03
:0A3BB0003B0F7B0F530F7B0F5B0FE1
:103BBA000105FFFF0F01000000391C52697438012A
:103BCA00060000003F0000803F000000400000A007
:103BDA004000000000CDCC4C3ECDCC4C3D0AD7A3D2
:103BEA003C4F4B004552524F5200554152542063AC
:103BFA00616C6962726174696F6E2E2E2000257382
:103C0A00210A665F72633A20256C752C2055425250
:103C1A00523A2025750A0053687574646F776E2EC0
:103C2A002E0A00506F776572206F66662E2E00444A
:103C3A006F736520526174653A00252E3366755399
:103C4A00762F6800252E32667553762F6800252E4A
:103C5A0031667553762F6800252E32666D53762F9E
:103C6A006800546F74616C20446F73653A00252EA6
:103C7A00336675537600252E326675537600252EE7
:103C8A00316675537600252E32666D537600546977
:103C9A006D653A00253032753A253032753A25304D
:103CAA00327500566F6C74616765733A0056733DDE
:103CBA00252E32662056623D252E326600416C6101
:103CCA00726D204C766C3A004F6666005241442071
:103CDA004641554C5420212121004F4B2100455289
:103CEA00524F52210066756C6C0063686172676995
:103CFA006E6700322E3200322E30004F534952493D
:103D0A005320485720762573204657207625730A74
:103D1A0000496E69742E2E0A004F534952495300C6
:103D2A00485720762573204657207625730052542B
:103D3A0043204641554C54202121005541525420DC
:103D4A0063616C2E2E00414443204641554C542059
:103D5A002121005265616479210A00456E746572F9
:103D6A0020273F2720666F722068656C702E0A0034
:103D7A004856204641554C5420212100252E3366B1
:103D8A000A004545505B3078253032585D3D307821
:103D9A00253032580A00253032753A253032753AC4
:103DAA00253032750A00567379733D25752C2056D5
:103DBA006261743D25752C2025730A0025530A007B
:103DCA004F4B0A00554E4B4E4F574E202D20273F42
:103DDA0027202D3E2068656C700A004552524F52CA
:103DEA000A0044454E4945440A00253032753A25B1
:103DFA003032753A253032752000485620464155F2
:103E0A004C54202121212025750A0044455445435C
:103E1A00544F52204641554C54202121210A004436
:103E2A0065746563746F72207265636F7665726517
:103E3A00642E2E0A0054696D6520202020205261CC
:103E4A00746520202020202020546F74616C0A00A1
:103E5A00252E33667553762F6820252E34667553C2
:103E6A00760A00446F7365205261746520416C655F
:103E7A0072742120252E33667553762F680A004204
:103E8A0041545445525920454D50545921005662C7
:103E9A0061743D2575004B45593A2025640A000096
:00000001FF
