:100000000C9464020C94C30A0C94740A0C9481023C
:100010000C945D0A0C9427030C9481020C948103C8
:100020000C9431050C946B070C9481020C948102A2
:100030000C9481020C9481020C9481020C94810234
:100040000C9481020C9481020C9481050C94A805F7
:100050000C9481020C9481020C9481020C94810214
:100060000C9481020C9481020C9481020C94810204
:100070000C9481020C9481020C9481020C948102F4
:100080000C9481020C9481020C9481020C948102E4
:100090000C9481020C9481020C9481020C948102D4
:1000A0000C9481020C9481020C9481020C948102C4
:1000B0000C9481026E616E00696E660000407A10D9
:1000C000F35A00A0724E18090010A5D4E80000E809
:1000D0007648170000E40B54020000CA9A3B000067
:1000E00000E1F505000080969800000040420F00F6
:1000F0000000A08601000000102700000000E803B7
:10010000000000006400000000000A000000000081
:100110000100000000002C76D888DC674F0823DF40
:10012000C1DFAE59E1B1B796E5E3E453C63AE65113
:10013000997696E8E6C28426EB898C9B62ED407C3A
:100140006FFCEFBC9C9F40F2BAA56FA5F490055AD6
:100150002AF75C936B6CF9676DC11BFCE0E40D47FB
:10016000FEF520E6B500D0ED902E0300943577051E
:100170000080841E080000204E0A000000C80C33D6
:100180003333330F986E12831141EF8D2114893B65
:10019000E65516CFFEE6DB18D1844B381BF77C1DE5
:1001A000901DA4BBE424203284725E228100C9F138
:1001B00024ECA1E53D274E414E494E495459494E44
:1001C00046CDCCCC3D0AD7233C17B7D13877CC2BC2
:1001D000329595E6241FB14F0A000020410000C867
:1001E0004200401C4620BCBE4CCA1B0E5AAEC59DE8
:1001F000740A1F11111111111F0A1F111111111F62
:100200001F0A1F1111111F1F1F0A1F11111F1F1F6E
:100210001F0A1F111F1F1F1F1F0A1F1F1F1F1F1F26
:100220001F0204081F0204082007040704041F110A
:100230001F636D6420666F726D61743A2078202DA3
:100240003E20676574207800000000000000000078
:10025000007831202D3E2073657420783D313B209D
:10026000617661696C61626C6520636D64733A00EC
:100270000061202D20646F736520726174652061B8
:100280006C61726D206C6576656C0000000000008A
:100290000062202D20656D69742062656570000024
:1002A000000000000000000000000000000000004E
:1002B0000063202D20636C69636B65722073657425
:1002C00074696E670000000000000000000000007C
:1002D0000064202D20746F74616C20616363756D00
:1002E000756C6174656420646F73650000000000C4
:1002F0000065202D20722F7720454550524F4D200C
:1003000061742061646472205800000000000000E5
:100310000066202D20646F7365207261746520660D
:10032000696C74657220666163746F72000000000E
:100330000068202D206869676820766F6C7461679B
:100340006520737570706C7920746573740000009B
:10035000006B202D206B6579206465627567676985
:100360006E670000000000000000000000000000B8
:10037000006C202D2064617461206C6F6767696E6A
:100380006720696E74657276616C00000000000081
:10039000006D202D20737769746368207669657716
:1003A000206D6F6465000000000000000000000088
:1003B000006E202D2072616E646F6D206E756D620F
:1003C00065722067656E657261746F72000000006F
:1003D0000072202D2063757272656E7420646F73D5
:1003E00065207261746500000000000000000000DC
:1003F0000073202D2073797374656D207368757494
:10040000646F776E00000000000000000000000034
:100410000074202D2073797374656D2074696D6587
:1004200000000000000000000000000000000000CC
:100430000075202D20554152542063616C69627211
:100440006174696F6E000000000000000000000091
:100450000076202D206D65617375726520766F6C56
:100460007461676573000000000000000000000078
:100470000078202D20454550524F4D206164647214
:100480006573730000000000000000000000000021
:10049000007A202D2073797374656D207265736501
:1004A00074000000000000000000000000000000D8
:1004B000000E724347161A1E4024286C10744B21FC
:1004C00005696D115502660A11241FBECFEFD8E0F1
:1004D000DEBFCDBF13E0A0E0B1E0E6E2FDE302C085
:1004E00005900D92A83CB107D9F725E0A8ECB3E040
:1004F00001C01D92AB33B207E1F70E94FB0A0C94D6
:10050000911E0C944607F89483B7817F866083BF61
:1005100083B7816083BF7894889583B78E7F83BFCC
:100520000895F894A89598E088E10FB6F894A895F6
:10053000809360000FBE90936000FFCFFC0180812C
:1005400021E030E001C0220F6A95EAF7442311F060
:10055000282B02C02095282320830895462FE82FBA
:10056000F0E0EF54FB4F6491862F8370669566959B
:100570006770811103C085E290E00CC0813019F4EE
:1005800088E290E007C0823019F48BE290E002C06C
:100590008EE290E00C949E02462FE82FF0E0EF549C
:1005A000FB4F6491862F8370669566956770811105
:1005B00003C084E290E00CC0813019F487E290E03F
:1005C00007C0823019F48AE290E002C08DE290E028
:1005D0000C949E02CF93E82FF0E0EF54FB4FC491B0
:1005E000C5FB992790F981E089270E941C078C2F71
:1005F00083702C2F26952695811102C083B109C0E6
:10060000813011F486B105C0823011F489B101C086
:100610008CB190E0277002C0959587952A95E2F7F6
:100620008170CF910895CF9386E00E94EA02C82F8F
:1006300085E00E94EA02CC0FCC0F880FC82B84E023
:100640000E94EA028C2B97E08927CF9108951F9290
:100650000F920FB60F9211242F933F934F935F93F6
:100660006F937F938F939F93AF93BF93EF93FF937A
:100670000E9413032091C903382F32279091C80399
:10068000922393238093C9032091C80321111AC098
:1006900043E050E024E03823832F822379F0209335
:1006A000C8038091B20081508093B30082E087BB81
:1006B0008091700082608093700004C02695415044
:1006C000510951F7992361F0809170008D7F8093DB
:1006D00070001092C8038091E403982B9093E40378
:1006E000FF91EF91BF91AF919F918F917F916F910A
:1006F0005F914F913F912F910F900FBE0F901F90E0
:1007000018951F920F920FB60F9211242F933F93BB
:100710004F935F936F937F938F939F93AF93BF9309
:10072000EF93FF930E9413039091C8032091E40379
:10073000892338E0839FC0011124822B8093E40336
:10074000E0E7F0E080818D7F80831092C803FF9105
:10075000EF91BF91AF919F918F917F916F915F9139
:100760004F913F912F910F900FBE0F901F901895B2
:10077000CF93DF93C82FD62FE82FF0E0EF54FB4F35
:10078000849185FB882780F90E941C076D2F8C2F90
:10079000DF91CF910C94AE02CF93DF93D82F60E01E
:1007A00081E10E94B803C8E06D2F661F6627661FAF
:1007B0008AE00E94B80360E08CE00E94B803DD0F7D
:1007C00061E08CE00E94B803C15071F761E081E103
:1007D0000E94B80380E58A95F1F7DF91CF910895E3
:1007E000CF93C82F61E080E10E94B8038C2FCF9196
:1007F0000C94CC03CF93C82F60E080E10E94B80333
:100800008C2F0E94CC03C43030F48FE698E001971F
:10081000F1F700C00000CF91089581E00C94FA0335
:1008200081E391E09F938F930E940C060F900F90AD
:100830000E94DA058111FCCF0E940D048091EB0328
:100840008B7F8093EB030E94FA0360E089E00E94B3
:10085000B80360E08EE00E94B80360E081E00E948F
:10086000B803A8950FB6F894A895809160008861A8
:1008700080936000109260000FBE8091ED038111A3
:1008800002C0F894FFCF80E00E94F406E89860E090
:1008900088E00E94B803E998809168008D7F80937A
:1008A0006800809170008E7F80937000809170004E
:1008B0008B7F80937000809170008D7F809370009B
:1008C0008091B6008F7D8093B600809170008D7FFF
:1008D0008093700080916D008F7980936D0086E029
:1008E0000E94EA028823D9F32FEF80E792E021509B
:1008F00080409040E1F700C000000E9483020E9407
:100900009102662321F0613118F060E101C061E0DD
:10091000823011F480E401C080E06158860F0C94AD
:10092000FA030F931F93CF93DF93CDB7DEB7619791
:100930000FB6F894DEBF0FBECDBF888D882319F0A7
:1009400060E00E9481048E010F5F1F4F81E1F8017A
:1009500011928A95E9F79E01255E3F4F498D5A8D88
:1009600061E170E0C8010E94651EF80181918F016C
:10097000882319F00E94F003F8CF61960FB6F8941F
:10098000DEBF0FBECDBFDF91CF911F910F910895B4
:1009900080917A00806480937A0080917A0086FD4D
:1009A000FCCF8091780090917900089587E00E94B3
:1009B000F4049C01A8E8B3E10E94681C2FEF33E027
:1009C00040E050E00E94461CC90108958EE00E945C
:1009D000F4049C0140E050E064EB7BE281E190E0B4
:1009E0000E94461CC9010895CF92DF92EF92FF92B8
:1009F000CF9390917C00907F90937C0090917C00AD
:100A0000982B90937C0090917A00906890937A0054
:100A100090910401891721F0809304010E94C80479
:100A2000C0E0C12CD12C76010E94C804C80ED91E8A
:100A3000E11CF11CCF5FC031B9F780917A008F774C
:100A400080937A00D701C60124E0B695A7959795C3
:100A500087952A95D1F7CF91FF90EF90DF90CF90B7
:100A600008951F920F920FB60F9211242F933F9368
:100A70004F935F936F937F938F939F93AF93BF93A6
:100A8000EF93FF93E0E7F0E080818B7F808360E06D
:100A900089E00E94B803FF91EF91BF91AF919F91C0
:100AA0008F917F916F915F914F913F912F910F9017
:100AB0000FBE0F901F901895CF93DF93EC0161E06C
:100AC00089E00E94B803BE0180E090E00E94CA1A4B
:100AD00020E030E04AE750E40E94E41C0E940F1E30
:100AE000C091B2000E94921DC60FC093B40084E072
:100AF00087BBE0E7F0E0808184608083DF91CF9165
:100B000008951F920F920FB60F9211248F93EF93B7
:100B1000FF938091C0008295817080931C04E091C6
:100B20001B0481E08E0F80931B04F0E08091C600CF
:100B3000E550FC4F808380911B048F7180931B04D0
:100B4000FF91EF918F910F900FBE0F901F9018950E
:100B50001F920F920FB60F9211248F939F93EF93D2
:100B6000FF938091C00080648093C000E0913605BF
:100B700081E08E0F80933605F0E0EA5CFB4F8081C8
:100B80008093C60080913605809336059091360596
:100B900080913504981305C08091C1008F7D8093AA
:100BA000C100FF91EF919F918F910F900FBE0F9019
:100BB0001F90189580913404882359F09091C100BA
:100BC00095FD07C09091C00096FF03C010923404B9
:100BD00080E00895CF93DF93C82FD62F80EE8C0F3F
:100BE0008430A0F40E94DA058111FCCF8C2F90E0B4
:100BF0009093C5008093C400DD2351F0F999FECF96
:100C00006C2F80E090E00E94F41B02C080E001C0E5
:100C100081E0DF91CF9108950F931F93CF93DF93DE
:100C2000CDB7DEB7C054D1090FB6F894DEBF0FBE02
:100C3000CDBF8091F5038823C1F181E08093340416
:100C40008E010F5F1F4F80E4F80111928A95E9F73A
:100C50009E01275B3F4F29964EAD5FAD299760E41B
:100C600070E0C8010E94651E80E0F801E80FF11DE8
:100C70009081992381F08F5FE091350421E02E0F60
:100C800020933504F0E0EA5CFB4F908390913504AB
:100C900090933504EACF8091C00080648093C000B7
:100CA0008091C10080628093C100C05CDF4F0FB6AD
:100CB000F894DEBF0FBECDBFDF91CF911F910F9192
:100CC0000895CF92DF92EF92FF92CF93DF93C82FD8
:100CD0008FEE92E09F938F930E940C06809170009C
:100CE0008E7F80937000909181001092810010920D
:100CF0008500109284000F900F90B89BFECF81E08A
:100D000087BB80918100846080938100B89BFECF77
:100D100021E027BB809181008B7F809381008091AF
:100D20007000816080937000C0908400D090850036
:100D3000E12CF12CFE2CED2CDC2CCC2490938100AA
:100D40008091F7039091F803A091F903B091FA0311
:100D50000296A11DB11D8093F7039093F803A09311
:100D6000F903B093FA032093F603C701B6010E947A
:100D7000CA1A20E030E041E658E40E94E41C20E07A
:100D800030E040E85FE30E94771C0E940F1E0E9443
:100D9000921DD62F6C2F8D2F0E94EA05C82F81112E
:100DA00003C089EE92E002C086EE92E01F92DF93CC
:100DB000FF92EF92DF92CF929F938F9383E093E025
:100DC0009F938F930E940C068DB79EB70A960FB61D
:100DD000F8949EBF0FBE8DBF8C2FDF91CF91FF90F7
:100DE000EF90DF90CF9008959091F503981719F147
:100DF0008093F5038823C1F01092360510923504D4
:100E00001092F40310921B048091C00080648093C0
:100E1000C0008091C0008F7E8093C0008091C1008F
:100E200088698093C10008958091C100877C809378
:100E3000C10010923404089581111FC086E00E9401
:100E4000EA02811102C00E9410042FE788E391E0BA
:100E5000215080409040E1F700C0000060E089E050
:100E60000E94B8032FEF81EE94E021508040904023
:100E7000E1F700C00000A895E1CF089581E00E944D
:100E80001C0795B184E0892785B908951F920F92B8
:100E90000FB60F9211242F933F934F935F936F934D
:100EA0007F938F939F93AF93BF93EF93FF9380E0D4
:100EB0000E941C07FF91EF91BF91AF919F918F917D
:100EC0007F916F915F914F913F912F910F900FBE46
:100ED0000F901F9018951F920F920FB60F9211242A
:100EE0002F933F938F939F93AF93BF938091F7037B
:100EF0009091F803A091F903B091FA030196A11D16
:100F0000B11D8093F7039093F803A093F903B09376
:100F1000FA0381E08093F6038FB7F89420913204AE
:100F2000309133043093F3032093F2038FBFBF91CA
:100F3000AF919F918F913F912F910F900FBE0F9086
:100F40001F9018950F931F93CF93DF934091F70352
:100F50005091F8036091F9037091FA038091EE03C8
:100F60009091EF03A091F003B091F1038A019B01EE
:100F7000080F191F2A1F3B1FC901B80120E13EE0DD
:100F800040E050E00E94141CD22FC32F2CE330E02D
:100F900040E050E00E94141C722F8D2F9C2FDF9197
:100FA000CF911F910F910895BF92CF92DF92EF9250
:100FB000FF920F931F93CF93DF93F0901D04009146
:100FC0001E0410911F04D09120040E94A207B62E87
:100FD000C72EE82ED92E20912F0430E080910301F6
:100FE000082E000C990B2817390731F00E940D04C8
:100FF00080912F0480930301C0912F04C23009F423
:1010000048C130F4CC2391F0C13009F4AAC0DCC14E
:10101000C43009F45CC108F497C1C63009F0D4C1EA
:1010200089EB93E09F938F9381E0C7C18CE193E0BC
:101030009F938F9381E08F930E9491040F900F9064
:101040000F9020E030E040E251E46F2D702F812FAF
:101050009D2F0E94C51A87FF15C0DF931F930F9322
:10106000FF9287E293E09F938F9382E08F930E9499
:1010700091048DB79EB707960FB6F8949EBF0FBE2A
:101080008DBF60C020E030E048EC52E46F2D702F3F
:10109000812F9D2F0E94C51A87FF15C0DF931F93D4
:1010A0000F93FF9281E393E09F938F9382E08F935E
:1010B0000E9491048DB79EB707960FB6F8949EBF15
:1010C0000FBE8DBF3FC020E030E04AE754E46F2DF3
:1010D000702F812F9D2F0E94C51A87FF15C0DF93A7
:1010E0001F930F93FF928BE393E09F938F9382E084
:1010F0008F930E9491048DB79EB707960FB6F89410
:101100009EBF0FBE8DBF1EC020E030E04AE754E412
:101110006F2D702F812F9D2F0E94E41C9F938F9322
:101120007F936F9385E493E09F938F9382E08F93F7
:101130000E9491048DB79EB707960FB6F8949EBF94
:101140000FBE8DBF6BE082E00E94810480912E046F
:10115000882309F43CC182EC93E09F938F931F9204
:101160002DC18FE493E09F938F93CF930E949104BE
:1011700000912A0410912B04D0912C04C0912D04CD
:101180000F900F900F9020E030E040E251E4FE011C
:10119000602F712F8F2F9E2F0E94C51A87FF15C0B9
:1011A000CF93DF931F930F938BE593E09F938F93E0
:1011B00082E08F930E9491048DB79EB707960FB679
:1011C000F8949EBF0FBE8DBF02C120E030E048EC16
:1011D00052E4FE01602F712F8F2F9E2F0E94C51A9F
:1011E00087FF15C0CF93DF931F930F9383E693E0A0
:1011F0009F938F9382E08F930E9491048DB79EB747
:1012000007960FB6F8949EBF0FBE8DBFE0C020E0DA
:1012100030E04AE754E4FE01602F712F8F2F9E2F9C
:101220000E94C51A87FF15C0CF93DF931F930F93BA
:101230008BE693E09F938F9382E08F930E949104BB
:101240008DB79EB707960FB6F8949EBF0FBE8DBFA1
:10125000BEC020E030E04AE754E4FE01602F712F69
:101260008F2F9E2F0E94E41C9F938F937F936F93E9
:1012700083E793E09F938F9382E08F930E94910482
:101280008DB79EB707960FB6F8949EBF0FBE8DBF61
:101290009EC08BE793E09F938F9381E08F930E9492
:1012A00091041F92BF921F92CF92DF92EF9281E83A
:1012B00093E09F938F93CF930E9491048DB79EB735
:1012C0000C960FB6F8949EBF0FBE8DBF80C00E94D3
:1012D000E604EC010E94D6048C0180E993E09F9320
:1012E0008F9381E08F930E949104B80180E090E099
:1012F0000E94CA1A20E030E04AE754E40E94E41C4D
:101300009F938F937F936F93BE0180E090E00E9444
:10131000CA1A20E030E04AE754E40E94E41C9F939C
:101320008F937F936F938AE993E09F938F9382E0EB
:101330008F930E9491048DB79EB70E960FB6F894C6
:101340009EBF0FBE8DBF43C08AEA93E09F938F93E9
:1013500081E08F930E949104C0912604D0912704CC
:1013600010912804009129040F900F900F9020E015
:1013700030E0A901F8016C2F7D2F8F2F9E2F0E9446
:10138000C51A8823A9F00F931F93DF93CF938BE3A4
:1013900093E09F938F9382E08F930E9491048DB787
:1013A0009EB707960FB6F8949EBF0FBE8DBF0FC0B5
:1013B00085EB93E09F938F9382E08F930E9491043B
:1013C0000F900F900F9003C080E00E941C07809147
:1013D0002504882329F09091020181E0892701C02A
:1013E00081E08093020180910201882319F0C0916D
:1013F000240401C0C0E260E181E00E9481048C2FDE
:101400000E94F00386E10E94EA02882339F06FE02F
:1014100081E00E94810486E00E94F0038091230411
:10142000882339F06EE081E00E94810483E60E9407
:10143000F00380912204882339F06DE081E00E945E
:10144000810487E00E94F00380912F04811125C060
:1014500080912104811106C060E182E00E94810434
:1014600086E420C0813031F460E182E00E94810492
:101470008DE418C0823029F460E10E94810483E584
:1014800011C080E0DF91CF911F910F91FF90EF90FD
:10149000DF90CF90BF900C941C0760E182E00E9427
:1014A000810480E2DF91CF911F910F91FF90EF9027
:1014B000DF90CF90BF900C94F0031F920F920FB665
:1014C0000F9211248F939F93809130049091310457
:1014D000019690933104809330049F918F910F90E7
:1014E0000FBE0F901F9018951F920F920FB60F927C
:1014F00011248F939F93809132049091330401962D
:1015000090933304809332049F918F910F900FBE7C
:101510000F901F901895FC01109231041092300426
:1015200090916C00906190936C0082E08BBB9091E5
:1015300068009260909368002FEF80E792E021505E
:1015400080409040E1F700C00000909168009D7FCE
:1015500090936800309731F080913004909131047D
:101560009183808380913004909131040B9740F0F7
:10157000209130043091310481E0243F314008F063
:1015800080E0817008951F920F920FB60F92112480
:101590002F933F934F935F936F937F938F939F937B
:1015A000AF93BF93CF93EF93FF9386E10E94EA023C
:1015B000C82F8091ED032C2F30E090E028173907D9
:1015C00041F08C2F0E94F406C093ED0381E08093DC
:1015D000EC03FF91EF91CF91BF91AF919F918F91CC
:1015E0007F916F915F914F913F912F910F900FBE1F
:1015F0000F901F901895CF93DF93CDB7DEB7A997C3
:101600000FB6F894DEBF0FBECDBF14BEA89599E209
:1016100088E10FB6F894A895809360000FBE909370
:10162000600000E010E0F801EF54FB4FF490F5FA91
:10163000EE24E0F86E2D802F0E94CC02F6FAFF24F3
:10164000F0F8E11008C081E00E941C076F2D802F88
:101650000E94AE0204C06F2D802F0E94B8030F5F5E
:101660001F4F07311105F9F661E089E00E94B803C8
:101670000FEF10E722E0015010402040E1F700C0DA
:10168000000060E089E00E94B80386E10E94EA025F
:101690008093ED039091ED0381E0911101C080E012
:1016A0000E94F4068091690081608093690081E066
:1016B0008CBBE89A78948091C00082608093C000CF
:1016C0008091C30080668093C300F999FECF80E0CB
:1016D00090E00E94EC1B60E00E94EA05182F811147
:1016E00006C082E290E09093C5008093C40085E537
:1016F00091E09F938F9389E591E09F938F938DE580
:1017000091E09F938F930E940C0683E791E09F9353
:101710008F930E940C0685E00E94EA0218238CE059
:101720008093EB0361E081E10E94CC0261E081E102
:101730000E94B80361E08AE00E94CC0261E08CE084
:101740000E94CC0261E08CE00E94B80360E080E17E
:101750000E94B80339E0E32E31E0F32E0FB6F8947F
:10176000DEBF0FBECDBFF70181917F010E94FA035A
:10177000F1E1EF16F1E0FF06B1F721EFC22E21E013
:10178000D22E00E4802F0E94FA03E12CF12CF60106
:10179000EE0DFF1D84918BA38BA10E94F0032FEF10
:1017A000E21AF20A38E0E316F10489F7085F88E0EC
:1017B000C80ED11C003831F70E940D048091EB0354
:1017C0008E7F8093EB030E94FA0389E30E94FA0361
:1017D00082E50E94FA0383E70E94FA0388E30E94ED
:1017E000FA038091EB0384608093EB030E94FA0379
:1017F0008BE791E09F938F9301E00F930E949104F8
:1018000085E591E09F938F9389E591E09F938F9376
:1018100082E891E09F938F9382E08F930E949104DE
:101820008091B60080628093B6001092B20007BB30
:1018300085E08093B1000FB6F894DEBF0FBECDBF38
:101840008EE1FFEF00E722E0F15000402040E1F799
:1018500000C00000B89B0CC001E007BB1092F6036B
:1018600080917000816080937000111130C007C0BA
:10187000815039F70E940D040DE812E01AC30E944E
:101880000D0480E991E09F938F930F930E94910440
:1018900081E00E9461060F900F900F90811103C0AC
:1018A00080E491E002C08CE391E09F938F9382E00B
:1018B0008F930E9491043FEF89E698E13150804078
:1018C0009040E1F700C000000F900F900F908091C2
:1018D0007A00836080937A0080917C00806480939A
:1018E0007C000E94E6048858934197FF03C09195BD
:1018F00081959109883C91052CF00E940D040BE91B
:1019000011E0D7C28DEC9CECACE4BEE38093E6031F
:101910009093E703A093E803B093E90310922A049D
:1019200010922B0410922C0410922D041092E003BC
:101930001092DF0361E088E00E94B80380E090E04D
:101940000E948B0A182F882309F4C4C28091690071
:1019500088608093690082E08CBBE99A1092E3036F
:1019600080916D00806E80936D0084E08BBB8091D0
:10197000680084608093680080E090E0A0E0BFE3AE
:101980008093260490932704A0932804B0932904FD
:101990001092230410922F04809181008160809323
:1019A000810088EA91E09F938F930E940C0680EB60
:1019B00091E09F938F930E940C06A8959FE088E189
:1019C0000FB6F894A895809360000FBE90936000C6
:1019D0000F900F900F900F90812F0E941C07FE0117
:1019E0003196FDA3ECA38091F503882309F4E7C0A9
:1019F00080E2ECA1FDA111928A95E9F780911C0487
:101A00008823C1F08091C1008F7E8093C100109225
:101A10001C04F999FECF60E080E090E00E94061C73
:101A20001092F40310921B048091C1008061809396
:101A3000C100BFC0E091F40380E090911B04E9175E
:101A400009F4B7C091E0980F21E02E0FF0E0E550C7
:101A5000FC4F3081E1E0F0E0EC0FFD1FE80FF11DDD
:101A60003083E22FEF71AE2FB0E0A550BC4F8C91C8
:101A70008A3061F5E1E0F0E0EC0FFD1FE90FF11DA8
:101A800010821C9280911B048093F4031981ECA1B5
:101A9000FDA101900020E9F731977F012CA13DA124
:101AA000E21AF30A81E090E08C0F9D1F9F938F93C1
:101AB000EBEEF1E0FF93EF930E940C060F900F9076
:101AC0000F900F9021E02E1518F048C0892FB5CF48
:101AD000CE0102960E947C171C01CE0102960E9444
:101AE00078171C3609F457C5F0F4143609F41CC5F0
:101AF00078F4113609F4E2C420F41F3309F466C205
:101B00005CC2123609F4F4C4133609F4F5C455C2A4
:101B1000163609F412C500F1183609F423C51B3630
:101B200009F431C54AC2153709F49AC560F41E3666
:101B300009F457C208F43FC5123709F452C21437EA
:101B400009F4D6C13AC2183709F4AAC508F0B1C4DD
:101B5000163709F446C231C221E010C01C3609F420
:101B60001FC508F01DC2143609F4CFC408F431C2F1
:101B7000163609F4EBC408F076C420E01091CA03CD
:101B8000812F90E0F999FECF222351F03FEF2316E9
:101B9000310411F008F01AC2622D0E94F41BFDC13D
:101BA0000E94EC1B1F928F931F921F9385EC91E074
:101BB0009CC480918400909185000E946D17809153
:101BC000F603882309F4B3C01092F603A8950E9487
:101BD000A2076EA37FA398A7982F89A72091F2034D
:101BE0003091F3034091CF035091D0038091E103F2
:101BF00024173507A9F04091F7035091F80360913D
:101C0000F9037091FA033093D0032093CF034093EC
:101C1000CB035093CC036093CD037093CE03EAC102
:101C20000091F7031091F8032091F9033091FA0322
:101C30004091CB035091CC036091CD037091CE03C2
:101C4000445C5F4F6F4F7F4F401751076207730728
:101C500008F0D0C181112FC081E08093E1031F9271
:101C6000EEA1EF931F92FFA1FF93E8A4EF929F9341
:101C700083EF91E09F938F930E940C06CE01019613
:101C80000E948B0A0FB6F894DEBF0FBECDBF811144
:101C9000BBC360E088E00E94B8038A818F9389818A
:101CA0008F9383E092E09F938F930E940C060F9096
:101CB0000F900F900F90F0901D04E0901E04D090B4
:101CC0001F04C09020040E94A207B62E072F982E52
:101CD000892E8091E103882309F4B3C281E08093C7
:101CE0002E048091EA03882309F4A7C260E089E00A
:101CF0000E94B803809125048111F5C286E10E94FB
:101D0000EA02882309F413C38FE00E94EA028823C1
:101D100009F401C385E0809324048FEF9FEF909333
:101D2000010180930001109225040E94D4078FB70F
:101D3000F8941091E4031092E4038FBF8091E303C1
:101D4000882381F0112309F4A3C01F921F9384E814
:101D500092E09F938F930E940C060F900F900F902C
:101D60000F9003C0112309F493C09091220499238A
:101D700021F0812F8F7E09F089C080912E04882365
:101D800041F08091EA03811104C0812F8B7F09F01B
:101D90007DC0143009F471C078F41130B9F01230FC
:101DA00009F074C06091230481E0682760932304E4
:101DB0008EE00E94B8035EC0103109F457C01032A3
:101DC00009F462C0183009F061C00BC080912F0483
:101DD0008F5F853018F480932F0458C010922F0421
:101DE00055C080912F04882319F0833001F142C03F
:101DF000809121048F5F833018F48093210402C006
:101E000010922104E091210404E0E09FF0011124EC
:101E1000EB5DFE4F80819181A281B3818093E603C7
:101E20009093E703A093E803B093E90323C0809164
:101E3000E5038F5F853018F48093E50302C01092AC
:101E4000E503E091E50314E0E19FF0011124EF5E6A
:101E5000FE4F80819181A281B3818093260490936B
:101E60002704A0932804B093290404C081E08927A3
:101E7000809322040E940D0409C081E08093EA034C
:101E800005C01A3709F099C00E9410040E94D407B7
:101E90008091EC03882331F01092EC030E940D0432
:101EA0000E94D4070E94DA058111FCCF0E948302B0
:101EB0009ACD1F930F9381E08F930E9491041F93FB
:101EC0000F930E940C060F900F900F900F900F90A1
:101ED00010E082CD0E940D048AE992E09F938F93D7
:101EE00081E08F930E9491040F900F900F9074CD1A
:101EF0006FE773E0CE0102960E947D187C01892B6A
:101F000009F464C06FE773E080E090E00E947D1800
:101F10004C01892B09F45AC06FE773E080E090E030
:101F20000E947D186C01892B09F450C0C7010E94E2
:101F30007C177C01C4010E947C17182FC6010E94E7
:101F40007C17482F4090F7035090F8036090F903F6
:101F50007090FA039701A0E1BEE00E94681C6B013B
:101F60007C01212F30E0ACE3B0E00E94681CDC0172
:101F7000CB018C0D9D1DAE1DBF1D840F911DA11D9C
:101F8000B11D84199509A609B7098093EE039093B2
:101F9000EF03A093F003B093F10386EA92E023C02D
:101FA000153709F452C308F46DC2183709F481C318
:101FB00008F07FC2163709F428C38AEA92E013C0FA
:101FC00060E0822D0E94EA058111E7CF81EC92E06A
:101FD0000AC0113609F47BC208F41FC2123609F098
:101FE0003BC288EC92E09F938F930E940C060F9067
:101FF0000F90E5CD8823E9F01092E1031F921EA116
:102000001F931F922FA12F9338A53F9389A58F93DC
:1020100083EF91E09F938F930E940C0688E292E0F9
:102020009F938F930E940C060FB6F894DEBF0FBEED
:10203000CDBF8091F2039091F3032091DD033091A5
:10204000DE03BC01621B730B9093DE038093DD0300
:1020500080E090E00E94CA1A6B017C012DEB3AE30C
:1020600047E459E30E942B1B9B01AC0160E070E048
:1020700080E89FE30E94771C9B01AC01C701B60179
:102080000E94E41C6B017C018090E6039090E703C2
:10209000A090E803B090E903A501940160E070E02E
:1020A00080E89FE30E94771C2091D9033091DA03E6
:1020B0004091DB035091DC030E942B1B2B013C0160
:1020C00020E030E040E752E4C701B6010E942B1B3C
:1020D000A50194010E942B1B9B01AC01C301B2011D
:1020E0000E94781C6093D9037093DA038093DB031A
:1020F0009093DC0320E030E047E553E40E94E41CC9
:1021000060931D0470931E0480931F049093200419
:10211000C701B6010E940F1E0E945B1DA090D10353
:10212000B090D203C090D303D090D403E090D503F5
:10213000F090D6030091D7031091D8030E945C1E43
:102140002093D1033093D2034093D3035093D4030D
:102150006093D5037093D6038093D7039093D803ED
:102160000E94C11D20E030E949E456E40E94E41CCD
:1021700060932A0470932B0480932C0490932D0475
:102180002091DF033091E0032115310509F493CD4F
:102190004091F7035091F8036091F9037091FA03AD
:1021A0008091EE039091EF03A091F003B091F103C1
:1021B0007A018B01E80EF91E0A1F1B1FC801B70127
:1021C00040E050E00E94461C672B682B692B09F009
:1021D00072CD1F92FEA0FF921F920FA10F9318A520
:1021E0001F9329A52F9383EF91E09F938F930E94D4
:1021F0000C0680912D048F9380912C048F938091F5
:102200002B048F9380912A048F93809120048F93C5
:1022100080911F048F9380911E048F9380911D04E1
:102220008F938EE392E09F938F930E940C060FB6DC
:10223000F894DEBF0FBECDBF3ECD86E080932F0465
:1022400044C0409026045090270460902804709069
:10225000290420E030E0A901C301B2010E94C51A9F
:10226000882361F011E0B701C601272F362F492FCF
:10227000582FC301B2010E94C51A87FF10E01170E8
:1022800010932E04112321F11F92BF921F920F93DE
:102290008F929F9283EF91E09F938F930E940C0601
:1022A000CF92DF92EF92FF9281E592E09F938F931E
:1022B0000E940C060FB6F894DEBF0FBECDBF809112
:1022C000EA03811113CD10922F040E943E0712CD14
:1022D0000E940D0460E089E00E94B8031092EA03B6
:1022E00010922E0407CD6091F7037091F80380914E
:1022F000F9039091FA0325E030E040E050E00E94BD
:10230000461C672B682B692B09F0F8CC8AE090E01B
:102310000E945C05F3CC8091E20380932404853015
:1023200011F08F5F01C080E08093E203F6CC109241
:10233000E2030E94A207662339F080910001909188
:102340000101019609F0F1CC0E94D604BC019093E2
:10235000010180930001833D0FE0900714F085E0B8
:1023600005C08D331FE0910724F084E0809324049E
:1023700013C0873A2EE0920714F083E0F7CF813143
:102380009E4014F082E0F2CF6B378DE0780714F0B6
:1023900081E0ECCF1092240481E09091240491110B
:1023A00080E080932504072E000C880B990B0E9477
:1023B000CC1A23E333E343E550E40E94C51A87FFB8
:1023C000B4CC0E940D048DE692E09F938F9381E040
:1023D0008F930E949104809101018F93809100015D
:1023E0008F938CE792E09F938F9382E08F930E946C
:1023F00091049FEFE9E6F8E19150E040F040E1F709
:1024000000C000000E94100484E192E09F938F932B
:102410000E940C060F900F904ECC1F3309F0CDCDCB
:1024200001E312E091EBE92E94E0F92E1F930F9354
:102430002FEE31E03F932F930E940C060F900F90E8
:102440000F900F900E94DA058111FCCF005E1F4FA4
:10245000E016F10659F7A1CD133609F0AECD809103
:1024600023041F92F7C0183609F485C01B3609F003
:10247000A4CD8091E3031F928F9300E112E01F939C
:102480000F931FC11E3609F4A4C008F497C0123779
:1024900009F4A2C0143709F090CD0E94A2071F9240
:1024A0006F931F927F939F938F9386ED92E09F93FC
:1024B000C3C0193709F0E5CC0E949102609326044D
:1024C00070932704809328049093290466CD80910B
:1024D00029048F93809128048F93809127048F93F0
:1024E000809126048F9380ED92E09F938F9384C018
:1024F000C1010E945C0551CD61E02114310409F451
:1025000060E0609323048EE033C080912D048F93AC
:1025100080912C048F9380912B048F9380912A04B7
:102520008F9388E492E0E1CF60932A0470932B04A8
:1025300080932C0490932D0430CD6093E603709328
:10254000E7038093E8039093E90327CD8091E903A3
:102550008F938091E8038F938091E7038F9380910D
:10256000E603C0CF61E02114310409F460E088E0A3
:102570000E94B80312CDCE0181960E948B0A8AA1D7
:102580008F9389A199C081E02114310409F480E07E
:102590008093E30302CD3092E0032092DF03FDCC71
:1025A0008091E0038F938091DF038F9380E192E02D
:1025B0009F938F9386C020922F04EFCC80912F049D
:1025C0001F928F9380E1E82E82E0F82EFF92EF9227
:1025D00078C00E9468173DC0809120048F9380913D
:1025E0001F048F9380911E048F9380911D048F93FD
:1025F000E2E6F2E0FF93EF930E940C060F900F903B
:102600000F900F900F900F90C8CC8FE00E94EA02BD
:10261000882309F442C007E411E00E94D604F82E92
:10262000E92E0E94E6041F930F93EF92FF929F936F
:102630008F9389ED91E09F938F930E940C060FB6C4
:10264000F894DEBF0FBECDBFA8CC8091C40090919E
:10265000C5009F938F9320E132E03F932F9331C0C9
:102660002114310409F0ACCCA89518E188E20FB62A
:10267000F894A895109360000FBE8093600080E0EE
:102680000E946106A8958FE00FB6F894A895109364
:1026900060000FBE8093600080CC0CE411E0BDCFE1
:1026A0009FEF2916310411F008F090CC2092CA0354
:1026B00074CC8091CA031F928F93E0E1F2E0FF9304
:1026C000EF930E940C060F900F900F900F9065CC27
:1026D000A0E1B0E0EEE6F3E10C94E5167C011B010D
:1026E0006A01FC0117821682838181FF44C39E0127
:1026F0002F5F3F4F3901F7019381F10193FD8591E0
:1027000093FF81911F01882309F431C3853239F485
:1027100093FD859193FF81911F01853239F4B701B3
:1027200090E00E94BC1856016501E5CF10E0512CE5
:10273000912CFFE1F915D8F08B3279F038F4803222
:1027400079F08332A1F4F92DF0612EC08D3261F061
:10275000803369F4292D21602DC0392D3260932EEC
:10276000892D8460982E2AC0E92DE86015C097FC59
:102770002DC020ED280F2A3088F496FE06C03AE0DE
:10278000139F200D1124122F19C08AE0589E200D8E
:102790001124522EE92DE0629E2E10C08E3231F4AB
:1027A00096FCE5C2F92DF0649F2E08C08C3621F40A
:1027B000292D2068922E02C0883641F4F10193FD44
:1027C000859193FF81911F018111B3CF9BEB980FEE
:1027D000933020F4992D9061805E07C09BE9980F9B
:1027E000933008F066C1992D9F7E96FF16E09F7387
:1027F000992E853619F49064992E08C0863621F4F6
:10280000392F3068932E02C01111115097FE07C066
:102810001C3350F444244394410E27E00BC018307D
:1028200038F027E017E005C027E09CE3492E02C0FE
:10283000212F412C560184E0A80EB11CF6016081C5
:10284000718182819381042DA3010E949A176C01EA
:10285000F981FC87F0FF02C0F3FF06C091FC06C0BF
:1028600092FE06C000E205C00DE203C00BE201C00B
:1028700000E08C858C7019F001115AC29BC297FE42
:1028800010C04C0CFC85F4FF04C08A81813309F42C
:102890004A94141474F528E0241578F588E0482E3D
:1028A0002CC096FC2AC0812F90E08C159D059CF0D1
:1028B0003CEFC3163FEFD30674F0892D8068982E45
:1028C0000AC0E2E0F0E0EC0FFD1FE10FF11D808196
:1028D000803319F411501111F4CF97FE0EC0442427
:1028E0004394410E812F90E0C816D9062CF41C1990
:1028F00004C04424439401C010E097FE06C01C1499
:102900001D0434F4C601019605C085E090E002C0C4
:1029100081E090E001110196112331F0212F30E088
:102920002F5F3F4F820F931F252D30E082179307B3
:1029300014F4581A01C0512C892D897049F455207E
:1029400039F0B70180E290E00E94BC185A94F7CFAA
:10295000002329F0B701802F90E00E94BC1893FC5F
:1029600009C0552039F0B70180E390E00E94BC18FF
:102970005A94F7CF97FE4CC04601D7FE02C0812C77
:10298000912CC60188199909F301E80FF91FFE87F8
:10299000ED87960124193109388B2F87012F10E01C
:1029A0001195019511093FEF8316930629F4B7019C
:1029B0008EE290E00E94BC18C814D9044CF08F85B8
:1029C00098898815990524F4ED85FE85818101C0DB
:1029D00080E3F1E08F1A91082D853E852F5F3F4FF0
:1029E0003E872D87801691062CF0B70190E00E945B
:1029F000BC18D9CFC814D90441F49A81963320F475
:102A0000953319F43C8534FF81E3B70190E04EC063
:102A10008A81813319F09C859F7E9C87B70190E065
:102A20000E94BC18111105C094FC18C085E690E006
:102A300017C0B7018EE290E00E94BC181E5F82E0D2
:102A400001E0080FF301E80FF11D8081B70190E06C
:102A50000E94BC18802F0113F3CFE6CF85E490E0ED
:102A6000B7010E94BC18D7FC06C0C114D10441F4C0
:102A7000EC85E4FF05C0D194C194D1088DE201C07A
:102A80008BE2B70190E00E94BC1880E32AE0C216F6
:102A9000D1042CF08F5FFAE0CF1AD108F7CFB7013D
:102AA00090E00E94BC18B701C601C0960E94BC18F5
:102AB00054C1833631F0833779F0833509F056C03D
:102AC00020C0560132E0A30EB11CF601808189833B
:102AD00001E010E0630112C05601F2E0AF0EB11C3C
:102AE000F601C080D18096FE03C0612F70E002C065
:102AF0006FEF7FEFC6010E9482188C01F92DFF77DE
:102B000014C0560122E0A20EB11CF601C080D18093
:102B100096FE03C0612F70E002C06FEF7FEFC60129
:102B20000E9472188C01F92DF0689F2EF3FD1AC0D7
:102B3000852D90E008171907A8F4B70180E290E00E
:102B40000E94BC185A94F4CFF60197FC859197FE29
:102B500081916F01B70190E00E94BC1851105A9406
:102B6000015011090115110579F7F7C0843611F0EC
:102B7000893661F5560197FE09C024E0A20EB11C0A
:102B8000F60160817181828193810AC0F2E0AF0E0B
:102B9000B11CF60160817181072E000C880B990B26
:102BA000F92DFF769F2E97FF09C09095809570951F
:102BB00061957F4F8F4F9F4FF0689F2E2AE030E046
:102BC000A3010E94F818C82EC6183FC0092D8537EA
:102BD00021F40F7E2AE030E01DC0097F8F3691F08E
:102BE00018F4883559F0C3C0803719F0883711F0D0
:102BF000BEC0006104FF09C0046007C094FE08C0A5
:102C0000066006C028E030E005C020E130E002C0E8
:102C100020E132E0560107FF09C084E0A80EB11C94
:102C2000F601608171818281938108C0F2E0AF0E6C
:102C3000B11CF6016081718180E090E0A3010E94E7
:102C4000F818C82EC6180F77902E96FE0BC0092DC7
:102C50000E7FC11650F494FE0AC092FC08C0092DE4
:102C60000E7E05C0DC2C092D03C0DC2C01C0D12E4A
:102C700004FF0DC0FE01EC0DF11D8081803311F4C5
:102C8000097E09C002FF06C0D394D39404C0802FEC
:102C9000867809F0D39403FD11C000FF06C01C2DF7
:102CA000D51480F4150D1D190DC0D51458F4B701B5
:102CB00080E290E00E94BC18D394F7CFD51410F4B2
:102CC0005D1801C0512C04FF10C0B70180E390E0F3
:102CD0000E94BC1802FF17C001FD03C088E790E006
:102CE00002C088E590E0B7010CC0802F867859F0CB
:102CF00001FF02C08BE201C080E207FD8DE2B70157
:102D000090E00E94BC18C11638F4B70180E390E04F
:102D10000E94BC181150F7CFCA94F301EC0DF11DBD
:102D20008081B70190E00E94BC18C110F5CF15C09A
:102D3000F4E0F51560F584E0581A93FE1FC0011108
:102D400027C02C8523FF2AC004EB10E0392D3071F9
:102D5000932EF8018491811124C0552009F4E4CC0C
:102D6000B70180E290E00E94BC185A94F6CFF701B8
:102D70008681978126C08FEF9FEF23C0B70180E245
:102D800090E00E94BC185A945110F8CFD8CF512C23
:102D9000B701802F90E00E94BC18D3CF08EB10E061
:102DA000D5CF91108052B70190E00E94BC180F5F00
:102DB0001F4FCFCF23E0251510F483E0BDCF512C5A
:102DC000C0CF6096E2E10C9401172F923F924F9290
:102DD0005F926F927F928F929F92AF92BF92CF92AB
:102DE000DF92EF92FF920F931F93CF93DF93CDB7B4
:102DF000DEB7CA1BDB0B0FB6F894DEBF0FBECDBF2C
:102E000009942A88398848885F846E847D848C84FC
:102E10009B84AA84B984C884DF80EE80FD800C8105
:102E20001B81AA81B981CE0FD11D0FB6F894DEBFE8
:102E30000FBECDBFED0108958F929F92AF92BF92CA
:102E4000CF92DF92EF92FF92CF93DF93EC016881F4
:102E500079818A819B81611571058105910521F434
:102E600064E279ED8BE597E02DE133EF41E050E04E
:102E70000E94141C49015A019B01AC01A7EAB1E46C
:102E80000E94331C6B017C01ACEEB4EFA5019401F0
:102E90000E94411CDC01CB018C0D9D1DAE1DBF1D90
:102EA000B7FF03C00197A109B04888839983AA831B
:102EB000BB839F77DF91CF91FF90EF90DF90CF9012
:102EC000BF90AF909F908F9008950E941C17089517
:102ED00085E091E00E941C170895A0E0B0E0809387
:102EE000050190930601A0930701B093080108958E
:102EF000662777270C945619FC0188279927E894B0
:102F000021912032E9F3293010F02E30C8F32B3212
:102F100041F02D3239F4689404C00E94B418820F35
:102F2000911D219120532A30C0F31EF49095819574
:102F30009F4F0895283008F027E03327DA01990FD2
:102F4000311D87FD916000966105710539F432608D
:102F50002E5F3D9330E32A95E1F708959F3F30F0CF
:102F600080387105610509F03C5F3C5F3D9391300D
:102F700008F08068911DDF93CF931F930F93FF920A
:102F8000EF92192F987F9695E92F96959695E90FD0
:102F9000FF27EA5EFE4F99273327EE24FF24A7017F
:102FA000E70105900894079428F4360FE71EF81EF1
:102FB000491F511D660F771F881F991F0694A1F79F
:102FC0000590079428F4E70EF81E491F561FC11DEF
:102FD000770F881F991F661F0694A1F70590079425
:102FE00028F4F80E491F561FC71FD11D880F991FBF
:102FF000661F771F0694A1F70590079420F4490FE8
:10300000561FC71FD81F990F661F771F881F06946A
:10301000A9F784911095177041F0D695C7955795EB
:103020004795F794E7941A95C1F7ECEBF0E06894B4
:103030001590159135916591959105907FE2739565
:10304000E118F10A430B560BC90BD009C0F7E10C8C
:10305000F11E431F561FC91FD01D7EF4703311F49B
:103060008A95E6CFE894015030F0080F0AF4002763
:10307000021708F4202F2395022F7A3328F079E3E2
:103080007D932A95E9F710C07D932A9589F60694D9
:1030900097956795379517951794E118F10A430BA3
:1030A000560BC90BD00998F023957E9173957A330E
:1030B00008F070E37C932013B8F77E9170617D93E4
:1030C00030F0839571E37D9370E32A95E1F7112445
:1030D000EF90FF900F911F91CF91DF91992787FD7E
:1030E00090950895FC010590615070400110D8F74B
:1030F000809590958E0F9F1F089547E355E00E949D
:103100008D180895FC016150704001900110D8F7AE
:10311000809590958E0F9F1F0895FA01A191B0811F
:10312000009719F41097E1F0CD01DC01CD010D906D
:10313000002011F4C00113C0FB012191222319F0DA
:103140002015D9F7F3CFFB012191201519F41E9218
:10315000119606C02223C1F70D900020A1F7D001DF
:10316000FA01A193B08308957AE0979F902D879FED
:10317000802D910D112408950F931F93CF93DF930A
:10318000FB01238121FD03C08FEF9FEF2CC022FFA5
:1031900016C046815781248135814217530744F474
:1031A000A081B1819D012F5F3F4F318320838C939C
:1031B000268137812F5F3F4F3783268314C08B01D1
:1031C000EC01FB010084F185E02D0995892BE1F6E6
:1031D000D80116968D919C911797019617969C93FE
:1031E0008E931697CE01DF91CF911F910F91089585
:1031F000FA01AA27283051F1203181F1E8946F9328
:103200006E7F6E5F7F4F8F4F9F4FAF4FB1E03ED0CD
:10321000B4E03CD0670F781F891F9A1FA11D680F6B
:10322000791F8A1F911DA11D6A0F711D811D911D9E
:10323000A11D20D009F468943F912AE0269F112413
:103240003019305D3193DEF6CF010895462F477077
:10325000405D4193B3E00FD0C9F7F6CF462F4F70D2
:10326000405D4A3318F0495D31FD4052419302D030
:10327000A9F7EACFB4E0A6959795879577956795D6
:10328000BA95C9F700976105710508959B01AC01D6
:103290000A2E06945795479537952795BA95C9F7FD
:1032A000620F731F841F951FA01D0895A0E0B0E05A
:1032B000ECE5F9E10C94EB16EC016B01611571057D
:1032C00019F0FB01918380837E01FFEFEF1AFF0A63
:1032D0000881802F90E00E94A41A892B11F0E70149
:1032E000F3CF0D3239F47E0182E0E80EF11C098142
:1032F00011E008C00B3229F47E0192E0E90EF11CC6
:10330000098110E0E701219743E050E06EEB71E0A6
:10331000CE010E94AD1A892BC1F4239645E050E0FE
:1033200069EB71E0CE010E94AD1A892B09F4259654
:10333000C114D10419F0F601D183C0831111F6C074
:1033400060E070E080E89FE7FAC043E050E066EBA1
:1033500071E0CE010E94AD1A892B59F4C114D10439
:1033600009F4E9C0F2E0EF0EF11CF601F182E0820F
:10337000E2C020E030E0A901C0E0D0E0F70180ED3C
:10338000A82EA00E89E08A1530F1912F9260B92EF7
:10339000812F887012FF04C0811124C0219622C0A1
:1033A00081112197A5E0B0E00E94331CDC01CB0124
:1033B000880F991FAA1FBB1F9C01AD012A0D311D4B
:1033C000411D511D283989E93807480789E1580707
:1033D00048F0166006C09EEFA9120AC013FD40C057
:1033E0001860B12E8FEFE81AF80A00811B2DC6CFA6
:1033F000802F8F7D8534A1F580818D3211F410618D
:1034000006C08B3221F0319661E070E004C081810A
:10341000329662E070E080538A3018F0E61BF70BBA
:103420001FC060E070E060389CE079075CF4DB016D
:10343000AA0FBB1FAA0FBB1F6A0F7B1F660F771F48
:10344000680F711D3196DF0111978C9180538A307E
:1034500050F314FF03C0719561957109C60FD71F12
:1034600011FF08C0C114D10429F0CF010197F60162
:1034700091838083CA01B9010E94CA1A212F237047
:10348000233019F04B015C0106C04B015C01B7FA17
:10349000B094B7F8B09420E030E0A901C501B401C0
:1034A0000E94C51A882309F43EC0D7FF06C0D195F3
:1034B000C195D10905ED11E002C00DEE11E06801E2
:1034C000F8E1CF1AD10890E2E92EF12CCE15DF05F4
:1034D00074F0F8012591359145915491C501B401DD
:1034E0000E942B1B4B015C01CE19DF09EFCF04506A
:1034F0001109F594E7940C151D0541F78A2D880FE5
:103500008B2D881F8F3F49F020E030E0A901C501D5
:10351000B4010E94C51A811106C082E290E0909326
:103520003A0580933905C501B40109C060E070E037
:1035300080E89FEF04C060E070E080EC9FE7CDB7CB
:10354000DEB7ECE00C94071791110C94981B8032B5
:1035500019F089508550C8F70895FB01DC014150EE
:10356000504088F08D9181341CF08B350CF4805ED6
:10357000659161341CF06B350CF4605E861B611143
:1035800071F3990B0895881BFCCF0E94071B08F468
:1035900081E00895E89409C097FB3EF490958095EA
:1035A000709561957F4F8F4F9F4F9923A9F0F92F09
:1035B00096E9BB279395F695879577956795B79587
:1035C000F111F8CFFAF4BB0F11F460FF1BC06F5F6D
:1035D0007F4F8F4F9F4F16C0882311F096E911C07F
:1035E000772321F09EE8872F762F05C0662371F0A0
:1035F00096E8862F70E060E02AF09A95660F771FB4
:10360000881FDAF7880F9695879597F90895990F8F
:103610000008550FAA0BE0E8FEEF16161706E8079C
:10362000F907C0F012161306E407F50798F0621BBD
:10363000730B840B950B39F40A2661F0232B242B92
:10364000252B21F408950A2609F4A140A6958FEFB1
:10365000811D811D08950E943E1B0C94B21B0E9487
:10366000A41B38F00E94AB1B20F0952311F00C94A2
:103670009B1B0C94A11B11240C94E61B0E94C31BE2
:1036800070F3959FC1F3950F50E0551F629FF001B5
:10369000729FBB27F00DB11D639FAA27F00DB11DCE
:1036A000AA1F649F6627B00DA11D661F829F222757
:1036B000B00DA11D621F739FB00DA11D621F839FDE
:1036C000A00D611D221F749F3327A00D611D231FB4
:1036D000849F600D211D822F762F6A2F11249F5702
:1036E00050409AF0F1F088234AF0EE0FFF1FBB1F05
:1036F000661F771F881F91505040A9F79E3F5105C4
:1037000080F00C949B1B0C94E61B5F3FE4F3983E07
:10371000D4F3869577956795B795F795E7959F5F6D
:10372000C1F7FE2B880F911D9695879597F90895FF
:1037300099278827089597F99F6780E870E060E0EF
:1037400008959FEF80EC089500240A94161617063A
:1037500018060906089500240A9412161306140682
:1037600005060895092E0394000C11F4882352F0E5
:10377000BB0F40F4BF2B11F460FF04C06F5F7F4F9D
:103780008F4F9F4F089557FD9058440F551F59F084
:103790005F3F71F04795880F97FB991F61F09F3F3E
:1037A00079F087950895121613061406551FF2CF67
:1037B0004695F1DF08C0161617061806991FF1CFB7
:1037C00086957105610508940895E894BB276627DE
:1037D0007727CB0197F90895F999FECF92BD81BD66
:1037E000F89A992780B50895262FF999FECF92BDB2
:1037F00081BDF89A019700B4021639F01FBA20BDB6
:103800000FB6F894FA9AF99A0FBE0895262FF999EF
:10381000FECF1FBA92BD81BD20BD0FB6F894FA9AB3
:10382000F99A0FBE01960895052E97FB1EF4009499
:103830000E942B1C57FD07D00E94461C07FC03D09A
:103840004EF40C942B1C50954095309521953F4F8C
:103850004F4F5F4F089590958095709561957F4F7C
:103860008F4F9F4F08950E94681CA59F900DB49F95
:10387000900DA49F800D911D11240895B7FF0C9405
:10388000331C0E94331C821B930B0895A1E21A2E55
:10389000AA1BBB1BFD010DC0AA1FBB1FEE1FFF1FF4
:1038A000A217B307E407F50720F0A21BB30BE40B44
:1038B000F50B661F771F881F991F1A9469F760958B
:1038C0007095809590959B01AC01BD01CF01089545
:1038D000A29FB001B39FC001A39F700D811D112451
:1038E000911DB29F700D811D1124911D0895505896
:1038F000BB27AA270E948F1C0C94B21B0E94A41BFA
:1039000038F00E94AB1B20F039F49F3F19F426F4E5
:103910000C94A11B0EF4E095E7FB0C949B1BE92F84
:103920000E94C31B58F3BA176207730784079507F1
:1039300020F079F4A6F50C94E51B0EF4E0950B2E1F
:10394000BA2FA02D0B01B90190010C01CA01A001F1
:103950001124FF27591B99F0593F50F4503E68F14C
:103960001A16F040A22F232F342F4427585FF3CF8D
:10397000469537952795A795F0405395C9F77EF45E
:103980001F16BA0B620B730B840BBAF09150A1F0A7
:10399000FF0FBB1F661F771F881FC2F70EC0BA0F2D
:1039A000621F731F841F48F4879577956795B795B5
:1039B000F7959E3F08F0B0CF9395880F08F09927B0
:1039C000EE0F9795879508950E94F81C0C94B21BF2
:1039D0000E94AB1B58F00E94A41B40F029F45F3FEB
:1039E00029F00C949B1B51110C94E61B0C94A11B09
:1039F0000E94C31B68F39923B1F3552391F3951BE0
:103A0000550BBB27AA2762177307840738F09F5FFF
:103A10005F4F220F331F441FAA1FA9F335D00E2E6C
:103A20003AF0E0E832D091505040E695001CCAF7D9
:103A30002BD0FE2F29D0660F771F881FBB1F26179C
:103A400037074807AB07B0E809F0BB0B802DBF0173
:103A5000FF2793585F4F3AF09E3F510578F00C9442
:103A60009B1B0C94E61B5F3FE4F3983ED4F38695D2
:103A700077956795B795F7959F5FC9F7880F911D63
:103A80009695879597F90895E1E0660F771F881F4F
:103A9000BB1F621773078407BA0720F0621B730B02
:103AA000840BBA0BEE1F88F7E0950895BEE304D0AF
:103AB00008F490E80895BFE322273327A9010E9464
:103AC000CB1B60F19F5748F1B91740F1BFE3B91B19
:103AD0009927B8503AF4660F771F881F991FB3953E
:103AE000D2F316C0B8504AF0232F342F452F562F4B
:103AF000672F782F8827B850BAF7B85F49F08695B6
:103B0000779567955795479537952795BA95B9F75E
:103B100016F40E94FF1D88940895889460E070E078
:103B2000CB0108950E94CB1B88F09F5798F0B92FC6
:103B30009927B751B0F0E1F0660F771F881F991FE2
:103B40001AF0BA95C9F714C0B13091F00E94E51B84
:103B5000B1E008950C94E51B672F782F8827B85F94
:103B600039F0B93FCCF3869577956795B395D9F73A
:103B70003EF490958095709561957F4F8F4F9F4F44
:103B80000895E894F92F96EBFF2381F0121613069F
:103B90001406440B9395F6958795779567955795F9
:103BA0004040FF23B9F71BC099270895882351F49B
:103BB0009850D2F7872B762F652F542F432F322F13
:103BC00020E0B1F3121613061406440B88233AF0D2
:103BD0009A95440F551F661F771F881FCAF75523F4
:103BE0004AF4440F551F11F460FF04C06F5F7F4F0C
:103BF0008F4F9F4F880F9695879597F908959095C9
:103C000080957095609550954095309521953F4FE2
:103C10004F4F5F4F6F4F7F4F8F4F9F4F08950E94C1
:103C2000CB1BE8F09E37E8F09639B8F49E3848F49C
:103C3000672F782F8827985FF9CF869577956795B6
:103C400093959539D0F3B62FB1706B0F711D811D0F
:103C500020F487957795679593950C94331E0C9473
:103C60004E1E0C94E61B882371F4772321F09850A4
:103C7000872B762F07C0662311F499270DC090512A
:103C8000862B70E060E02AF09A95660F771F881FF8
:103C9000DAF7880F9695879597F908959F3F31F049
:103CA000915020F4879577956795B795880F911D6A
:103CB0009695879597F908952A0D3B1D4C1D5D1D1E
:103CC0006E1D7F1D801F911F0895AEE0B0E0EBE6F2
:103CD000FEE10C94F3168C01FA0186E08C831A83C2
:103CE000098377FF02C060E070E8CB0101979E83F3
:103CF0008D83A901BF01CE0101960E9468134D81F9
:103D00005E8157FD0AC02F813885421753070CF496
:103D10009A01F801E20FF31F10822E96E4E00C9452
:063D20000F17F894FFCF1D
:103D2600FFFF01050F01000000391C5269743801BC
:103D3600060000003F0000803F000000400000A099
:103D46004000000000CDCC4C3ECDCCCC3DCDCC4C83
:103D56003D53687574646F776E2E2E004F4B2100AD
:103D66004552524F52210066756C6C006368617251
:103D760067696E6700322E3100322E30004F53498C
:103D860052495320485720762573204657207625DA
:103D9600730A00496E69742E2E0A004F5349524920
:103DA6005300485720762573204657207625730002
:103DB600554152542063616C2E2E004144432046E7
:103DC60041554C54202121005265616479210A0035
:103DD600456E74657220273F2720666F72206865DE
:103DE6006C702E0A004545505B3078253032585DA0
:103DF6003D3078253032580A00567379733D257563
:103E06002C20566261743D25752C2025730A0025E9
:103E1600530A00253032753A253032753A2530324C
:103E26007520004856204641554C5420212121201A
:103E360025750A004445544543544F522046415582
:103E46004C54202121210A004465746563746F7205
:103E5600207265636F76657265642E2E0A00252EC4
:103E660033667553762F6820252E34667553760A89
:103E760000446F7365205261746520416C657274ED
:103E86002120252E33667553762F680A0042415449
:103E96005445525920454D5054592100566261747B
:103EA6003D2575004B45593A2025640A0052544376
:103EB600204641554C542021210048562046415564
:103EC6004C54202121004F4B0A00554E4B4E4F5764
:103ED6004E202D20273F27202D3E2068656C700A36
:103EE600004552524F520A0044454E4945440A0085
:103EF600252E33660A00253032753A253032753A5A
:103F0600253032750A004F4B004552524F5200552C
:103F16004152542063616C6962726174696F6E2EDE
:103F26002E20002573210A665F72633A20256C7580
:103F36002C20554252523A2025750A00446F73656B
:103F460020526174653A00252E33667553762F68C4
:103F560000252E32667553762F6800252E3166753C
:103F660053762F6800252E32666D53762F680054DF
:103F76006F74616C20446F73653A00252E33667545
:103F8600537600252E326675537600252E316675DA
:103F9600537600252E32666D53760054696D653A68
:103FA60000253032753A253032753A2530327500A3
:103FB600566F6C74616765733A0056733D252E32F1
:103FC600662056623D252E326600416C61726D2078
:103FD6004C766C3A004F6666005241442046415585
:083FE6004C54202121210000B0
:00000001FF
