:100000000C947A010C9474080C94AA080C9497012F
:100010000C94BC080C941A080C9497010C94E407F7
:100020000C9477090C94CE080C9497010C949701CA
:100030000C9497010C9497010C9497010C949701E0
:100040000C9497010C9497010C9455090C94280971
:100050000C9497010C9497010C9497010C949701C0
:100060000C9497010C9497010C9497010C949701B0
:100070000C9497010C9497010C9497010C949701A0
:100080000C9497010C9497010C9497010C94970190
:100090000C9497010C9497010C9497010C94970180
:1000A0000C9497010C9497010C9497010C94970170
:1000B0000C9497016E616E00696E66000A1F111143
:1000C0001111111F0A1F111111111F1F0A1F1111E8
:1000D000111F1F1F0A1F11111F1F1F1F0A1F111F92
:1000E0001F1F1F1F0A1F1F1F1F1F1F1F0204081F84
:1000F0000204082007040704041F111F636D642015
:10010000666F726D61743A2078202D3E20676574A9
:10011000207800007831202D3E2073657420783DD2
:10012000312E20636D64733A0000000061202D20A1
:10013000616C61726D206C6576656C00000000007A
:100140000000000062202D206265657020656D69E9
:1001500074000000000000000000000063202D205B
:10016000636C69636B65722073657474696E670094
:100170000000000064202D20646F736520746F748C
:10018000616C0000000000000000000065202D20D0
:10019000454550524F4D20722F7720402058000087
:1001A0000000000066202D2066696C746572206670
:1001B0006163746F720000000000000068202D2051
:1001C0006869676820766F6C74616765000000007D
:1001D000000000006B202D206B657920646562753E
:1001E0006767696E67000000000000006C202D202A
:1001F0006C6F6767696E6720696E74657276616C93
:10020000000000006D202D206D6F6465207669650B
:100210007700000000000000000000006E202D208C
:100220006E756D6265722072616E646F6D000000A4
:100230000000000072202D207261746520646F73CD
:1002400065000000000000000000000073202D2069
:1002500073687574646F776E000000000000000022
:100260000000000074202D2074696D6500000000FE
:1002700000000000000000000000000075202D209C
:10028000554152542063616C6962726174696F6E8A
:100290000000000076202D20766F6C746167652069
:1002A0006D656173757265000000000078202D2077
:1002B000454550524F4D2061646472657373000070
:1002C000000000007A202D20726573657420737918
:1002D0007374656D00000000000000000E7243475B
:1002E000161A1E4024286C10744B2105696D115597
:1002F00002660A0011241FBECFEFD8E0DEBFCDBFDB
:1003000013E0A0E0B1E0E6EBFAE302C005900D9245
:10031000A43EB107D9F725E0A4EEB3E001C01D92D9
:10032000A835B207E1F70E94A2090C948A1C0C942C
:10033000030980917A00806480937A0080917A002A
:1003400086FDFCCF80917800909179000895CF923E
:10035000DF92EF92FF92CF9390917C00907F9093E9
:100360007C0090917C00982B90937C0090917A0077
:10037000906890937A0090910401891721F08093FE
:1003800004010E949901C0E1E12CF12C67010E9457
:100390009901C80ED91EE11CF11CC150C1F7809112
:1003A0007A008F7780937A00C601D70124E0B69552
:1003B000A795979587952A95D1F7CF91FF90EF90C4
:1003C000DF90CF9008958EE00E94A7019C0140E04D
:1003D00050E064EB7BE281E190E00E94681CC9017F
:1003E000089587E00E94A7019C01A8E8B3E10E945C
:1003F000591C2FEF33E040E050E00E94681CC90117
:100400000895FC0181E090E09C0101C0220F6A95F3
:10041000EAF7622F8081411519F0822B80830895BD
:100420006095682360830895462FE82FF0E0E4523A
:10043000FD4F6491962F9370669566956770913025
:1004400020F484E290E00C94010219F487E290E039
:10045000FACF923019F48AE290E0F5CF8DE290E085
:10046000F2CF462FE82FF0E0E452FD4F6491962F33
:100470009370669566956770913020F485E290E000
:100480000C94010219F488E290E0FACF923019F44A
:100490008BE290E0F5CF8EE290E0F2CFF894A89551
:1004A00088E198E00FB6F894A895809360000FBE9D
:1004B00090936000FFCFF89483B7817F866083BFFD
:1004C00083B7816083BF7894889583B78E7F83BF1D
:1004D0000895CF93DF9300D0CDB7DEB76091390593
:1004E00070913A0580913B0590913C05209129053A
:1004F00030912A0540912B0550912C05620F731FF6
:10050000841F951F20E13EE040E050E00E942F1C38
:1005100029833A832CE330E040E050E00E942F1C16
:10052000722F89819A810F900F90DF91CF9108955A
:1005300090911005981719F1809310058115C1F05D
:100540001092E5041092E40410920E0510920D052D
:100550008091C00080648093C0008091C0008F7E35
:100560008093C0008091C10088698093C100089584
:100570008091C100877C8093C1001092E6040895A9
:100580008091E604811551F09091C10095FD07C05E
:100590009091C00096FF03C01092E60480E0089599
:1005A0000F931F93CF93DF93CDB7DEB7C054D1091C
:1005B0000FB6F894DEBF0FBECDBF80911005811538
:1005C00041F181E08093E6048E010F5F1F4F80E4CC
:1005D000F80111928A95E9F79E01275B3F4F299612
:1005E0004EAD5FAD299760E470E0C8010E94DA1B50
:1005F00080E0F801E80FF11D9081911116C0809103
:10060000C00080648093C0008091C10080628093AC
:10061000C100C05CDF4F0FB6F894DEBF0FBECDBF88
:10062000DF91CF911F910F9108958F5FE091E404C6
:1006300021E02E0F2093E404F0E0EC51FC4F908376
:100640009091E4049093E404D4CFFC011092EA0466
:100650001092E90490916C00906190936C0082E09C
:100660008BBB909168009260909368002FEF80E7B9
:1006700092E0215080409040E1F700C0000090914E
:1006800068009D7F90936800309731F08091E90475
:100690009091EA04808391838091E9049091EA0427
:1006A0000B9740F02091E9043091EA0481E0243F67
:1006B000314008F080E0089581111FC086E00E945B
:1006C0002704811102C00E9461042FE788E391E0B2
:1006D000215080409040E1F700C0000060E089E0D8
:1006E0000E947E032FEF81EE94E0215080409040E5
:1006F000E1F700C00000A895E1CF0895CF93DF9304
:1007000000D0CDB7DEB789836A83E82FF0E0E452EA
:10071000FD4F849185FB882780F90E945C036A81E4
:1007200089810F900F90DF91CF910C943102CF937C
:10073000DF93C82F60E081E10E947E03D8E0C7FB11
:10074000662760F98AE00E947E0360E08CE00E94E8
:100750007E03CC0F61E08CE00E947E03D15079F7DC
:1007600061E081E10E947E0380E58A95F1F7DF91E7
:10077000CF910895CF93DF930F92CDB7DEB78983E2
:1007800060E080E10E947E0389810E949703898155
:10079000843030F48FE698E00197F1F700C0000054
:1007A0000F90DF91CF91089581E00C94BA03CF931D
:1007B000DF930F92CDB7DEB7898361E080E10E94BD
:1007C0007E0389810F90DF91CF910C9497030F9353
:1007D0001F93CF93DF93CDB7DEB761970FB6F89431
:1007E000DEBF0FBECDBF988D911559F081E09230DC
:1007F00009F080E08295880F880F807C80580E94E5
:10080000BA038E010F5F1F4F81E1F80111928A95A3
:10081000E9F79E01255E3F4F498D5A8D61E170E0F9
:10082000C8010E94DA1BF801808181110BC061961A
:100830000FB6F894DEBF0FBECDBFDF91CF911F91F1
:100840000F9108950F5F1F4F0E94D703ECCFCF93F6
:10085000E82FF0E0E452FD4FC4918827C5FF83954F
:100860000E945C038C2F83702C2F26952695277071
:10087000813050F483B190E002C0959587952A9518
:10088000E2F78170CF91089511F486B1F4CF8230F0
:1008900011F489B1F0CF8CB1EECFCF9386E00E94F6
:1008A0002704C82F85E00E942704C195C470880FD3
:1008B000C82B84E00E9427048C2B97E08927CF91D6
:1008C000089581E391E09F938F930E94D0020F904F
:1008D0000F900E94C0028111FCCF0E94D40380912E
:1008E000EC048B7F8093EC040E94BA0360E089E003
:1008F0000E947E0360E08EE00E947E0360E081E063
:100900000E947E03A8950FB6F894A8958091600088
:10091000886180936000109260000FBE8091EB04AC
:10092000811102C0F894FFCF80E00E949802E898FD
:1009300060E088E00E947E03E998809168008D7FE6
:1009400080936800809170008E7F8093700080910A
:1009500070008B7F80937000809170008D7F8093FA
:1009600070008091B6008F7D8093B60080917000FA
:100970008D7F8093700080916D008F7980936D00E2
:1009800086E00E9427048115D9F32FEF80E792E0DB
:10099000215080409040E1F700C000000E945B02BF
:1009A0000E944E0281E00E945C0385B194E0892799
:1009B00085B90895FF920F931F93CF93DF9300D0D3
:1009C00000D000D0CDB7DEB7F090340500913505EA
:1009D00010913605209137052E830E9469026983A4
:1009E0007A838B839C8380914C058D838091010158
:1009F000982F990F990B2D812817190639F00E940D
:100A0000D40380914C058D83809301019D819330A7
:100A100009F49AC100F5913009F49DC0923031F586
:100A20008CE991E09F938F9381E08F930E94E7037D
:100A30001F9299819F931F922A812F938C818F936C
:100A40009B819F9382EA91E09F938F932D812F93B7
:100A50000E94E703AEC02D81243009F435C1263051
:100A600009F4A2C180E00E945C03A8C08DE391E07C
:100A70009F938F9381E08F930E94E7030F900F90D5
:100A80000F9020E030E040E251E46F2D702F812F75
:100A90009E810E94DC1A87FF25C08E818F931F9351
:100AA0000F93FF9288E491E09F938F9382E08F935E
:100AB0000E94E7030FB6F894DEBF0FBECDBF8AECED
:100AC0000E94BA0380914E05811509F477C083EE28
:100AD00091E09F938F931F920E94E7030F900F90D6
:100AE0000F906CC020E030E048EC52E46F2D702F86
:100AF000812F9E810E94DC1A87FF08C09E819F93F0
:100B00001F930F93FF9282E591E0CECF20E030E07B
:100B10004AE754E46F2D702F812F9E810E94DC1ACA
:100B200087FF08C09E819F931F930F93FF928CE5D0
:100B300091E0BACF20E030E04AE754E46F2D702F07
:100B4000812F9E810E944B129F938F937F936F936F
:100B500086E691E0A9CF80E791E09F938F939D81F6
:100B60009F930E94E70300912D0510912E0520917F
:100B70002F052A838091300589830F900F900F9065
:100B800020E030E040E251E4B801982F8A810E94D1
:100B9000DC1A87FF61C099819F932A812F931F934D
:100BA0000F938CE791E09F938F9382E08F930E9445
:100BB000E7030FB6F894DEBF0FBECDBF80913D05B1
:100BC000811509F4F7C08091000191E08927809395
:100BD00000018111F2C090E299838FE80E94BA036C
:100BE00089810E94D70386E10E942704811531F094
:100BF0008EE80E94BA0386E00E94D70380914105E7
:100C0000811531F08DE80E94BA0383E60E94D70374
:100C100080914F05811531F08CE80E94BA0387E07E
:100C20000E94D70380914C058111E6C080914B054D
:100C3000813008F0C6C08FEC0E94BA0386E40F90A2
:100C40000F900F900F900F900F90DF91CF911F9109
:100C50000F91FF900C94D70320E030E048EC52E471
:100C6000B8018A8199810E94DC1A87FF09C09981A5
:100C70009F932A812F931F930F9384E891E093CF42
:100C800020E030E04AE754E4B8018A8199810E946B
:100C9000DC1A87FF09C099819F932A812F931F93A4
:100CA0000F938CE891E07FCF20E030E04AE754E4F6
:100CB000B8018A8199810E944B129F938F937F93F1
:100CC0006F9384E991E06FCF0E94E301BC0180E063
:100CD00090E00E94E11A20E030E04AE754E40E94EC
:100CE0004B126C837D83182F092F0E94F101BC01E8
:100CF00080E090E00E94E11A20E030E04AE754E40E
:100D00000E944B12F62E79838A839B8381EB91E0BC
:100D10009F938F9381E08F930E94E7039B819F9322
:100D20002A812F9389818F93FF920F931F939D8127
:100D30009F932C812F938BEB91E09F938F9382E075
:100D40008F930E94E70335CF8BEC91E09F938F93B5
:100D500081E08F930E94E70390914205998320914F
:100D600043052A8310914405009145050F900F908B
:100D70000F9040E050E09A01692F7A81812F902FE7
:100D80000E94DC1A811549F00F931F938A818F937B
:100D900099819F938CE591E006CF86ED91E09F933A
:100DA0008F9382E08F9398CE8AED91E09F938F93FB
:100DB00081E0F8CF81E08093000120913F052983F5
:100DC0000CCF29F48FEC0E94BA038DE438CF823027
:100DD00029F48FEC0E94BA0383E531CF80E00F90B5
:100DE0000F900F900F900F900F90DF91CF911F9168
:100DF0000F91FF900C945C038FEC0E94BA0380E289
:100E00001ECFCF93DF93EC0161E089E00E947E0367
:100E1000BE0180E090E00E94E11A20E030E04AE765
:100E200050E40E944B120E946811C091B2000E94CF
:100E3000F9126C0F6093B40084E087BBE0E7F0E048
:100E4000808184608083DF91CF910895CF93DF9379
:100E500000D0CDB7DEB78A83698380528430D8F45E
:100E60000E94C0028111FCCF2A81822F90E09093D2
:100E7000C5008093C4008981811539F0F999FECFAE
:100E80006A8180E090E00E940F1C81E00F900F903B
:100E9000DF91CF91089580E0F9CFCF93DF9300D019
:100EA00000D000D0CDB7DEB78D8381EF91E09F9366
:100EB0008F930E94D002809170008E7F809370008B
:100EC0003091810010928100109285001092840070
:100ED0000F900F90B89BFECF81E087BB809181007F
:100EE000846080938100B89BFECF21E027BB809176
:100EF00081008B7F8093810080917000816080935E
:100F00007000809184009091850019828A839B8370
:100F10001C82309381008091390590913A05A0910F
:100F20003B05B0913C050296A11DB11D809339058A
:100F300090933A05A0933B05B0933C05209312058E
:100F400069817A818B819C810E94E11A20E030E0E6
:100F500041E658E40E944B1220E030E040E85FE3B5
:100F60000E94DE110E9468110E94F9126E836D8149
:100F70008E810E9426078D83811519F188EE91E0FC
:100F80001F925E815F936C816F937B817F932A8137
:100F90002F931F929F938F9385E092E09F938F935F
:100FA0000E94D0020FB6F894DEBF0FBECDBF8D8178
:100FB0000F900F900F900F900F900F90DF91CF91A7
:100FC00008958BEE91E0DCCF1F920F920FB60F9237
:100FD00011242F933F934F935F936F937F938F933E
:100FE0009F93AF93BF93EF93FF930E944D04209183
:100FF0005305909152058223880F880F880F892B03
:1010000080935205E0E7F0E080818D7F808310922D
:101010005305FF91EF91BF91AF919F918F917F9178
:101020006F915F914F913F912F910F900FBE0F9055
:101030001F9018951F920F920FB60F9211242F93A5
:101040003F934F935F936F937F938F939F93AF9350
:10105000BF93EF93FF930E944D0490915105282F69
:101060002927309153059323922380935105309182
:101070005305311116C0822382FD32C081FD32C07A
:10108000811579F081E0809353058091B200815001
:101090008093B30082E087BB809170008260809370
:1010A0007000911561F0809170008D7F80937000C9
:1010B0001092530580915205982B90935205FF9101
:1010C000EF91BF91AF919F918F917F916F915F91C0
:1010D0004F913F912F910F900FBE0F901F90189539
:1010E00084E0D1CF82E0CFCF1F920F920FB60F9244
:1010F00011242F933F934F935F936F937F938F931D
:101100009F93AF93BF93CF93EF93FF9386E10E949A
:101110002704C82F8091EB0490E0C817190641F00E
:101120008C2F0E949802C093EB0481E080935005BD
:10113000FF91EF91CF91BF91AF919F918F917F914F
:101140006F915F914F913F912F910F900FBE0F9034
:101150001F9018958F938FB78F939F938091E7047B
:101160009091E80401969093E8048093E7049F919E
:101170008F918FBF8F9118958F938FB78F939F9378
:101180008091E9049091EA0401969093EA04809397
:10119000E9049F918F918FBF8F9118951F921FB671
:1011A0001F9211242F933F938F939F93AF93BF93DD
:1011B0008091390590913A05A0913B05B0913C058D
:1011C0000196A11DB11D8093390590933A05A09316
:1011D0003B05B0933C0581E0809312058FB7F894EE
:1011E0002091E7043091E8042093270530932805E7
:1011F0008FBFBF91AF919F918F913F912F911F9082
:101200001FBE1F9018951F920F920FB60F921124B8
:101210002F933F934F935F936F937F938F939F93FE
:10122000AF93BF93EF93FF9380E00E945C03FF9125
:10123000EF91BF91AF919F918F917F916F915F914E
:101240004F913F912F910F900FBE0F901F901895C7
:101250008F938FB78F939F93EF93FF938091C000ED
:1012600080648093C000E091E50481E08E0F80935C
:10127000E504F0E0EC51FC4F80818093C600809142
:10128000E5048093E5049091E5048091E4049813CB
:1012900005C08091C1008F7D8093C100FF91EF91C7
:1012A0009F918F918FBF8F9118958F938FB78F9349
:1012B000EF93FF938091C0008295817080930F051A
:1012C000E0910D0581E08E0F80930D05F0E0809197
:1012D000C600E351FB4F808380910D058F71809391
:1012E0000D05FF91EF918F918FBF8F9118951F92F0
:1012F0000F920FB60F9211242F933F934F935F934A
:101300006F937F938F939F93AF93BF93EF93FF93CD
:10131000E0E7F0E080818B7F808360E089E00E94DD
:101320007E03FF91EF91BF91AF919F918F917F913C
:101330006F915F914F913F912F910F900FBE0F9042
:101340001F901895CDB7DEB7A9970FB6F894DEBFFA
:101350000FBECDBF14BEA89588E199E20FB6F894F0
:10136000A895809360000FBE9093600000E010E0AD
:10137000F801E452FD4FF490F5FAEE24E0F86E2DFA
:10138000802F0E941402F6FAFF24F0F8E11051C1F8
:1013900081E00E945C036F2D802F0E9431020F5F5D
:1013A0001F4F0731110521F761E089E00E947E039C
:1013B0002FEF30E742E0215030404040E1F700C0DD
:1013C000000060E089E00E947E0386E10E9427041D
:1013D0008093EB049091EB0481E0911101C080E0D7
:1013E0000E9498028091690081608093690081E089
:1013F0008CBBE89A78948091C00082608093C00092
:101400008091C30080668093C300F999FECF80E08D
:1014100090E00E94071C60E00E942607D82E8111F0
:1014200006C082E290E09093C5008093C40087E3F9
:1014300092E09F938F938BE392E09F938F938FE340
:1014400092E09F938F930E94D00285E592E09F9354
:101450008F930E94D00285E00E942704C82E8CE062
:101460008093EC0461E081E10E94140261E081E17B
:101470000E947E0361E08AE00E94140261E08CE039
:101480000E94140261E08CE00E947E0360E080E133
:101490000E947E030FB6F894DEBF0FBECDBF09E0F9
:1014A00011E0F8010F5F1F4F80810E94BA0391E0A5
:1014B00001311907B1F72CEBA22E20E0B22E10E477
:1014C000812F0E94BA03E12CF12CF501EE0DFF1DD6
:1014D00084918BA38BA10E94D703EFEFEE1AFE0A33
:1014E000F8E0EF16F10489F7185F28E0A20EB11CAE
:1014F000103831F70E94D4038091EC048E7F8093E2
:10150000EC040E94BA0389E30E94BA0382E50E94B8
:10151000BA0383E70E94BA0388E30E94BA0380916A
:10152000EC0484608093EC040E94BA038DE592E0A1
:101530009F938F9311E01F930E94E70387E392E04C
:101540009F938F938BE392E09F938F9384E692E037
:101550009F938F9382E08F930E94E7038091B60060
:1015600080628093B6001092B20017BB85E0809332
:10157000B1000FB6F894DEBF0FBECDBF8EE19FEF76
:10158000E0E7F2E09150E040F040E1F700C00000F9
:10159000B89B54C081E087BB109212058091700007
:1015A000816080937000C11411F0D11027C00E9497
:1015B000D4038FE792E09F938F9381E08F930E94F3
:1015C000E70381E00E944D070F900F900F90811567
:1015D00009F480C08EE192E09F938F9382E08F9315
:1015E0000E94E7032FEF39E648E1215030404040A8
:1015F000E1F700C000000F900F900F9080917A00EB
:10160000836080937A0080917C00806480937C006A
:101610000E94E301885893411AF4919581959109AC
:10162000883C91050CF459C00E94D4030AE812E0EA
:101630000CC06F2D802F0E947E03B1CE815009F027
:101640009ECF0E94D40302E712E01F930F9381E024
:101650008F930E94E7031F930F930E94D0020F9075
:101660000F900F900F900F9010E0812F0E945C035D
:10167000CE0101968CA39DA3E0901005E11409F41E
:101680000FC1ECA1FDA120E211922A95E9F780910A
:101690000F05811509F497C08091C1008F7E80935A
:1016A000C10010920F05F999FECF60E080E090E054
:1016B0000E94211C10920E0510920D058091C10010
:1016C00080618093C10080918400909185000E9488
:1016D0009B17E6C082E292E07FCF8DEC9CECACE4FD
:1016E000BEE38093470590934805A0934905B093C6
:1016F0004A0510922D0510922E0510922F0510927A
:101700003005109232051092330561E088E00E94A6
:101710007E0380E090E00E942503182F811509F4D4
:1017200044C08091690088608093690082E08CBB2E
:10173000E99A1092400580916D00806E80936D0053
:1017400084E08BBB80916800846080936800BFE375
:10175000109242051092430510924405B09345053E
:101760001092410510924C05809181008160809318
:10177000810087E992E09F938F930E94D0028FE9C6
:1017800092E09F938F930E94D002A89588E19FE0FA
:101790000FB6F894A895809360000FBE90936000F8
:1017A0000F900F900F900F9060CF0E94D40384EBA6
:1017B00092E09F938F9381E08F930E94E7030F90B5
:1017C0000F900F9051CFE0910E0590910D05E91704
:1017D00009F479CF21E02E0FF0E091E0980FE3516A
:1017E000FB4F3081FE013196E80FF11D3083E22F6F
:1017F000EF71AE2FB0E0A351BB4F8C918A30F1F561
:10180000FE013196E90FF11D10821C9280910D05A9
:1018100080930E05F980ECA1FDA101900020E9F76D
:1018200031978F018CA19DA1081BFE013196FF937A
:10183000EF932CEF32E03F932F930E94D0020F9052
:101840000F900F900F90023008F434C58E010E5F98
:101850001F4FC8010E94A8171C01C8010E94A417AD
:10186000EFE3FE1609F4C3C2EFE9EF0DEA3108F029
:1018700001C3F0E0E95DF24E0C943917892FA5CF32
:10188000609342057093430580934405909345050A
:10189000E4E0F3E0FF93EF930E94D0020F900F90EB
:1018A00080911205811509F485C310921205A8953F
:1018B0000E946902762E672E2C0180912705909157
:1018C0002805209138054091170550911805841777
:1018D000950709F4D7C24091390550913A056091B6
:1018E0003B0570913C058093170590931805409334
:1018F0001305509314056093150570931605211573
:10190000C9F0109238051F927F921F926F925F92DA
:101910004F928EE293E09F938F930E94D00283E6D2
:1019200093E09F938F930E94D0020FB6F894DEBF8E
:101930000FBECDBF809127059091280520912505E8
:1019400030912605BC01621B730B80932505909393
:10195000260580E090E00E94E11A6B017C012DEBEE
:101960003AE347E459E30E94421B9B01AC0160E06B
:1019700070E080E89FE30E94DE119B01AC01B6019C
:10198000C7010E944B126EA37FA388A799A78090DE
:10199000470590904805A0904905B0904A059401EC
:1019A000A50160E070E080E89FE30E94DE112091D5
:1019B00021053091220540912305509124050E9474
:1019C000421B6B017C0120E030E040E752E46EA155
:1019D0007FA188A599A50E94421B9401A5010E94A0
:1019E000421B9B01AC01B601C7010E94DF1160934D
:1019F000210570932205809323059093240520E010
:101A000030E047E553E40E944B1260933405709335
:101A1000350580933605909337056EA17FA188A583
:101A200099A50E9468110E94C212A0901905B09059
:101A30001A05C0901B05D0901C05E0901D05F09084
:101A40001E0500911F05109120050E943F1720934D
:101A5000190530931A0540931B0550931C0560939C
:101A60001D0570931E0580931F05909320050E940D
:101A7000281320E030E949E456E40E944B126093B9
:101A80002D0570932E0580932F059093300580913E
:101A9000320590913305892B09F4C6C28091310536
:101AA00081110BC089E793E09F938F930E94D0022E
:101AB00081E0809331050F900F906091390570910E
:101AC0003A0580913B0590913C05009129051091C4
:101AD0002A0520912B0530912C05600F711F821F64
:101AE000931F209132053091330540E050E00E9471
:101AF000681C672B682B692B09F00BC21F927F9221
:101B00001F926F925F924F928EE293E09F938F931A
:101B10000E94D002809130058F9380912F058F9382
:101B200080912E058F9380912D058F93809137059D
:101B30008F93809136058F93809135058F93809197
:101B400034058F9384E993E09F938F930E94D00292
:101B50000FB6F894DEBF0FBECDBFDBC18091450547
:101B60008F93809144058F93809143058F9380914B
:101B700042058F9380EC92E021C0C1010E940107D1
:101B800087CE809141051F9261C061E0211431042C
:101B900009F460E0609341058EE00E947E0378CEF8
:101BA000809130058F9380912F058F9380912E0522
:101BB0008F9380912D058F938EE993E09F938F9360
:101BC0000E94D0020F900F900F900F900F900F90E7
:101BD0005FCE60932D0570932E0580932F05909313
:101BE000300556CEE12C10911105812F90E0F99926
:101BF000FECFE11431F03110FAC0622D0E940F1CAB
:101C000047CE0E94071C1F928F931F921F9386EC52
:101C100092E0D4CF80914A058F93809149058F93AC
:101C2000809148058F9380914705A3CF6093470526
:101C3000709348058093490590934A0529CECE01BB
:101C400081960E9425038AA18F9389A18F938BE4AB
:101C500093E09F938F930E94D0020F900F900F906C
:101C60000F9016CE61E02114310409F460E088E0A1
:101C700094CF81E02114310409F480E08093400581
:101C800007CE809140057FCF809133058F9380915F
:101C90003205DCCF2092320530923305F9CD8091A8
:101CA0004C0571CF20924C05F3CD0E9496179F935F
:101CB000CDCF809137058F93809136058F9380919A
:101CC00035058F93809134058F9388EB93E076CF21
:101CD0000E9469021F926F931F927F939F938F932D
:101CE0008AED92E09F938F930E94D0020FB6F894F2
:101CF000DEBF0FBECDBFCCCD60EA71E0802F912F4B
:101D00000E94A9186C01892B09F471C060EA71E086
:101D100080E090E00E94A9187C01892B09F467C03B
:101D200060EA71E080E090E00E94A9188C01892BA4
:101D300009F45DC0C6010E94A8176C01C7010E948A
:101D4000A817F82EC8010E94A817482F40903905FF
:101D500050903A0560903B0570903C052F2D30E087
:101D6000ACE3B0E00E94591C4B015C019601A0E17C
:101D7000BEE00E94591C860E971EA81EB91E840E36
:101D8000911CA11CB11C84189508A608B708809264
:101D9000290590922A05A0922B05B0922C0578CDAA
:101DA0008091C4009091C50082CF21143104C9F400
:101DB000A89518E188E20FB6F894A89510936000F2
:101DC0000FBE8093600080E00E944D07A8958FE0D1
:101DD0000FB6F894A895109360000FBE8093600032
:101DE00057CD60E0822D0E942607811151CD8FE1F1
:101DF00093E042C08FE00E94270409E212E08111C3
:101E000002C00EE212E00E94F101F82EE92E0E94BB
:101E1000E3011F930F93EF92FF929F938F938AEEAC
:101E200092E060CF80911105AECE3110E0CF2092CC
:101E300011052ECD0E944E020CEF10E08CEDC82E45
:101E400082E0D82E90E0E92E93E0F92E1F930F93B5
:101E5000FF92EF920E94D0020F900F900F900F9080
:101E60000E94C0028111FCCF085E1F4FC016D10630
:101E700069F70ECD88E093E09F938F930DCD86E2B6
:101E800093E0FACF4091390550913A0560913B05B6
:101E900070913C058091130590911405A091150552
:101EA000B0911605CC96A11DB11D84179507A60704
:101EB000B70708F024CD21112CC081E080933805AC
:101EC0001F927F921F926F925F924F928EE293E0E9
:101ED0009F938F930E94D002CE0101960E9425030A
:101EE0000FB6F894DEBF0FBECDBF811194C060E085
:101EF00088E00E947E038A818F9389818F938EE38D
:101F000093E09F938F930E94D0020F900F900F90B9
:101F10000F901091340500913505F0903605E09052
:101F200037050E9469023B01D82EC92E80913805E1
:101F3000811509F482C091E090934E0580914D0582
:101F4000811509F474C060E089E00E947E038091ED
:101F50003D058115B1F06091390570913A05809188
:101F60003B0590913C0525E030E040E050E00E94C8
:101F7000681C672B682B692B21F48AE090E00E9493
:101F8000010786E10E942704811509F4AFC08FE0A4
:101F90000E942704811509F49DC035E030933F0568
:101FA0008FEF9FEF809302019093030110923D0504
:101FB0000E94DA048FB7F8941091520510925205DE
:101FC0008FBF80914005811509F4ECC0111509F40B
:101FD000EBC01F921F938AED93E09F938F930E9413
:101FE000D0020F900F900F900F9080914F058115A8
:101FF00019F0912F9F7E61F490914E05911509F48F
:10200000E4C090914D059111E0C01B7F09F44EC1D1
:102010000E94DA04C9C08FE493E09F938F930E94DB
:10202000D0020F900F9075CF1092310572CF86E0DD
:1020300080934C050E94D2048ACF809042059090F4
:102040004305A0904405B090450540E050E09A015A
:10205000B401C5010E94DC1A811551F0212F302FE7
:102060004F2D5E2DB401C5010E94DC1A87FD0DC005
:1020700010924E050E94D40360E089E00E947E0326
:1020800010924D0510924E0562CFE1E0E0934E05AF
:102090001F926F921F927F92CF92DF922EE233E0D7
:1020A0003F932F930E94D002EF92FF920F931F93C2
:1020B00087EA93E09F938F930E94D0020FB6F89423
:1020C000DEBF0FBECDBF80914D0581113CCF109278
:1020D0004C05B0CF80913E0580933F05853021F0BF
:1020E0008F5F80933E055CCF80E0FBCF10923E0572
:1020F0000E946902611539F08091020190910301FB
:10210000019609F055CF0E94F10125E0833DFFE0E3
:102110009F07ACF48D332FE092070CF041C023E011
:10212000873A3EE093075CF422E081314EE0940769
:1021300034F421E08B37EDE09E070CF420E080932F
:1021400002019093030120933F0531E0211130E01B
:1021500030933D0504970CF02BCF0E94D40383EC01
:1021600093E09F938F9381E08F930E94E703809188
:1021700003018F93809102018F9382ED93E09F93EF
:102180008F9382E08F930E94E703FFEF29E638E107
:10219000F15020403040E1F700C000000E9461048F
:1021A00024E0CDCF111121CF80915005811531F060
:1021B000109250050E94D4030E94DA040E94C002CB
:1021C0008111FCCF0E945B0257CA1830E9F088F4F5
:1021D000123009F45CC0143009F468C0113009F001
:1021E00017CF80914C058F5F853058F480934C0554
:1021F0000FCF103109F455C0103209F009CF0E94F9
:10220000610410924C0504CFE0914C05E11529F0D2
:10221000E33001F10E94D403FBCE80914B058F5F28
:102220008330B0F4E82F80934B0524E0E29FF00167
:102230001124EB5DFE4F80819181A281B381809357
:10224000470590934805A0934905B0934A05E2CF0E
:1022500080E0E9CFE0914605EF5F8E2FE53010F08A
:1022600080E0E0E08093460534E0E39FF001112434
:10227000EF5EFE4F80819181A281B3818093420500
:1022800090934305A0934405B0934505C3CF609157
:10229000410581E06827609341058EE00E947E033E
:1022A000B9CF91E0892780934F05B4CF81E0809327
:1022B0004D05AECE4FE3F41609F4BECDEFE9EF0DB8
:1022C000EA3108F0D7CDF0E0EF5BF24E0C9439170D
:1022D0000E94BD11E8F09E37E8F09639B8F49E38B8
:1022E00048F4672F782F8827985FF9CF86957795E0
:1022F000679593959539D0F3B62FB1706B0F711D1B
:10230000811D20F487957795679593950C948C1192
:102310000C94A7110C94D811882371F4772321F021
:102320009850872B762F07C0662311F499270DC08C
:102330009051862B70E060E02AF09A95660F771F27
:10234000881FDAF7880F9695879597F908959F3F2C
:1023500031F0915020F4879577956795B795880F60
:10236000911D9695879597F9089557FD9058440FBC
:10237000551F59F05F3F71F04795880F97FB991FE4
:1023800061F09F3F79F087950895121613061406A1
:10239000551FF2CF4695F1DF08C01616170618062E
:1023A000991FF1CF86957105610508940895E89409
:1023B000BB2766277727CB0197F908955058BB278D
:1023C000AA270E94F6110C94C91B0E94BB1B38F06F
:1023D0000E94C21B20F039F49F3F19F426F40C949C
:1023E000B81B0EF4E095E7FB0C94B21BE92F0E949A
:1023F000B51158F3BA17620773078407950720F0E1
:1024000079F4A6F50C94D7110EF4E0950B2EBA2FA3
:10241000A02D0B01B90190010C01CA01A0011124EA
:10242000FF27591B99F0593F50F4503E68F11A1696
:10243000F040A22F232F342F4427585FF3CF469527
:1024400037952795A795F0405395C9F77EF41F1649
:10245000BA0B620B730B840BBAF09150A1F0FF0F13
:10246000BB1F661F771F881FC2F70EC0BA0F621FFF
:10247000731F841F48F4879577956795B795F795EF
:102480009E3F08F0B0CF9395880F08F09927EE0F84
:102490009795879508950E945F120C94C91B0E941E
:1024A000C21B58F00E94BB1B40F029F45F3F29F08B
:1024B0000C94B21B51110C94D8110C94B81B0E94AF
:1024C000B51168F39923B1F3552391F3951B550B7F
:1024D000BB27AA2762177307840738F09F5F5F4FF7
:1024E000220F331F441FAA1FA9F335D00E2E3AF036
:1024F000E0E832D091505040E695001CCAF72BD04E
:10250000FE2F29D0660F771F881FBB1F261737079E
:102510004807AB07B0E809F0BB0B802DBF01FF27D0
:1025200093585F4F3AF09E3F510578F00C94B21BE0
:102530000C94D8115F3FE4F3983ED4F386957795D9
:102540006795B795F7959F5FC9F7880F911D969589
:10255000879597F90895E1E0660F771F881FBB1FE5
:10256000621773078407BA0720F0621B730B840B92
:10257000BA0BEE1F88F7E0950895BEE304D008F487
:1025800090E80895BFE322273327A9010E94BD11D7
:1025900060F19F5748F1B91740F1BFE3B91B992784
:1025A000B8503AF4660F771F881F991FB395D2F37E
:1025B00016C0B8504AF0232F342F452F562F672FBF
:1025C000782F8827B850BAF7B85F49F08695779585
:1025D00067955795479537952795BA95B9F716F4A6
:1025E0000E94661388940895889460E070E0CB019F
:1025F00008950E94BD1188F09F5798F0B92F992730
:10260000B751B0F0E1F0660F771F881F991F1AF0DD
:10261000BA95C9F714C0B13091F00E94D711B1E05A
:1026200008950C94D711672F782F8827B85F39F059
:10263000B93FCCF3869577956795B395D9F73EF476
:1026400090958095709561957F4F8F4F9F4F08951E
:10265000E894F92F96EBFF2381F012161306140667
:10266000440B9395F69587957795679557954040D8
:10267000FF23B9F71BC099270895882351F4985078
:10268000D2F7872B762F652F542F432F322F20E040
:10269000B1F3121613061406440B88233AF09A95E8
:1026A000440F551F661F771F881FCAF755234AF42A
:1026B000440F551F11F460FF04C06F5F7F4F8F4FB1
:1026C0009F4F880F9695879597F9089590958095D7
:1026D0007095609550954095309521953F4F4F4F9F
:1026E0005F4F6F4F7F4F8F4F9F4F0895AFE0B0E028
:1026F000ECE7F3E10C9402177C013B015A01FC0169
:1027000016821782838181FF51C39AE0292EF70137
:102710002381F30123FD859123FF81913F018115E1
:1027200009F442C0853239F423FD959123FF91913C
:102730003F01953239F4B70190E00E94E818650135
:102740005601E5CF30E010E0812C912CF0E28F169D
:1027500008F03CC09B3279F160F4903271F1933211
:1027600091F19E3209F045C086FC1EC0689486F83F
:1027700006C09D3229F1903359F5689480F8F30131
:1027800023FD959123FF91913F019111DFCF082DFA
:10279000097F903709F481C208F077C2983509F4AF
:1027A0007FC29F3609F483C2F701868197812F96F5
:1027B000E2E10C941E17689481F8689482F8DFCFE8
:1027C000689483F8DCCF689484F8D9CF87FC1BC069
:1027D00080ED890F8A3028F686FE05C0129D800D97
:1027E0001124182FCCCF929C800D1124982E8F2A63
:1027F000C6CF9C3619F4689487F8C1CF9C3409F190
:10280000983609F4BCCF3115F1F0892F8F7D8554AE
:10281000833008F095C1650128E0C20ED11C8FE31A
:10282000898301E010E05E013FEFA31AB30AE89448
:1028300087F883FC04C00915110508F4E8C1592C78
:10284000FEC131E09CCF8BEB890F833090F468940C
:1028500084F8905E86FE16E04FE38422953689F474
:10286000689486F8212F183010F027E017E0412CEB
:1028700014C08BE9890F833008F062C1E89484F8B2
:10288000E9CF963699F5689487F8812F1C3308F0C4
:102890008BE344244394480E27E0F5016191719144
:1028A000819191916F01042DAE014F5F5F4F0E94A6
:1028B000C6175C013980832D89700DE2813029F0C3
:1028C00082FA002705F981FC0BE2F32DFC705F2EE4
:1028D000F11541F133FA332433F801116AC224E0CF
:1028E000512C921608F47CC283E068C220E01115D6
:1028F00009F4BDCF1150B6CF81108052B70190E0DE
:102900000E94E8180F5F1F4FF80184918111F4CFE6
:10291000511409F415CFB70180E290E00E94E81845
:102920005A94F6CF87FE2FC0842D8A0D34FE04C042
:102930009A81913309F4815044244394181634F455
:10294000482EF9E08F1710F088E0482EC501B7FE39
:1029500002C080E090E0019601110196111531F05E
:10296000212F30E02F5F3F4F820F931F8915910574
:1029700014F4592C581A882D8970A1F551102BC0C8
:102980000115C9F131C086FC23C0E12FF0E01A1512
:102990001B043CF02CEFA2162FEFB20614F0689443
:1029A00087F8CE010396E80FF91F01C011501115E9
:1029B00019F082918033D1F387FE0AC044244394F6
:1029C000410EA116B10414F41A19C0CF10E0BECF05
:1029D00085E090E0C1CFB70180E290E00E94E81866
:1029E0005A94CCCF011529F0B701802F90E00E94B6
:1029F000E81883FC02C051103FC087FE56C0450155
:102A0000B7FE02C0812C912CCE0101968A0D9B1D30
:102A1000FC01E819F909EC87FD87950124193109B2
:102A20002E873F87012F10E0119501951109A814F9
:102A3000B9044CF18E859F858815990524F5EC85A0
:102A4000FD858181F1E08F1A910880169106ECF0E6
:102A50002C853D852F5F3F4F2C873D87B70190E048
:102A60000E94E8183FEF8316980409F7B7018EE239
:102A700090E00E94E818DBCFB70180E390E00E946D
:102A8000E8185A94B8CF80E3DDCFA814B90431F424
:102A90009A81953318F039F434FE05C0B70190E0FF
:102AA0000E94E81835CF81E3F9CF8A81813311F094
:102AB000E89434F8B70190E00E94E818111124C09E
:102AC00085E490E084FC02C085E690E0B7010E94B6
:102AD000E818A114B1041CF061F534FE2AC0B194C9
:102AE000A194B1088DE2B70190E00E94E81880E35C
:102AF0009AE0A916B104FCF4B70190E00E94E8182E
:102B0000B701C501C096CCCFB7018EE290E00E941C
:102B1000E8181E5F02E0802F0F5FFE013196E80F7C
:102B2000F11D8081B70190E00E94E8180113F3CFF6
:102B3000C7CF8BE2D8CF8F5F4AE0A41AB108D8CFB5
:102B40009336B9F1933709F442C0933509F44EC076
:102B5000943619F0993609F07EC0F50187FE73C0EE
:102B600061917191819191916F01082D0F7697FF7D
:102B700003C00E94FA1600682AE030E05E01FFEF11
:102B8000AF1ABF0AA5010E941819B82EBA1806FF7D
:102B900098C0802F8E7FB11608F092C004FFE4C069
:102BA00002FDD8C00E7E512E802F867809F494C085
:102BB000D6C06501E2E0CE0ED11CF501808189838B
:102BC00001E010E05E01FFEFAF1ABF0A30CEF50161
:102BD000A190B1906F01612F70E086FC02C06FEF91
:102BE0007FEFC5010E94AE188C0121CEF501A190A6
:102BF000B1906F01612F70E086FC02C06FEF7FEF34
:102C0000C5010E949E188C01689487F812CEB70106
:102C100080E290E00E94E8189A940DCEF50187FCBE
:102C2000859187FE81915F01B70190E00E94E818CD
:102C300081E0511001C080E0581A015011090115BE
:102C4000110561F765CE619171916F01872F880F32
:102C5000880B982F8ACF953709F099CD082D0F7ED4
:102C60002AE030E0F50107FF25C061917191819163
:102C700091916F015E01FFEFAF1ABF0AA5010E949B
:102C80001819B82EBA180F7782CF983709F08CCD63
:102C900084FC04C020E130E0E5CF00610460FACF9D
:102CA00084FE02C0082D066020E132E0DBCF28E080
:102CB00030E0D8CF619171916F0180E090E0DACF80
:102CC000082F5B2C04FF70CFFE01EB0DF11D8081FE
:102CD000803309F042C0097E03FD0EC000FF50C0E2
:102CE0001B2D591418F4190D1519592C892D8519F6
:102CF000951408F480E0580E591408F043C0951854
:102D0000592C04FF41C0B70180E390E00E94E8180D
:102D100002FF09C088E590E001FD02C088E790E06D
:102D2000B7010E94E818B116D0F18E010F5F1F4F56
:102D3000BA949E012E5F3F4F2B0D311D5901F501B5
:102D400082915F01B70190E00E94E818A016B106D9
:102D5000B1F7DECD512E082FB7CF02FD02C053943C
:102D6000BBCF53945394B8CF512E082F1DCFB7012A
:102D700080E290E00E94E818A394A914C0F3B6CFB3
:102D8000A52CFBCF512CBDCF802F867861F280E23D
:102D900001FD8BE207FD8DE2B70190E0C2CFB701E4
:102DA00080E390E00E94E8181150BDCF8FEF9FEFB5
:102DB000FECCF5E0512C9F1670F084E0592C581A87
:102DC00083FC07C0B70180E290E00E94E8185A94A3
:102DD000C9F7011529F0B701802F90E00E94E8188B
:102DE00004EB10E0311002C008EB10E084FA8824F4
:102DF00084F88ACD90958095709561957F4F8F4F1F
:102E00009F4F08952F923F924F925F926F927F92C1
:102E10008F929F92AF92BF92CF92DF92EF92FF92EA
:102E20000F931F93CF93DF93CDB7DEB7CA1BDB0B96
:102E30000FB6F894DEBF0FBECDBF09942A8839883B
:102E400048885F846E847D848C849B84AA84B98442
:102E5000C884DF80EE80FD800C811B81AA81B9814E
:102E6000CE0FD11D0FB6F894DEBF0FBECDBFED0162
:102E70000895EE0FFF1F0590F491E02D09942A0D9F
:102E80003B1D4C1D5D1D6E1D7F1D801F911F0895F4
:102E9000AAE0B0E0EEE4F7E10C94121789879A8774
:102EA000FC01608171818281938100977040604054
:102EB00021F464E279ED8BE597E02DE133EF41E019
:102EC00050E00E942F1C29833A834B835C839B0133
:102ED000AC01A7EAB1E40E94461C6D837E838F8318
:102EE0009887ACEEB4EF29813A814B815C810E94D6
:102EF000541C2D813E814F815885260F371F481F56
:102F0000591FC901DA01B7FF03C00197A109B048F1
:102F1000E985FA8580839183A283B3839F772A967C
:102F2000E2E00C942E170E944817089585E091E086
:102F30000E9448170895809305019093060110920E
:102F40000701109208010895662777270C947619D7
:102F5000FC0188279927E89421912032E9F3293050
:102F600010F02E30C8F32B3241F02D3239F4689432
:102F700004C00E94E018820F911D219120532A3035
:102F8000C0F31EF4909581959F4F0895283008F066
:102F900027E03327DA01990F311D87FD91600096F4
:102FA0006105710539F432602E5F3D9330E32A9557
:102FB000E1F708959F3F30F080387105610509F011
:102FC0003C5F3C5F3D93913008F08068911DDF933A
:102FD000CF931F930F93FF92EF92192F987F96959F
:102FE000E92F96959695E90FFF27EE58F64C99270D
:102FF0003327EE24FF24A701E701059008940794E6
:1030000028F4360FE71EF81E491F511D660F771F63
:10301000881F991F0694A1F70590079428F4E70EDE
:10302000F81E491F561FC11D770F881F991F661F65
:103030000694A1F70590079428F4F80E491F561F2F
:10304000C71FD11D880F991F661F771F0694A1F710
:103050000590079420F4490F561FC71FD81F990FDA
:10306000661F771F881F0694A9F784911095177023
:1030700041F0D695C79557954795F794E7941A95DB
:10308000C1F7E8E1F9E368941590159135916591E0
:10309000959105907FE27395E118F10A430B560B69
:1030A000C90BD009C0F7E10CF11E431F561FC91F01
:1030B000D01D7EF4703311F48A95E6CFE894015068
:1030C00030F0080F0AF40027021708F4202F239588
:1030D000022F7A3328F079E37D932A95E9F710C01F
:1030E0007D932A9589F60694979567953795179558
:1030F0001794E118F10A430B560BC90BD00998F04D
:1031000023957E9173957A3308F070E37C932013B6
:10311000B8F77E9170617D9330F0839571E37D9374
:1031200070E32A95E1F71124EF90FF900F911F9122
:10313000CF91DF91992787FD90950895FC01059027
:10314000615070400110D8F7809590958E0F9F1FA9
:10315000089544E555E00E94B9180895FC016150B6
:10316000704001900110D8F7809590958E0F9F1FA9
:103170000895FA01A191B081009719F41097E1F038
:10318000CD01DC01CD010D90002011F4C00113C070
:10319000FB012191222319F02015D9F7F3CFFB0170
:1031A0002191201519F41E92119606C02223C1F711
:1031B0000D900020A1F7D001FA01A193B0830895EA
:1031C0007AE0979F902D879F802D910D112408956F
:1031D0000F931F93CF93DF93182F092FEB018B8150
:1031E00081FD09C00FEF1FEF812F902FDF91CF914D
:1031F0001F910F91089582FF14C02E813F818C8111
:103200009D81281739073CF4E881F981CF010196A7
:103210008883998310838E819F8101968E839F83FB
:10322000E3CFE885F985812F0995892BA1F3DACFC2
:10323000FA01AA27283051F1203181F1E8946F93E7
:103240006E7F6E5F7F4F8F4F9F4FAF4FB1E03ED08D
:10325000B4E03CD0670F781F891F9A1FA11D680F2B
:10326000791F8A1F911DA11D6A0F711D811D911D5E
:10327000A11D20D009F468943F912AE0269F1124D3
:103280003019305D3193DEF6CF010895462F477037
:10329000405D4193B3E00FD0C9F7F6CF462F4F7092
:1032A000405D4A3318F0495D31FD4052419302D0F0
:1032B000A9F7EACFB4E0A695979587957795679596
:1032C000BA95C9F700976105710508959B01AC0196
:1032D0000A2E06945795479537952795BA95C9F7BD
:1032E000620F731F841F951FA01D0895A0E0B0E01A
:1032F000ECE7F9E10C940417EC016B016115710521
:1033000019F0FB018083D1837E012196F7010081B2
:10331000802F90E00E94BB1A5C01892BA9F70D3227
:1033200099F5C701029608817E01EC0111E043E0A6
:1033300050E06AE17AE3C7010E94C41A892B69F55B
:1033400022967E0145E050E065E17AE3CE010E94DD
:10335000C41A892B19F485E0E80EF11CC114D104BC
:1033600019F0F601E082F182111509F4FDC0812CFB
:10337000912CD0E8AD2EDFEFBD2EB401C501CDB745
:10338000DEB7E0E10C9420170B3229F4C701029656
:1033900008817E01EC0110E0CACF43E050E062E119
:1033A0007AE3C7010E94C41A892B71F4C114D104B5
:1033B00021F02296F601C083D183812C912CC0ECA0
:1033C000AC2ECFE7BC2ED9CFE12CF12C9701A70171
:1033D00000530A3048F5E12FE26012FF08C013FDE8
:1033E00003C0FFEFEF1AFF0A09911E2FF1CF13FF61
:1033F00003C081E0E81AF108A5E0B0E00E94461C95
:103400009B01AC01220F331F441F551F200F311D9C
:10341000411D511D2839F9E93F074F07F9E15F07C1
:1034200018F3E12FE660E0CF0E3F29F413FD3BC017
:10343000E12FE860D9CF0F7D0531A9F588818D3264
:1034400041F41061BE016E5F7F4F8981E2E0F0E0E0
:1034500007C0BE018B32B9F36F5F7F4FE1E0F0E050
:10346000805395E0EB01CE1BDF0B8A30E0F4E0E8FF
:10347000AE16ECE0BE0654F49A9DF0019B9DF00D53
:103480001124EE0FFF1F5F01A80EB11CEB01899103
:1034900080538A3008F458C014FF03C0B194A1943B
:1034A000B108EA0CFB1C11FF07C0C114D10421F0C4
:1034B0002197F601C083D183B901CA010E94E11AA4
:1034C0004B015C011370133021F4B7FAB094B7F8D4
:1034D000B0942401350140E050E09A01B401C501E7
:1034E0000E94DC1A811509F448CFC9E4DAE3F7FE3B
:1034F00005C0F194E194F108C1E3DAE36E01F8E16B
:10350000CF1AD10800E210E042015301E016F106A3
:10351000ECF4249715950795CC16DD06A9F78A2DAE
:10352000880F8B2D881F8F3F49F040E050E09A01B3
:10353000B201C3010E94DC1A81111FCF82E2809385
:1035400056051092570519CFBE0191CFFE01659126
:103550007591859195919201A3010E94421B2B01C7
:103560003C01E01AF10AD0CF812C912C80E8A82EE2
:103570008FE7B82E02CF91110C94AF1B803219F057
:1035800089508550C8F70895FB01DC014150504037
:1035900088F08D9181341CF08B350CF4805E659140
:1035A00061341CF06B350CF4605E861B611171F3A5
:1035B000990B0895881BFCCF0E941E1B08F481E024
:1035C0000895E89409C097FB3EF490958095709516
:1035D00061957F4F8F4F9F4F9923A9F0F92F96E95F
:1035E000BB279395F695879577956795B795F111D4
:1035F000F8CFFAF4BB0F11F460FF1BC06F5F7F4F71
:103600008F4F9F4F16C0882311F096E911C0772382
:1036100021F09EE8872F762F05C0662371F096E88B
:10362000862F70E060E02AF09A95660F771F881F5A
:10363000DAF7880F9695879597F90895990F0008FE
:10364000550FAA0BE0E8FEEF16161706E807F90774
:10365000C0F012161306E407F50798F0621B730B0F
:10366000840B950B39F40A2661F0232B242B252B90
:1036700021F408950A2609F4A140A6958FEF811D33
:10368000811D08950E94551B0C94C91B0E94BB1BF1
:1036900038F00E94C21B20F0952311F00C94B21B4D
:1036A0000C94B81B11240C94D8110E94B51170F31E
:1036B000959FC1F3950F50E0551F629FF001729FD7
:1036C000BB27F00DB11D639FAA27F00DB11DAA1FE6
:1036D000649F6627B00DA11D661F829F2227B00D33
:1036E000A11D621F739FB00DA11D621F839FA00DBE
:1036F000611D221F749F3327A00D611D231F849F0E
:10370000600D211D822F762F6A2F11249F57504064
:103710009AF0F1F088234AF0EE0FFF1FBB1F661FDF
:10372000771F881F91505040A9F79E3F510580F0A8
:103730000C94B21B0C94D8115F3FE4F3983ED4F381
:10374000869577956795B795F795E7959F5FC1F74C
:10375000FE2B880F911D9695879597F908959927C7
:103760008827089597F99F6780E870E060E00895E2
:103770009FEF80EC089500240A9416161706180689
:103780000906089500240A94121613061406050665
:103790000895092E0394000C11F4882352F0BB0FF6
:1037A00040F4BF2B11F460FF04C06F5F7F4F8F4F59
:1037B0009F4F0895AEE0B0E0E0EEFBE10C941017EF
:1037C0008C01CA0146E04C8309831A83FB016130F6
:1037D000704810F0E0E0F0E83197ED83FE83A90136
:1037E000BC01CE0101960E9476134D815E8157FD8A
:1037F0000AC02F813885421753070CF49A01020F33
:10380000131FF80110822E96E4E00C942C17F999FE
:10381000FECF92BD81BDF89A992780B50895262FD5
:10382000F999FECF92BD81BDF89A019700B40216B6
:1038300039F01FBA20BD0FB6F894FA9AF99A0FBE64
:103840000895262FF999FECF1FBA92BD81BD20BDE4
:103850000FB6F894FA9AF99A0FBE01960895052EBC
:1038600097FB1EF400940E94FA1657FD07D00E94A1
:10387000681C07FC03D04EF40C94FA165095409542
:10388000309521953F4F4F4F5F4F08950E94591C2F
:10389000A59F900DB49F900DA49F800D911D1124A4
:1038A0000895B7FF0C94461C0E94461C821B930B84
:1038B0000895A29FB001B39FC001A39F700D811D09
:1038C0001124911DB29F700D811D1124911D089529
:1038D000A1E21A2EAA1BBB1BFD010DC0AA1FBB1F14
:1038E000EE1FFF1FA217B307E407F50720F0A21B86
:1038F000B30BE40BF50B661F771F881F991F1A94F3
:1039000069F760957095809590959B01AC01BD011C
:10391000CF010895F894FFCF00407A10F35A00A029
:10392000724E18090010A5D4E80000E87648170088
:1039300000E40B54020000CA9A3B000000E1F505C8
:10394000000080969800000040420F000000A08612
:1039500001000000102700000000E8030000000044
:103960006400000000000A000000000001000000E8
:1039700000002C76D888DC674F0823DFC1DFAE5902
:10398000E1B1B796E5E3E453C63AE651997696E895
:10399000E6C28426EB898C9B62ED407C6FFCEFBC19
:1039A0009C9F40F2BAA56FA5F490055A2AF75C9344
:1039B0006B6CF9676DC11BFCE0E40D47FEF520E67A
:1039C000B500D0ED902E0300943577050080841E5D
:1039D000080000204E0A000000C80C333333330FB8
:1039E000986E12831141EF8D2114893BE65516CF55
:1039F000FEE6DB18D1844B381BF77C1D901DA4BB61
:103A0000E424203284725E228100C9F124ECA1E515
:103A10003D274E414E494E495459494E46CDCCCC96
:103A20003D0AD7233C17B7D13877CC2B329595E692
:103A3000241FB14F0A000020410000C84200401C72
:103A40004620BCBE4CCA1B0E5AAEC59D7400400C2D
:103A5000BD0DC50DE90DF30D160E3A0F320E3A0FDE
:103A60003A0F390E4A0E520E3F0F3A0F3A0F3A0FE5
:103A70003F0FFF107C0ED50E3F0F3A0F150F3A0F78
:103A80001A0FAE0D3F0FC10DD00DF20D0A0E3A0FF9
:103A90001F0E3A0F3A0F410E440E4F0E550E3A0FBD
:103AA0003A0F3A0F590EFF10680ED00EFA0E3A0F69
:063AB000120F3A0F1A0F7D
:103AB6000105FFFF0F01000000391C52697438012F
:103AC600060000003F0000803F000000400000A00C
:103AD6004000000000CDCC4C3ECDCC4C3D0AD7A3D7
:103AE6003C53687574646F776E2E2E0A00446F73AC
:103AF6006520526174653A00252E33667553762F1C
:103B06006800252E32667553762F6800252E31669D
:103B16007553762F6800252E32666D53762F680012
:103B2600546F74616C20446F73653A00252E3366BA
:103B360075537600252E326675537600252E31662E
:103B460075537600252E32666D53760054696D6581
:103B56003A00253032753A253032753A25303275BD
:103B660000566F6C74616765733A0056733D252E77
:103B760032662056623D252E326600416C61726DBA
:103B8600204C766C3A004F6666005241442046410E
:103B9600554C5420212121004F4B004552524F5283
:103BA60000554152542063616C6962726174696F99
:103BB6006E2E2E20002573210A665F72633A202539
:103BC6006C752C20554252523A2025750A004F4BEF
:103BD60021004552524F52210066756C6C00636895
:103BE600617267696E6700322E3100322E30004FE7
:103BF600534952495320485720762573204657206B
:103C06007625730A00496E69742E2E0A004F5349B1
:103C1600524953004857207625732046572076256B
:103C26007300525443204641554C542021210055DF
:103C36004152542063616C2E2E004144432046417C
:103C4600554C54202121005265616479210A0045B2
:103C56006E74657220273F2720666F722068656C38
:103C6600702E0A004856204641554C54202121000A
:103C7600252E33660A004545505B3078253032588C
:103C86005D3D3078253032580A00253032753A25A8
:103C96003032753A253032750A00567379733D25F0
:103CA600752C20566261743D25752C2025730A00FB
:103CB60025530A004F4B0A00554E4B4E4F574E2088
:103CC6002D20273F27202D3E2068656C700A004571
:103CD60052524F520A0044454E4945440A00253087
:103CE60032753A253032753A2530327520004856FD
:103CF600204641554C54202121212025750A004497
:103D060045544543544F52204641554C5420212199
:103D1600210A004465746563746F72207265636F6F
:103D260076657265642E2E0A0054696D6520202022
:103D360020205261746520202020202020546F749A
:103D4600616C0A00252E33667553762F6820252E62
:103D560034667553760A00446F7365205261746544
:103D660020416C6572742120252E33667553762F9B
:103D7600680A004241545445525920454D50545901
:103D86002100566261743D2575004B45593A202540
:043D9600640A0000BB
:00000001FF
